:020000040800F2
:10000000A0060020D5000008B92700086F270008C7
:1000100000000000000000000000000000000000E0
:100020000000000000000000000000008928000817
:100030000000000000000000BD2700088B28000819
:10004000E7000008E7000008E7000008E7000008F4
:10005000E7000008E7000008E7000008E7000008E4
:10006000E7000008E7000008E7000008E7000008D4
:10007000E7000008E700000800000000E7000008B3
:1000800000000000E7000008000000000000000081
:10009000E700000800000000E7000008E700000893
:1000A000E7000008E7000008E70000082D3300081B
:1000B000E7000008E700000800000000E700000873
:1000C0000348854600F0A6F800480047673400085A
:1000D000A00600200448804704480047FEE7FEE7EA
:1000E000FEE7FEE7FEE7FEE729290008C100000859
:1000F00030B50B46014600202022012409E00D46C0
:10010000D5409D4205D31D469540491B2546954047
:1001100040191546521E002DF1DC30BDF0B51FB45C
:100120000646002082B005464024019100901BE065
:10013000019922460F46304600F05BF8049A059B71
:10014000801A994110D310461946224600F041F812
:10015000361A8F410197224601200021009F00F0AE
:1001600038F838184D4100902046641E0028DFDC26
:10017000019B00982946324607B0F0BD03460B4369
:100180009B0703D009E008C9121F08C0042AFAD24D
:1001900003E00B780370401C491C521EF9D27047D3
:1001A000D2B201E00270401C491EFBD2704700220F
:1001B000F6E710B513460A4604461946FFF7F0FF66
:1001C000204610BD421C0178401C0029FBD1801A3A
:1001D000704710B5202A04DB0146203A91400020E8
:1001E00010BD914020239C1A0346E34019439040E0
:1001F00010BD10B5202A04DB0846203AD04000216B
:1002000010BD0B46D340D0402024A21A9140084391
:10021000194610BD064C0125064E05E0E36807CCE3
:100220002B430C3C98471034B442F7D3FFF74CFFF4
:10023000B8340008D83400080EB5FE4800781628F7
:1002400070D243007B449B885B009F4415003D00B7
:100250006C009A00C000F50034016C01AE01D401BD
:100260000203290354038003AB03D90307043204B8
:100270005E048904B404DF0455200290EEA000F06F
:100280005DFE0122114602A800F0E4FD0120E949CB
:1002900008707D20C00003F051F8EBA000F04EFE86
:1002A000EC480178EC4800F059FEEB4800785528FE
:1002B00006D0EAA000F042FE0020DE490870C3E24A
:1002C0000120DC490870FAE7E8A103C90291019016
:1002D000E8A000F033FE0222052101A800F0BAFDDB
:1002E000282000F0C1FE7D20C00003F027F8E6A022
:1002F00000F024FED7480178D74800F02FFED648FA
:10030000007887280AD0D4480078832806D0E1A056
:1003100000F014FE0020C7490870D0E70220C5494C
:100320000870CCE7F0E3E0A103C902910190E0A0DE
:1003300000F004FE0222072101A800F08BFD282016
:1003400000F092FE7D20C00002F0F8FFCEA000F089
:10035000F5FDC0480178C04800F000FEBE480078B6
:1003600000280AD0BC484078002806D0D5A000F06C
:10037000E5FD0020AF490870A1E70320AD490870F2
:100380009DE7D6A000680290D5A000F0D7FD072217
:10039000042102A800F05EFD282000F065FE7D200B
:1003A000C00002F0CBFFD2A000F0C8FDA948017840
:1003B000A94800F0D3FDA8480078802803D0002089
:1003C0009C4908707BE704209A49087077E7CBA125
:1003D00003C902910190CBA000F0B0FD0A220521D3
:1003E00001A800F037FD282000F03EFE7D20C0006F
:1003F00002F0A4FFC9A000F0A1FD9648017896483C
:1004000000F0ACFDCB480078072810DB0420CA4977
:10041000087004229049C91CC848FFF7AFFEC8A065
:1004200000F08CFD0421C54800F098FD03E0002099
:100430008049087043E700BFC4A207CA6B4607C3E0
:1004400085488178684601718348C1786846417162
:1004500081480179684681717F4841796846C17158
:100460007D488179684601727B48C179684641724E
:10047000B9A000F063FD08220A21684600F0EAFCFA
:10048000282000F0F1FD7D20C00002F057FFB8A049
:1004900000F054FD6F4801786F4800F05FFD6E4832
:1004A0000078802803D000206249087007E7062002
:1004B0006049087003E7B2A103C902910190B2A09C
:1004C00000F03CFD0A22052101A800F0C3FC282011
:1004D00000F0CAFD7D20C00002F030FFB0A000F0A7
:1004E0002DFD5C4801785C4800F038FD91480078AB
:1004F000072810DB04209049087004225649C91CC3
:100500008E48FFF73BFEA9A000F018FD04218B48A0
:1005100000F024FD03E0002046490870CFE60720E4
:1005200044490870CBE6A4A14A680868896801922A
:100530000291009048488178684601714648C17828
:100540006846417144480179684681714248417961
:100550006846C17140488179684601723E48C17958
:100560006846417297A000F0E9FC08220A2168461B
:1005700000F070FC282000F077FD7D20C00002F024
:10058000DDFE96A000F0DAFC32480178324800F037
:10059000E5FC31480078802803D000202549087008
:1005A0008DE608202349087089E690A00068029033
:1005B0008FA000F0C3FC0F22042102A800F04AFC27
:1005C000282000F051FD7D20C00002F0B7FE8CA075
:1005D00000F0B4FC1F4801781F4800F0BFFC1E4823
:1005E0000078802803D000201249087067E60920AF
:1005F0001049087063E61DA103C90291019085A00E
:1006000000F09CFC0622052101A800F023FC282014
:1006100000F02AFD7D20C00002F090FE81A000F0D5
:100620008DFC0C4801780C4800F098FC0A480078D2
:10063000902801E11A000020302053544154453DD8
:100640004543484F0D0A00004543484F2052583A51
:1006500020000000200000201E0200204543484FDB
:10066000204552524F520D0A000000000403C2FF01
:1006700028000000312053544154453D50524F54FE
:100680004F434F4C0D0A000050524F544F205258C8
:100690003A200000535441544520524553455420BC
:1006A0004552524F520D0A00020502000010000090
:1006B000322053544154453D50524F544F434F4CB8
:1006C0000D0A000050524F54434F4C2053454C45A7
:1006D0004354204552524F520D0A0000040226078F
:1006E000332053544154453D524551410D0A0000B9
:1006F000524551412052583A2000000004039320F3
:1007000008000000342053544154453D414E5449A3
:10071000434F4C4C20434C310D0A0000414E54498C
:10072000434F4C4C4953494F4E20434C3120525873
:100730003A200000180000201900002014020020B8
:100740005549442050415254313A200004089370D6
:100750000000000000000000352053544154453D86
:1007600053454C45435420434C310D0A00000000D2
:1007700053454C20434C312052583A200000000091
:100780000403952008000000362053544154453D91
:10079000414E5449434F4C4C20434C320D0A00000B
:1007A000434C322052583A20000000005549442062
:1007B00050415254323A2000040895700000000065
:1007C00000000000372053544154453D53454C45EB
:1007D000435420434C320D0A0000000053454C2086
:1007E000434C322052583A20000000000402602896
:1007F00038204745542056455253494F4E0D0A0064
:100800004745542056455253494F4E2052583A209E
:1008100000000000392053544154452052455345AF
:10082000540D0A0053544154452052455345542019
:1008300052583A200000000007D0FE480078802877
:1008400003D00020FC490870EEE20A20FA49087043
:10085000EAE2FAA103C902910190FAA000F06EFB4E
:100860000222072101A800F0F5FA282000F0FCFB85
:100870007D20C00002F062FDF7A000F05FFBFB48A6
:100880000178EC4800F06AFBEA480078872803D03A
:100890000020E9490870C7E20B20E7490870C3E26D
:1008A000F3A103C902910190F3A000F047FB0222DB
:1008B000052101A800F0CEFA282000F0D5FB7D200C
:1008C000C00002F03BFDF1A000F038FBE7480178E2
:1008D000D84800F043FBD7480078802807D0D54897
:1008E0000078802803D00020D34908709CE20C20B7
:1008F000D149087098E2EA4903C902910190E9A040
:1009000000F01CFB0222052101A800F0A3FA282018
:1009100000F0AAFB7D20C00002F010FDE0481C3072
:1009200000F00CFBD1480178C24800F017FBC14829
:100930000078902807D0DA48283000F0FFFA00202D
:10094000BD49087070E20D20BB4908706CE2DAA165
:1009500003C902910190DAA000F0F0FA0222072107
:1009600001A800F077FA282000F07EFB7D20C0006F
:1009700002F0E4FCD7A000F0E1FABC480178AD48F1
:1009800000F0ECFAAB480078872807D0A948007837
:10099000802803D00020A849087045E20E20A6490F
:1009A000087041E2D0A211685068926802920091EA
:1009B0000190D0A000F0C2FA06220921D24800F02E
:1009C00049FA282000F050FB7D20C00002F0B6FC60
:1009D000CEA000F0B3FAA5480178964800F0BEFA20
:1009E00094480078902807D092480078802803D057
:1009F00000209149087017E20F208F49087013E218
:100A0000C7A2116850689268029200910190C7A035
:100A100000F094FA06220921C94800F01BFA2820A8
:100A200000F022FB7D20C00002F088FCC5A000F091
:100A300085FA8E4801787F4800F090FA7D4800786A
:100A4000902807D07B480078802803D000207A497E
:100A50000870E9E1102078490870E5E1904903C980
:100A600002910190BCA000F069FA0222052101A8C0
:100A700000F0F0F9282000F0F7FA7D20C00002F025
:100A80005DFCBB4800F05AFA78480178694800F0EC
:100A900065FA68480078902807D08148283000F02F
:100AA0004DFA002064490870BEE1112062490870C7
:100AB000BAE162A103C902910190AEA000F03EFA32
:100AC0000222072101A800F0C5F9282000F0CCFA85
:100AD0007D20C00002F032FC5FA000F02FFA6348D6
:100AE0000178544800F03AFA52480078872807D035
:100AF00050480078802803D000204F49087093E1C7
:100B000012204D4908708FE18AE159A103C9029171
:100B100001909DA000F012FA0222052101A800F028
:100B200099F9282000F0A0FA7D20C00002F006FC10
:100B300056A000F003FA4D4801783E4800F00EFA46
:100B40003C480078802807D03A480078802803D0B5
:100B500000203949087067E113203749087063E1C4
:100B60004F4903C9029101908CA000F0E7F90222DD
:100B7000052101A800F06EF9282000F075FA7D200B
:100B8000C00002F0DBFB7A4800F0D8F93748017862
:100B9000284800F0E3F927480078902807D040481B
:100BA000283000F0CBF90020234908703CE11420E4
:100BB0002149087038E140A103C9029101907DA04C
:100BC00000F0BCF90222072101A800F043F9282017
:100BD00000F04AFA7D20C00002F0B0FB3DA000F01A
:100BE000ADF922480178134800F0B8F911480078AF
:100BF000872807D00F480078802803D000200E49AE
:100C0000087011E115200C4908700DE16EA103C9AF
:100C1000029101906EA000F091F90222062101A834
:100C200000F018F9282000F01FFA7D20C00002F023
:100C300085FBD9E01E0200201A00002004050300F5
:100C400000002800313020534543544F5220534573
:100C50004C4543540D0A0000534543544F52205312
:100C6000454C4543542052583A20000020000020B3
:100C7000040330F82800000031312050414745205E
:100C8000524541442046380D0A0000005041474576
:100C900020524541442046382052583A2000000056
:100CA0006C06000831322053544154453D50524F98
:100CB000544F434F4C0D0A0004050000000028006B
:100CC00031332047415552442044454C41590D0A87
:100CD0000000000047415552442044454C415920F2
:100CE00052583A20000000000407A2FE1E0613849A
:100CF00028000000313420504147452057524954C4
:100D0000452046450D0A000000000020504147459F
:100D10002057524954452046452052583A20000059
:100D20000407A2FFA55A29032800000031352050EE
:100D30004147452057524954452046460D0A000078
:100D4000090000205041474520575249544520464C
:100D5000462052583A200000313620535441544521
:100D60003D2053544154452052455345540D0A00EB
:100D700024080008313720534543544F522053452F
:100D80004C4543540D0A000031382050414745205E
:100D9000524541442046380D0A00000031392053A5
:100DA000544154453D5354415445205245534554B4
:100DB0000D0A000032302047415552442044454C32
:100DC00041590D0A0000000004043AF0FF28000019
:100DD0003231205041474520524541442046302D74
:100DE00046460D0A0000000010A000F0A7F81548C4
:100DF0000178154800F0B2F813480078802803D035
:100E00000020124908700FE00E4801880E4801F0DA
:100E1000D7FC00200D4908700D4800F025F903E0CB
:100E200000200A49087000BF00BF0EBD5041474571
:100E300020524541442046302D46462052583A2003
:100E400000000000200000201E0200201A000020E8
:100E5000B80B000070B504460D46164600200D493B
:100E600008700D48067000200C49088080210C484D
:100E7000FFF79DF964232A4621460A4801F002FC47
:100E800001220949074801F08FFB00F0FBF90749EF
:100E9000086070BD13000020180000202000002012
:100EA0001E0200208C0100202500002014000020DC
:100EB00000B587B01D48406B0121890308431B49D9
:100EC000486300BF0846C06A022108431749C86248
:100ED0000846C06A02210840019000BF00BF1421EB
:100EE00002A8FFF764F9C0200290022003900020BE
:100EF0000490022005900020069002A90C4800F002
:100F0000C9F80C480C490860E12000024860002143
:100F10000948816001214903C160002101610C2160
:100F2000416101F08FFA07B000BD000000100240DF
:100F300000040050003801408C01002070B50446C8
:100F40002046FFF73FF985B264232A46214602482E
:100F500001F098FB70BD000038000020F8B5054690
:100F60000E46002416E0285D00110D49095C684614
:100F70000170285D0007000F0949095C684641704F
:100F800020218170642303226946064801F07AFB20
:100F9000601CC4B2B442E6DB03A0FFF7CFFFF8BD8C
:100FA00084340008380000200D0A000072B600BF2B
:100FB000FEE7014600222520405C022808D00420DC
:100FC000C86300BF00232420435400BF01207047A2
:100FD000086800680E2398430B681860086800686A
:100FE000400840000B6818601C23486C184001231F
:100FF0008340086C436001232520435400BF002335
:101000002420435400BF1046E1E770B50446002594
:101010002520005D022803D00420E063012520E0A4
:10102000206800680E2188432168086020680068F5
:1010300040084000216808601C21606C08400121C4
:101040008140206C416001212520015500BF002115
:101050002420015500BFA06B002802D02046A16BC0
:101060008847284670BD000070B5044600F00AF9B4
:1010700006462546681C002802D0054800782D1831
:1010800000BF00F0FFF8801BA842FAD370BD00003B
:101090003000002070B503460A46002100240020DD
:1010A000DCE001268E40156835402C46002C79D0B6
:1010B0001579AD07AD0F012D04D01579AD07AD0F32
:1010C000022D18D198684E000325B5400646AE4360
:1010D00030464E00D568B5402843986058680125D1
:1010E0008D400646AE4330461026556835402D09E2
:1010F0008D40284358601579AD07AD0F032D0BD0F7
:10110000D8684E000325B5400646AE4330464E0033
:101110009568B5402843D8601579AD07AD0F022D0D
:1011200015D1CD08AE001D462035A8594D07EE0E4D
:101130000F25B5400646AE4330464E07F60E1569FC
:10114000B5402843CD08AD001E46203670511868C2
:101150004E000325B5400646AE4330461579AD072F
:10116000AD0F4E00B540284318600326360455687D
:101170003540002D71D03C4D6D6B012635433A4E04
:1011800075633A4D8E08B600A8598D072E0F0F25AE
:10119000B5400646AE43304605252D07AB4202D189
:1011A000002515E059E0324DAB4201D101250FE099
:1011B000304DAB4201D102250AE02F4DAB4201D1A7
:1011C000032505E02D4DAB4201D1052500E00625A4
:1011D0008E07360FB5402843244D8E08B600A8511F
:1011E000274DA8680546A5432846012636055568BB
:1011F0003540002D02D0054625432846204DA860E5
:10120000E8680546A5432846012676055568354019
:10121000002D02D0054625432846194DE860686830
:101220000546A54328460126760455683540002D1D
:1012300002D0054625432846114D686028680546BA
:10124000A54328460126360455683540002D02D0B6
:101250000546254328460A4D2860491C1568CD409F
:10126000002D00D01DE770BD0010024008000140B5
:101270000004005000080050000C0050001C0050FA
:101280000004014001480068704700002800002069
:10129000034800680349097840180149086070470D
:1012A000280000203000002010B500240848006805
:1012B0004021084306490860032000F00BF800288D
:1012C00001D0012401E000F02FF8204610BD0000FD
:1012D0000020024070B50446104801787D20C0000F
:1012E000FEF706FF064631460D480068FEF700FF90
:1012F000054600F085FE002801D0012070BD042CB9
:1013000007D200222146501E00F02CF80548046048
:1013100001E00120F2E70020F0E7000030000020AB
:10132000340000202C0000200648406B01210843B7
:10133000044948630846806B0904084301498863EF
:1013400070470000001002400146002905DBCB0673
:10135000DB0E01229A40024B1A6000BF704700006A
:1013600000E100E070B504460D46164629462046C9
:1013700002F028F870BD0000F8B5044600272021CF
:101380002068084020287BD120680840202800D110
:1013900000BF8A48806B012109070840002805D159
:1013A0008648806B08438549886301278448006824
:1013B000FF2101310840002816D181480068084308
:1013C0007F490860FFF75EFF064606E0FFF75AFF19
:1013D000801B642801D90320F8BD79480068FF21EB
:1013E000013108400028F1D074480568032109053F
:1013F0000D4060680840A8420DD00911606808409F
:10140000884208D16D48006801214904084088429B
:1014100001D10120E0E76948403000690321090457
:1014200008400546002D3DD060680840A84239D0EC
:10143000202120680840202834D1604840300069CD
:1014400003210904884305465C48403000690121B6
:10145000C90408435949403108610846006901211F
:10146000C904884355494031086108460561801523
:1014700028408915884215D1FFF704FF064608E089
:101480003DE0FFF7FFFE801B4E49884201D9032053
:10149000A2E74A4840300069012149020840400A59
:1014A0000028EED020212068084020281FD100BF4E
:1014B00000BF032109046068084088420AD13F4800
:1014C000006809018843032212056168114008433E
:1014D0003A49086000BF39484030006903221204CD
:1014E00061681140084335494031086100BF012F50
:1014F00005D13248806B39078843304988632078AA
:10150000C007C00F002809D02C484030C0688008B0
:101510008000A168084329494031C8600221206841
:101520000840022809D125484030C0680C21884372
:10153000E168084321494031C8600421206808401F
:1015400004280AD11D484030C0680321890288431D
:101550002169084319494031C860082120680840C2
:1015600008280AD115484030C06803210903884380
:101570006169084311494031C86040212068084032
:10158000402809D10D484030C06809058843E16909
:1015900008430A494031C8608021206808408028FB
:1015A0000AD106484030C068032189048843A169F4
:1015B000084302494031C86000200DE70010024096
:1015C0000070004088130000F8B504460E46002C59
:1015D00001D10120F8BD83480068C007C00FB042A8
:1015E00018D2804800684008400030437D490860B8
:1015F000FFF748FE054607E0FFF744FE401B7A4927
:10160000884201D90320E5E776480068C007C00F8B
:10161000B042F1D1022120680840022807D1734866
:10162000C068F0218843A16808437049C8602078E9
:10163000C007C00F00284CD06068022809D16B4851
:101640000068012149040840400C002824D10120F1
:10165000C0E76068032809D1644800680121490691
:101660000840400E002817D10120B3E76068012828
:1016700008D15E48006804210840800800280BD18A
:101680000120A7E759480068012149020840400AA3
:10169000002801D101209DE75448C06880088000DF
:1016A000616808435149C860FFF7ECFD0546606872
:1016B00002280FD107E0FFF7E5FD401B4A498842A9
:1016C00001D9032086E74948C0680C210840082852
:1016D000F1D134E0606803280FD107E0FFF7D2FDB5
:1016E000401B4149884201D9032073E73F48C06845
:1016F0000C2108400C28F1D121E0606801280FD1AD
:1017000007E0FFF7BFFD401B3749884201D903209E
:1017100060E73648C0680C2108400428F1D10EE08B
:1017200007E0FFF7AFFD401B2F49884201D9032096
:1017300050E72E48C0680C2108400028F1D1294804
:101740000068C007C00FB04218D92648006840089A
:101750004000304323490860FFF794FD054607E049
:10176000FFF790FD401B2049884201D9032031E753
:101770001C480068C007C00FB042F1D104212068A6
:101780000840042808D11948C06807210902884385
:10179000E16808431549C860082120680840082806
:1017A00009D11248C0680721C90288432169C900CC
:1017B00008430E49C86000F04BF80C49C968F02294
:1017C000114009090A4A515CC8400A4908600A48A0
:1017D0000068FFF77FFD0746002F01D03846F9E685
:1017E0000020F7E6002002408813000000100240AD
:1017F00095340008340000202C00002001480068C7
:10180000704700003400002000B5FFF7F7FF0549DE
:10181000C968072212021140090A034A515CC840F4
:1018200000BD000000100240A534000800B5FFF71D
:10183000E5FF0549C9680722D2021140C90A034AD7
:10184000515CC84000BD000000100240A5340008F3
:10185000FEB52E48C7680C203840002845D0042823
:1018600004D008280CD00C283ED10BE02748006893
:1018700010210840002801D0254C00E0254C41E013
:10188000254C3FE00F2080043840800C23490E5C3B
:10189000032080053840800D401C01901B48C06823
:1018A000012109040840002807D01B49714308465C
:1018B0000199FEF71DFC054614E01448006810214C
:1018C0000840002807D01249714308460199FEF7E5
:1018D0000FFC054606E00F49714308460199FEF7E3
:1018E00007FC05462C460DE000BF0848406807216C
:1018F00049030840400B00900098401C01218140A2
:10190000CC0300BF00BF2046FEBD00000010024017
:1019100000093D000024F40000127A00AD340008F4
:10192000FEB50446002C01D10120FEBDF948C66871
:101930000C210E40C768012109040F402078C00720
:10194000C00F002872D0082E04D00C2E0FD10846EC
:1019500087420CD1EF480068012149040840400C3F
:10196000002863D06068002860D10120DDE700BF57
:10197000012109046068884205D1E64800680843EF
:10198000E449086027E005210904606888420ED117
:10199000E0480068012189040843DE4908600846E0
:1019A0000068012109040843DA49086013E0D948B6
:1019B0000068012109048843D64908600846006888
:1019C000012109040840009000BFD2480068890046
:1019D0008843D049086000BF6068002813D0FFF733
:1019E00051FC054606E0FFF74DFC401B642801D979
:1019F00003209AE7C7480068012149040840400CC9
:101A00000028F0D012E0FFF73DFC054606E0FFF7A6
:101A100039FC401B642801D9032086E7BD480068D3
:101A2000012149040840400C0028F0D1022120681F
:101A3000084002287BD1E0680290042E03D00C2ECF
:101A400035D1002F33D1B348006804210840800805
:101A5000002804D00298002801D1012065E7AD4894
:101A600040681F2109028843216909020843A949E6
:101A70004860084600680921884302990843A5493F
:101A80000860FFF7E5FEA349C968F0221140090983
:101A9000A14A515CC840A1490860A1480068FFF70D
:101AA00019FC01900198002841D001983DE7029867
:101AB000002824D0974800680921884302990843E8
:101AC00094490860FFF7DEFB054606E0FFF7DAFB06
:101AD000401B022801D9032027E78E480068042113
:101AE000084080080028F1D08A4840681F21090278
:101AF00088432169090208438649486017E0854800
:101B000000684008400083490860FFF7BBFB0546BA
:101B100006E0FFF7B7FB401B022801D9032004E7CA
:101B20007C4800680421084080080028F1D1102179
:101B300020680840102868D1002E37D17548006809
:101B400049010840400A002804D0E069002801D17A
:101B50000120EAE66F484068072149038843616A2B
:101B600008436C494860084640680002000A218C1E
:101B70000906084367494860606A400B401C012120
:101B80008140C8036349C968F02211400909624ACB
:101B9000515CC8406149086061480068FFF79AFBE2
:101BA0000190019800284BD00198BEE6E06900281A
:101BB0002CD058480068FF2101310843554908607E
:101BC000FFF760FB054606E0FFF75CFB401B0228C1
:101BD00001D90320A9E64F480068012149020840C5
:101BE000400A0028F0D04B48406807214903884349
:101BF000616A084347494860084640680002000A95
:101C0000218C090608434349486019E041480068AF
:101C1000FF21013188433F490860FFF733FB054648
:101C200006E0FFF72FFB401B022801D903207CE6CA
:101C300038480068012149020840400A0028F0D1D4
:101C4000082120680840082839D1606900281BD085
:101C5000304840300069012108432E494031086175
:101C6000FFF710FB054606E0FFF70CFB401B0228C0
:101C700001D9032059E62748403000690221084075
:101C800040080028F0D01AE022484030006940089F
:101C90004000204940310861FFF7F4FA054606E0AC
:101CA000FFF7F0FA401B022801D903203DE619484E
:101CB000403000690221084040080028F0D104218A
:101CC0002068084004287BD1002000901148806BD8
:101CD00089060840002806D10E48806B08430D494C
:101CE0008863012000900F480068FF2101310840FF
:101CF000002820D10B48006808430A490860FFF714
:101D0000C1FA054610E0FFF7BDFA401B64280BD965
:101D100003200AE600100240953400083400002039
:101D20002C00002000700040B1480068FF21013104
:101D300008400028E7D000BFFF210131A068884299
:101D400005D1AC4800690843AA49086130E0A068A1
:101D500000280DD1A7480069FF2101318843A5491A
:101D600008610846006909158843A24908611FE017
:101D700005210902A06888420DD19E480069012111
:101D8000890208439B490861084600698915084390
:101D9000984908610CE097480069FF2101318843A8
:101DA000944908610846006909158843914908610A
:101DB00000BFA068002815D0FFF764FA054608E0C8
:101DC00031E0FFF75FFA401B8B49884201D90320BD
:101DD000ABE588480069012149020840400A002813
:101DE000EFD013E0FFF74EFA054607E0FFF74AFA97
:101DF000401B8149884201D9032096E57D4800694E
:101E0000012149020840400A0028EFD1009801282A
:101E100008D178484038806B01210907884375490B
:101E20004039886300BF202120680840202852D113
:101E3000A06900282BD000BF6E484038806801217F
:101E400008436C49403988600846406B01210843CB
:101E50006849403948636948006A012149030843D9
:101E60006649086200BFFFF70DFA054606E0FFF776
:101E700009FA401B022801D9032056E55D48403885
:101E800080680221084040080028F0D023E000BF0D
:101E900058484038806840084000564940398860BA
:101EA0005648006A0121490388435449086200BF2B
:101EB000FFF7E8F9054606E0FFF7E4F9401B0228C2
:101EC00001D9032031E54B484038806802210840A1
:101ED00040080028F0D1A06A00284CD00C2E69D010
:101EE000A06A022848D14348403800680121090609
:101EF0008843404940390860FFF7C4F9054606E0C9
:101F0000FFF7C0F9401B022801D903200DE539482D
:101F100040380068012149060840400E0028EFD1F2
:101F2000216BE06A0843616B084332494039C96854
:101F3000FD221204914308432E494039C8600846E7
:101F400000680121090608432A4940390860FFF763
:101F500099F9054606E0FFF795F9401B022801D9DB
:101F60000320E2E423484038006801214906084084
:101F7000400E0028EFD038E01E48403800680121AC
:101F8000090688431B4940390860FFF77BF905467D
:101F900006E0FFF777F9401B022801D90320C4E4CB
:101FA000144840380068012149060840400E0028C6
:101FB000EFD11AE0A06A012800D1B6E40D484038FC
:101FC000C768012000043840E16A88420BD10F2025
:101FD00080043840216B884205D1032080053840B9
:101FE000616B884201D001209FE400209DE4000045
:101FF00000700040401002408813000000000140C3
:1020000070B504462546681E0949884201D9012059
:102010000CE0681E074948610321081F01F0D2F94E
:1020200000200449886107200861002070BD00007D
:10203000FFFFFF0000E000E07047704770470000BE
:10204000F0B585B004462068C56920680668206838
:102050008768F84828400390039800280FD1202073
:10206000284000280BD020203040002807D0A06E48
:10207000002802D02046A16E884705B0F0BD039825
:1020800000287DD0F807C00F002803D1EA4830406F
:102090000028F6D0E807C00F00280DD0FF2001303F
:1020A0003040002808D001202168086284200059AF
:1020B00001210843842108510220284000280CD027
:1020C000F807C00F002808D0022021680862842089
:1020D0000059042108438421085104202840002885
:1020E0000CD0F807C00F002808D00420216808622F
:1020F00084200059022108438421085108202840E7
:10210000002810D020203040002803D1F807C00F4D
:10211000002808D00820216808628420005908217E
:102120000843842108510120C002284000280ED015
:10213000012080063040002809D00120C00221681B
:1021400008628420005920210843842108518420FA
:102150000059002854D020202840002809D02020F1
:102160003040002805D0A06E002802D02046A16E85
:10217000884784200059029020688068402100E050
:102180003FE00840402804D0282102980840002859
:1021900030D0204600F0CCFC206880684021084008
:1021A000402823D100BF01F049F90190012001F03E
:1021B00057F9206880684021884321688860019829
:1021C00001F04EF900BF606F00280BD09B48616F93
:1021D0008863606FFEF719FF002811D0606F816B74
:1021E00088470DE02046FFF729FF09E02046FFF76A
:1021F00025FF05E02046FFF721FF00218420015143
:102200003BE7206E01287DD110202840002879D09E
:10221000102030400028FAD0102021680862206881
:1022200080684021084040286DD1606F0068406898
:1022300080B20190019800286BD05820015B019872
:10224000814266DD5A2101980853606F006800687A
:102250002021084000284CD100BF01F0EFF8009089
:10226000012001F0FDF820680068FF21013188435A
:1022700021680860009801F0F3F800BF00BF01F08A
:10228000DDF80090012001F0EBF82068806840083C
:10229000400021688860009801F0E2F800BF00BFAC
:1022A00001F0CCF80090012001F0DAF82068806895
:1022B0004021884321688860009801F0D1F800BF70
:1022C0002021802001510020206600BF01F0B6F8D7
:1022D0000090012001F0C4F82068006810218843B4
:1022E00021680860009801F0BBF800BF606FFEF73E
:1022F00060FE022060665820025B5A20005B101AC4
:1023000081B202E068E018E003E02046FFF794FEA7
:1023100012E05820015B019881420DD1606F006886
:10232000006820210840202806D10220606658203D
:10233000015B2046FFF780FE9FE65820015B5A2094
:10234000005B081A80B201905A20005B002842D03E
:10235000019800283FD000BF01F070F800900120E4
:1023600001F07EF820680068FF2121318843216850
:102370000860009801F074F800BF00BF01F05EF83B
:102380000090012001F06CF820688068400840004F
:1023900021688860009801F063F800BF2021802048
:1023A000015100202066A06600BF01F047F80090B0
:1023B000012001F055F82068006810218843216849
:1023C0000860009801F04CF800BF022060662046CB
:1023D0000199FFF731FE50E6012000052840002852
:1023E0000CD0012080053840002807D001200005CE
:1023F000216808622046FFF720FE3EE68020284044
:1024000000280AD080203040002806D0E06E002846
:1024100002D02046E16E88472FE640202840002861
:102420000ED04020304000280AD0204600F0C0FBEB
:1024300023E600000F080000200100041D2B000807
:1024400000BF1AE610B50446002C01D1012010BDD2
:10245000A069002800D000E000BFE06F002805D18F
:10246000002178200155204600F02CF82420E06758
:10247000206800684008400021680860606A002801
:1024800002D0204600F051FA204600F0DDFC012881
:1024900000D1DCE7206840680921C902884321682F
:1024A0004860206880682A21884321688860206805
:1024B00000680121084321680860204600F0AEFA58
:1024C000C5E7000010B586B00446142101A8FDF749
:1024D0006EFE3149206888422BD13048406B012183
:1024E000890308432D49486300BF0846C06A02219A
:1024F00008432A49C8620846C06A02210840009081
:1025000000BF00BFC0200190022002900020039075
:10251000032004900020059001A92148FEF7BAFD90
:10252000002211461B20FEF71DFF1B20FEF70CFFAB
:102530002FE01C49206888422BD11848806B01216C
:10254000490408431549886300BF0846C06A012151
:1025500008431249C8620846C06AC007C00F00900D
:1025600000BF00BF0C2001900220029000200390C9
:10257000032004900420059001A905200007FEF720
:1025800089FD002211461C20FEF7ECFE1C20FEF700
:10259000DBFE06B010BD0000003801400010024014
:1025A0000004005000440040F8B504460D461646AD
:1025B00080200059202838D1002D01D0002E01D1D3
:1025C0000120F8BD01210903A068884208D12069D3
:1025D000002805D1E807C00F002801D00120F0E74E
:1025E0000020206612492068884218D02068406880
:1025F0000121C9050840002811D000BF00F01EFFCE
:102600000746012000F02CFF2068006801218906A0
:10261000084321680860384600F022FF00BF3246B8
:102620002946204600F098FDCBE70220C9E70000CC
:102630000048004070B504460D492068884216D114
:102640000C4805780C4801880088401C0A4A108014
:102650000A48455410460088802802DB00201146B5
:102660000880012203490648FFF79EFF00BF70BDA6
:102670000038014025000020200000201E0200201C
:102680008C010020FFB583B004460D461746E06F6D
:10269000202869D1002D01D0002F02D1012007B0E0
:1026A000F0BD01210903A068884208D120690028F3
:1026B00005D1E807C00F002801D00120EFE7002175
:1026C000842001512120E067FEF7DCFD01905020BD
:1026D00007535220075301210903A068884205D1FE
:1026E0002069002802D10026029502E02E46002033
:1026F000029023E006980090002280212046019B52
:1027000000F0BAFD002803D02020E0670320C6E7D0
:10271000002E09D102980088C005C00D216888628A
:102720000298801C029003E0307821688862761C51
:102730005220005B401E81B2522001535220005BA8
:102740000028D7D106980090002240212046019B06
:1027500000F092FD002803D02020E06703209EE7D0
:102760002020E06700209AE7022098E7704700BF2A
:10277000FEE7000010B50E480E490860E120400257
:10278000486000210B488160C16001610C214161FA
:1027900000218161C161016200200649486208464A
:1027A000FFF750FE002801D0FEF700FC10BD00002E
:1027B000004400403800002000BFFEE770470000E2
:1027C000F8B505460C460C2C00DAF8BD20460C384E
:1027D0002E5C401C2F5C04202349087007204870A1
:1027E000A2208870FE20C870084606714771042038
:1027F0001E49087007204870A2208870FF20C8700A
:10280000A52008715A2048711948007800280DD178
:10281000F820154988717420C8712C2013498871DB
:102820000320C8710120124908700CE013200E49E2
:1028300088718420C87129200C4988710320C871CF
:1028400000200B49087028200749087207490872C0
:1028500008A0FEF773FB6846067047700221FEF77A
:102860007DFB00BFB1E70000000000200900002050
:1028700012000020457874726163746564205353BC
:10288000204D4D3A20000000704710B5FEF700FDC6
:1028900010BD000000B59BB038210DA8FDF787FCE6
:1028A000142108A8FDF783FC20216846FDF77FFC72
:1028B0001C4800680321C90288430121C90240184D
:1028C0001849086010200D900120149000201590E8
:1028D000032080031690002017900DA8FFF720F822
:1028E000002801D0FEF762FB0F200890002009901D
:1028F0000A900B900C90002108A8FEF765FE0028B6
:1029000001D0FEF753FB03200090002002900390BB
:102910006846FEF731FD002801D0FEF747FB1BB0EB
:1029200000BD00000070004070470822416A11405D
:10293000082907D10168496812039143426B11438A
:1029400002685160818CC907C90F002908D001684D
:102950004968012252049143826A1143026851601E
:102960000222416A1140022907D101684968D20355
:102970009143C26A1143026851600422416A1140C6
:10298000042907D10168496812049143026B11437D
:10299000026851601022416A1140102907D1016874
:1029A000896812029143826B114302689160202270
:1029B000416A1140202907D10168896812029143B8
:1029C000C26B1143026891604022416A1140402964
:1029D00015D10168496892039143026C1143026862
:1029E000516001221205016C914208D101684968C9
:1029F000032252059143426C1143026851608022C8
:102A0000416A1140802907D1016849681203914346
:102A1000826C11430268516070470000F8B50446AB
:102A2000002184200151FEF72DFC05462068006836
:102A300008210840082823D137482B460022890462
:102A40000090204600F018FC002819D000BF00F0CC
:102A5000F5FC0646012000F003FD20680068802197
:102A6000884321680860304600F0FAFC00BF20204F
:102A7000E06700BF00217820015500BF0320F8BDAA
:102A80002068006804210840042836D122482B46DB
:102A9000002209050090204600F0EEFB00282CD013
:102AA00000BF00F0CBFC0646012000F0D9FC2068F6
:102AB0000068FF212131884321680860304600F01A
:102AC000CFFC00BF00BF00F0B9FC0646012000F0BB
:102AD000C7FC206880684008400021688860304654
:102AE00000F0BEFC00BF20218020015100BF00216A
:102AF0007820015500BF0320C1E72020E067202196
:102B00008020015100202066606600BF00217820EF
:102B1000015500BF0020B2E7FFFFFF0170B504467A
:102B2000A56A00215A2041532846FFF787FA70BD55
:102B300070B5044600BF00F081FC0546012000F09E
:102B40008FFC20680068FF212131884321680860DC
:102B5000284600F085FC00BF00BF00F06FFC054672
:102B6000012000F07DFC206880684008400021685A
:102B70008860284600F074FC00BF206E012810D148
:102B800000BF00F05BFC0546012000F069FC2068F6
:102B900000681021884321680860284600F060FC26
:102BA00000BF20218020015100202066A06670BD5A
:102BB00070B5044600BF00F041FC0546012000F05E
:102BC0004FFC20680068402188432168086028463F
:102BD00000F046FC00BF2020E0670020E0662046B1
:102BE000FFF7C4FD70BD0000F8B504465C20075B2C
:102BF0008020005922287CD12068406A86B2656D09
:102C0000304638402880606D801C60655A20005B2B
:102C1000401E81B25A200153005B002878D100BFCA
:102C200000F00CFC0090012000F01AFC2068006805
:102C3000FF212131884321680860009800F010FCD2
:102C400000BF00BF00F0FAFB0090012000F008FC7C
:102C5000206880684008400021688860009800F083
:102C6000FFFB00BF2021802001510020A06660668C
:102C700028492068884218D0206840680121C90589
:102C80000840002811D000BF00F0D8FB00900120C0
:102C900000F0E6FB2068006801218906884321686E
:102CA0000860009800F0DCFB00BF206E012825D1F1
:102CB0000020206600BF00F0C1FB0090012000F062
:102CC000CFFB2068006810218843216808600098C5
:102CD00000F0C6FB00BF2068C06910210840000951
:102CE000002802D01020216808625820015B20468D
:102CF00001E007E00CE0FFF79FF909E02046FFF74D
:102D000099FC05E0206880690821084321688861F2
:102D1000F8BD000000480040F8B504465C20065BA2
:102D20008020005922287CD12068406A85B2F0B208
:102D30002840616D0870606D401C60655A20005B22
:102D4000401E81B25A200153005B002878D100BF99
:102D500000F074FB0746012000F082FB2068006849
:102D6000FF212131884321680860384600F078FB54
:102D700000BF00BF00F062FB0746012000F070FBBF
:102D8000206880684008400021688860384600F06C
:102D900067FB00BF2021802001510020A0666066F3
:102DA00028492068884218D0206840680121C90558
:102DB0000840002811D000BF00F040FB074601206A
:102DC00000F04EFB206800680121890688432168D5
:102DD0000860384600F044FB00BF206E012825D172
:102DE0000020206600BF00F029FB0746012000F00C
:102DF00037FB206800681021884321680860384646
:102E000000F02EFB00BF2068C069102108400009B7
:102E1000002802D01020216808625820015B20465B
:102E200001E007E00CE0FFF707F909E02046FFF7B3
:102E300001FC05E020688069082108432168886159
:102E4000F8BD000000480040F0B587B004460020FF
:102E50000390B8492068884200D100E000BF216992
:102E6000A068084361690843E16908430590206848
:102E70000068B14908400599084321680860206846
:102E80004068032109038843E168084321684860DA
:102E9000A0690590A7492068884203D0206A059957
:102EA00008430590206880680B2109028843059932
:102EB00008432168886000BFA0492068884217D174
:102EC0009F48C0688007800F002806D0012808D0DE
:102ED000022804D0032808D105E0012607E00226D5
:102EE00005E0042603E0082601E0102600BF3BE0D1
:102EF00094492068884217D19148C0680C21084045
:102F0000002806D0042808D0082804D00C2808D1AE
:102F100005E0002607E0022605E0042603E0082677
:102F200001E0102600BF1FE08249206888421AD1C4
:102F30008348C068032189020840002808D0012185
:102F40008902401A08D0401A04D0401A08D105E07E
:102F5000002607E0022605E0042603E0082601E03B
:102F6000102600BF00E0102600BF7249206888428A
:102F700051D1002E06D0022E08D0042E12D0082ED9
:102F800017D113E0FEF740FC054616E06C484038C8
:102F90000068102108400009002801D06A4D00E0B7
:102FA0006A4D0AE0FEF754FC054606E00125ED03F4
:102FB00003E000250120039000BF00BF002D0AD0D0
:102FC000606841004018A84203D860680003A84226
:102FD00002D201200390A7E0606802902846FF21FA
:102FE000013100F0C9F96268520800238018594184
:102FF00001910090029AFDF791F80746032109021A
:103000008F4205D35248874202D82068C7608BE0C0
:103010000120039088E00121C903E069884247D17B
:10302000330000F0C1F909060A0E211A2121211EE0
:103030002100FEF7E9FB05461AE0FEF7F7FB05461F
:1030400016E03F4840380068102108400009002879
:1030500001D03D4D00E03D4D0AE0FEF7F9FB05468D
:1030600006E00125ED0303E000250120039000BFE9
:1030700000BF002D58D06A0063685B08D0186168F3
:10308000FDF736F80746102F0FD3324887420CD889
:1030900030480F38384004903807400F04990843EF
:1030A000049004982168C8603EE0012003903BE052
:1030B000330000F079F909060A0E211A2121211E98
:1030C0002100FEF7A1FB05461AE0FEF7AFFB05461F
:1030D00016E01B484038006810210840000900280D
:1030E00001D0194D00E0194D0AE0FEF7B1FB05468D
:1030F00006E00125ED0303E000250120039000BF59
:1031000000BF002D10D061684A085019FCF7F0FF8D
:103110000746102F06D30F48874203D8B8B221685C
:10312000C86001E0012003900020A066E0660398DB
:1031300007B0F0BD00480040F369FFEF00380140E0
:10314000401002400044004000093D000024F4000B
:10315000FFFF0F00FFFF0000F8B504460E461546BE
:103160006665582005535A2005530020A06600BF0D
:1031700001210903A06888420AD12069002803D1EF
:103180003A495C20015324E0FF215C20015320E0F8
:10319000A06800280AD12069002803D1FF215C2003
:1031A000015316E07F215C20015312E00121090741
:1031B000A06888420AD12069002803D17F215C20C1
:1031C000015306E03F215C20015302E000215C2016
:1031D000015300BF00218420015122218020015190
:1031E00000BF00F02BF90746012000F039F92068F4
:1031F00080680121084321688860384600F030F972
:1032000000BF01210903A068884205D12069002878
:1032100002D11748A06601E01648A0662069002880
:1032200011D000BF00F00AF90746012000F018F99C
:1032300020680068FF212131084321680860384672
:1032400000F00EF910E000BF00F0F8F8074601208A
:1032500000F006F920680068202108432168086012
:10326000384600F0FDF800BF0020F8BDFF01000067
:10327000E92B0008192D0008FFB581B004460D4662
:1032800017460A9E46E0701C002843D0FDF7FAFF5F
:103290000499401AB04201D8002E02D1032005B093
:1032A000F0BD2068006804210840002832D0802D3D
:1032B00030D0402D2ED02068C06908210840C008B9
:1032C00000280FD00820216808622046FFF730FC54
:1032D00008218420015100BF00217820015500BF42
:1032E0000120DCE72068C0690121C9020840C00A4A
:1032F00000280FD00846216808622046FFF718FC16
:1033000020218420015100BF00217820015500BFF9
:103310000320C4E72068C0692840A84201D10120E9
:1033200000E00020B842AED00020B8E710B5024857
:10333000FEF786FE10BD00008C01002010B504468B
:103340000A48007800280BD1FDF79CFF084909685E
:10335000401AA04202D9002006490870002010BD82
:103360000020024908700120F9E700001300002046
:10337000140000201A000020F8B582B28BB2040CB1
:103380000D0C10465843002126465E43370C360488
:103390008019794116466E43370C360480197941FD
:1033A00026466E438919F8BD30B47446641E2578EC
:1033B000641CAB4204D3635D5B00E31830BC184768
:1033C0001D46F8E710B5002819DB1A4A03231B0233
:1033D000D21883089B00D2588307DC0EFF23A3403A
:1033E0009A438B071B0E8407E40EA3401A43114B2C
:1033F000032424021B198408A4001A5118E00E4A61
:1034000003071B0F083B9B089B00D2588307DC0E69
:10341000FF23A3409A438B071B0E8407E40EA340AF
:103420001A43054B0407240F083CA408A4001A51B2
:1034300010BD000000E100E01CED00E0EFF31080A3
:10344000704702E008C8121F08C1002AFAD170476D
:103450007047002001E001C1121F002AFBD1704714
:1034600080F310887047FDF71FFFFFF713FAFDF791
:103470001FFDFFF77FF96420FDF7F6FD01E0FCF783
:10348000DBFEFCE7303132333435363738394142F0
:103490004344454600000000000000000001020314
:1034A00004060708090000000001020304030406E3
:1034B000080C101820300000D8340008000000204C
:1034C00038000000423400081035000838000020A1
:1034D00068060000523400080407A2FE00002C1702
:1034E000280407A2FFA55A010328000000000000DD
:1034F00000000000030000000000000000000000C9
:103500000000000004000000010000000000200096
:04000005080000C12E
:00000001FF
