:020000040800F2
:10000000F0090020BD01000831250008BB240008CC
:1000100000000000000000000000000000000000E0
:10002000000000000000000000000000352500086E
:1000300000000000000000003325000837250008FC
:10004000CF010008CF010008CF010008CF01000850
:10005000CF010008CF010008CF010008CF01000840
:10006000CF010008CF010008CF010008CF01000830
:10007000CF010008CF01000800000000CF010008F8
:1000800000000000CF010008000000000000000098
:10009000CF01000800000000CF010008CF010008D8
:1000A000CF010008CF010008CF010008A12D0008F2
:1000B000B12D0008CF01000800000000CF010008AA
:1000C00000F002F800F04EF80CA030C808382418F0
:1000D0002D18A246671EAB4654465D46AC4201D180
:1000E00000F040F87E460F3E0FCCB6460126334264
:1000F00000D0FB1AA246AB4633431847FC2E000043
:100100001C2F0000103A02D378C878C1FAD85207E1
:1001100001D330C830C101D504680C6070470000BD
:100120000023002400250026103A01D378C1FBD813
:10013000520700D330C100D50B60704710B5782945
:1001400002D100F00FF910BD002010BD1FB50098BE
:10015000019900F070FD00F067FB1FBD10B500F0C5
:10016000CFFB10BD00F031FC1146FFF7EFFF02F0AE
:100170006BFE00F02FFD03B4FFF7F0FF03BC00F0AF
:10018000EDFE000070B505460C46164602E00FCCA9
:100190000FC5103E102EFAD2082E02D303CC03C591
:1001A000083E042E07D301CC01C5361F03E0217899
:1001B0002970641C6D1C761EF9D270BD07488047FB
:1001C00007480047FEE7FEE7FEE7FEE7FEE7FEE73B
:1001D00004480549054A064B70470000C925000838
:1001E000C1000008F0030020F0090020F005002005
:1001F000F0050020FEB5054610460C46184373D0A6
:10020000AE468C460020AD1A01469C4167D3664637
:10021000002701243D46B61A9D4102D313463A46B3
:100220002124654676462F04360C3E432D0CB61A23
:100230009D4104D3150C1B042B4312041034654656
:1002400076462F06360A3E432D0AB61A9D4104D340
:10025000150E1B022B4312020834654676462F0703
:1002600036093E432D09B61A9D4104D3150F1B01D3
:100270002B431201241D65467646AF07B6083E4360
:10028000AD08B61A9D4104D3950F9B002B439200F5
:10029000A41C65467646EF0776083E436D08B61AFD
:1002A0009D411AD392185B41641C16E000187646F3
:1002B00065464941B71A9D410191009009D36046B6
:1002C000B11A98418E468446009801990025401C39
:1002D0006941DD0752082A435B08641EE6D5724671
:1002E000634603B0F0BDFFE700200146C046C046AC
:1002F0002A462346F5E700000FB4054910B503AAC6
:10030000029800F061FA10BC08BC04B01847000065
:10031000E402002070B5044685690068C10601D575
:10032000302600E02026C00707D070BD6268304646
:10033000A1689047206A401C20626D1EF6D570BDF2
:1003400070B5044685690078C00707D170BD626842
:10035000A16820209047206A401C20626D1EF6D5BF
:1003600070BD000070B504460D4621461068C046B9
:10037000C0462188090502D50F4A7A4402E00E4A98
:100380007A440E3223460021243305E00607000993
:10039000360F965D5E54491C0028F7D12078002363
:1003A000000705D5702D03D0002901D0022311329A
:1003B000204600F0B0F970BD332C0000F3B50446C0
:1003C000002081B020622046E168884700287DD067
:1003D000252802D06268A16883E0454F00257F444C
:1003E0002046E16888472028064608DB312E06D2E1
:1003F000B81920380078002801D00543F0E7A80795
:1004000001D5042085430020E0610746A0612A2E23
:100410000AD0304602F004FD002827D0B8000019A9
:10042000303E0090866119E00298BA00121902C8A5
:10043000916102902046E1688847012F064617D156
:10044000E06900281FDA202085431CE000980A217B
:100450008069484300998019303888612046E168F6
:100460008847064602F0DCFC0028EFD1012F0AD0B5
:100470002E2E08D12046E1688847064620200543F5
:100480007F1C022FC3DBA069002803DA4042A06171
:1004900001200543E80701D010208543002E24D019
:1004A00030464138192803D80120C00205432036C0
:1004B000204625603146029A1546FFF73FFE002888
:1004C0000CD0012807D0ED1DE80800E00DE0C000C9
:1004D0000830029077E72D1D029574E76268304678
:1004E000A1689047206A401C6CE7206AFEBD0000AE
:1004F000F72B0000F8B5042A2CD3830712D00B7811
:10050000491C0370401C521E83070BD00B78491CFA
:100510000370401C521E830704D00B78491C0370E3
:10052000401C521E8B079B0F05D0C91ADF002023E9
:10053000DE1B08C90AE0FFF725FEF8BD1D4608C905
:10054000FD401C46B4402C4310C0121F042AF5D2B3
:10055000F308C91A521EF0D40B78491C0370401CD2
:10056000521EEAD40B78491C0370401C012AE4D4C3
:1005700009780170F8BD01E004C0091F0429FBD20D
:100580008B0701D50280801CC90700D0027070471C
:1005900000290BD0C30702D00270401C491E02295B
:1005A00004D3830702D50280801C891EE3E7002262
:1005B000EEE70022DFE7002203098B422CD3030A77
:1005C0008B4211D300239C464EE003460B433CD4A0
:1005D000002243088B4231D303098B421CD3030A08
:1005E0008B4201D394463FE0C3098B4201D3CB0138
:1005F000C01A524183098B4201D38B01C01A524168
:1006000043098B4201D34B01C01A524103098B426B
:1006100001D30B01C01A5241C3088B4201D3CB0056
:10062000C01A524183088B4201D38B00C01A524139
:1006300043088B4201D34B00C01A5241411A00D2E9
:1006400001465241104670475DE0CA0F00D0494252
:10065000031000D34042534000229C4603098B42C2
:100660002DD3030A8B4212D3FC22890112BA030A4A
:100670008B420CD3890192118B4208D389019211CC
:100680008B4204D389013AD0921100E08909C30951
:100690008B4201D3CB01C01A524183098B4201D353
:1006A0008B01C01A524143098B4201D34B01C01A3E
:1006B000524103098B4201D30B01C01A5241C308B6
:1006C0008B4201D3CB00C01A524183088B4201D325
:1006D0008B00C01A5241D9D243088B4201D34B0040
:1006E000C01A5241411A00D20146634652415B1082
:1006F000104601D34042002B00D549427047634663
:100700005B1000D3404201B50020C046C04602BD88
:10071000704770477047FFB504460D4681B02430DE
:1007200000902168880604D51022E0699143216079
:1007300000E00120A84201DD471B00E000270498EB
:10074000A1697A191018081AA0612078C00602D48D
:100750002046FFF7DFFD002608E003986268A168E5
:10076000805D9047206A401C761C20620498864277
:10077000F3DB2078C0060AD52046FFF7CBFD06E064
:100780006268A16830209047206A401C2062384689
:100790007F1E0028F4DC07E000986268A168405DD5
:1007A0009047206A401C206228466D1E0028F3DC1A
:1007B0002046FFF7C5FD2078000602D5022005B0CF
:1007C000F0BD0120FBE70000084B70B50D467B44EF
:1007D00000F013F80446284600F022F8002802D062
:1007E0000020C04370BD204670BD00005F260000A1
:1007F00001694A1C02610878704700B58FB0029108
:100800000021059105490193794403911146049013
:100810006846FFF7D3FD0FB000BD0000E5FFFFFF06
:10082000C06880210840704710B543485421FFF745
:10083000C0FE42485421FFF7BCFE41485421FFF757
:10084000B8FE40483C493D4B404A01603E48036089
:100850003B4810605A1C0A65411C1965012101655D
:100860003C48354A3AA1784400F01AF9002804D1EE
:10087000384878440C3800F0B5F938482F4A36A18A
:10088000784400F00DF9002804D1344878440C383D
:1008900000F0A8F932482A4A2FA1784400F000F964
:1008A000002804D12E4878440C3800F09BF94023EE
:1008B0002148DC000021224600F0CCF8002804D0BA
:1008C000244878445C3800F08DF91C4822464023C7
:1008D000002100F0BFF8002804D0204878445C389C
:1008E00000F080F9164822461023002100F0B2F8EB
:1008F000002804D01A4878445C3800F073F910BD21
:100900000F4870B5006D44080B48640000F03CF9D6
:100910000A4800F039F90A4800F036F909E0206D7C
:10092000450820466D0000F02FF9204600F06CF8D5
:100930002C46002CF3D170BD90020020E402002070
:1009400038030020280000202C0000203000002068
:100950007200000080270000770000006A27000076
:10096000542700000EB50191009000F0D5FA0290D6
:1009700069460120ABBE0EBD08B569460090022055
:10098000ABBE08BD1FB56B4607C369460520ABBEAD
:1009900004B010BD1FB56C460FC469460620ABBE3F
:1009A000F6E708B5694600900920ABBE08BD1CB546
:1009B00000900A2001916946ABBE1CBD704708B586
:1009C000694600900C20ABBE08BD754600F010F9DA
:1009D000AE46050069465346C008C000854618B0BB
:1009E00020B5FFF7F5FB60BC00274908B646002696
:1009F000C0C5C0C5C0C5C0C5C0C5C0C5C0C5C0C5CF
:100A0000403D49008D46704770B50446051F00F013
:100A1000F5F80068002C1AD0446801E020466468AC
:100A2000002C01D0AC42F9D301680A18AA4204D1C3
:100A30002A6805468918016000E045602868411968
:100A4000A14205D16168696021684018286070BDC5
:100A50006C6070BD70B5C468A50713D0650211D471
:100A6000D51FF93D0AD0FF3D6D1E07D0FF3DFF3D6C
:100A7000022D07D101462431012305E0074E5D1EFA
:100A8000B54201D3012070BD0161C36141600F21F6
:100A900009028C431443C460002070BDFFFFFF00B7
:100AA000F7B516460C46104600F06EF82078611C2B
:100AB00061280AD0722802D0772839D102E00125B6
:100AC000002404E00225042401E02D4D0824022224
:100AD000032301270878491C2B2806D0622807D059
:100AE0002039C87F742807D008E01D431443F1E77C
:100AF000042005433C43EDE71020044300982146C1
:100B0000FFF730FF411C13D00021316171600121DA
:100B1000F5604902F1617061200704D53046022278
:100B2000002100F0E7F8306D384330653046FEBDF7
:100B30000020FEBDF8B50D460646124C206DC107DB
:100B400004D0410804D044086400F7E7224610E0CE
:100B5000542000F09DF8070010D07908206D49005E
:100B6000012211430843542120653846FFF721FD37
:100B70003A4629463046FFF793FFF8BD0020F8BDFE
:100B80000280000090020020FEB50446466900691C
:100B90000F4F0190E56800200090A80707D020467D
:100BA00000F052F93046FFF7E7FE002801DA384638
:100BB000FEBD280502D50198FFF726FF4C212046EF
:100BC000FFF7F7FC206D4008400020650098FEBD4F
:100BD000FFFFFFFF10B50446C046C0462046FFF7A2
:100BE000CAFA10BD10B500F07DF900F075F910BD1E
:100BF000004870478C030020704700000048704791
:100C000094030020704770477047704738B504461A
:100C10000A4600206946C046C046002805D0024664
:100C20002046009900F0A7F9012038BD10B5012039
:100C300000F0F6F910BDF8B5C046C04605460020E4
:100C40000C461020C0460646A819A0420DD93246CF
:100C500069460020C046C046070001D100F0E0F917
:100C60000098A04200D00546C419FFF7C7FFF61D43
:100C700007460560F008C0004619284600F074F9E0
:100C8000B44204D031463868A21B00F074F9F8BDB4
:100C900070B50646FFF7B2FF056830460B30C40852
:100CA000E400B44201D8002070BD68682A460028DC
:100CB00018D00168A14211D30B46214608318B425E
:100CC00008D3436801194B6003681B1B0B6051601C
:100CD000046001E041685160001D70BD024640683B
:100CE0000028E6D121462846FFF790FF0028DCD1F6
:100CF00070BD0000F8B5044616460D464769007BF6
:100D0000800730D03846FFF74CFE00282BD1324602
:100D10001026002A25D0012A02D0022A23D104E07D
:100D2000204600F042F945191BE03846FFF747FE20
:100D3000E16831430028E16004DA204600F054F80D
:100D40000120F8BDC9030BD56268E16A914200D861
:100D50001146A26989182269891A814200DD084674
:100D60002D18002D01DA0220F8BDE16A6068E26802
:100D7000814206D29103E06203D5012149048A43EE
:100D80003243A669AE4211DCE16A814201D90B46C9
:100D900000E003469F192369FF1AAF4206DD814236
:100DA00001D90F4600E007469F4206D120200243AA
:100DB0000020A060A56220600DE0AD1BE669AE1BBF
:100DC0008142A66000D90846C01A281A2060581926
:100DD000606020208243034802400020E2604034EB
:100DE0002072F8BDBFCFD7FFC168802211439203A4
:100DF0009143C1600021816001607047F7B51446DE
:100E00000E463348D5685769054209D03846A1696E
:100E1000FFF7CDFD002811DB2D48C0430540E560FC
:100E20002B46324638460099FFF7ACFD4200A169D7
:100E30005208B21A89180028A16104D02046FFF791
:100E4000D3FF0020C043FEBD70B504460569C06AEB
:100E50006168884200D80846E1680522D2049143BF
:100E6000E160C90314D5A84209D02246411B284697
:100E7000FFF7C4FF002802D00020C04370BDE56228
:100E800000206560A060E068012109048843E060FB
:100E9000002070BD10B50446C06820218843E06082
:100EA000A16AA06988420ED02046FFF7CDFFE06816
:100EB00003210903884310210843E060A06AA06170
:100EC0002069E06260600349E0680840E06010BDAE
:100ED00010000200BFBFFFFF10B5002801D000F0D6
:100EE0003DF810BD10B5014602A000F07FF80120CA
:100EF00010BD000053494752545245443A205265B0
:100F00006469726563743A2063616E2774206F7040
:100F1000656E3A200000000030B5441C03E0017803
:100F2000401C00290DD08107F9D10B4BDD0104C80D
:100F3000D11A91432940FAD0001B0A0603D0C01EE3
:100F400030BD001B30BD0A0401D0801E30BD090237
:100F5000FCD0401E30BD00000101010101491820F4
:100F6000ABBEFEE726000200002101604160806008
:100F700070471020704710B50346406801E00346F3
:100F80004068002801D08842F9D31868C3188B4202
:100F900006D0CB1CD808C000001D411A521A0146C9
:100FA000081D0A60FFF730FD10BD10B50146C2688C
:100FB000900703D0900607D5886A0AE000F03CF855
:100FC00001210160881E10BD8B694868C0180B693B
:100FD000C01A40310B7A002B02D0497A401A10BD5A
:100FE0001103FCD50028FADD401E10BD70B5054682
:100FF0000C460A2000E06D1C00F018F8002D06D009
:1010000028780028F7D102E0641C00F00FF8002CCB
:1010100002D020780028F7D10A2000F007F870BD30
:1010200010B500F00DF8FFF757FF10BD08B5694681
:1010300008700320ABBE08BD004870478C03002039
:1010400010B5012805D0002103A0FFF7CFFF012034
:1010500010BD09A1F8E7000053494752544D454DD2
:101060003A204F7574206F662068656170206D6549
:101070006D6F7279000000003A2048656170206D44
:10108000656D6F727920636F72727570746564003C
:101090001CB50C46042269460A7003224A700128D6
:1010A00012D09521684681702021C17008210171FC
:1010B0000A2100F0BDF8002805D006220349204689
:1010C000FFF718FA01201CBD9321EBE790010020E7
:1010D00038B50A245520694608700D4D10E0642388
:1010E000012269460B4801F087F96423012208496F
:1010F000084801F091F8002802D12878552805D039
:101100002046641EE4B20028E9D138BD012038BD74
:1011100064010020340000207CB50A241D4D32E01B
:1011200000F04CF800282ED069460120FFF7B0FFF0
:10113000002828D06946012000F04CF840071CD553
:1011400001A90220FFF7A4FF00281CD001A902205A
:1011500000F040F86946104849780170694689787E
:1011600041706946C9788170042201A9C01CFFF74B
:10117000C1F90720287001207CBD0748009950382C
:1011800001650420F6E72046641EE4B20028C7D1BA
:101190007CBD0000000000208401002010B500F09C
:1011A000A5F905494A69801A0A69904201D90120C6
:1011B00010BDC87810BD00000000002008B504A0D4
:1011C000006800900721684600F032F808BD000072
:1011D00004022607024610B50D48042303700923B4
:1011E0004370012A11D0952282707022C2700622AB
:1011F000001DFFF77FF90821054800F019F80028C5
:1012000002D003484A30807810BD9322ECE70000FA
:10121000440100201CB504A103C9019100900221E2
:10122000684600F005F81CBD020502001000000031
:1012300010B5C82200F00EF8FFF7B0FF0028FBD071
:101240000348C088022801D3012010BD002010BD32
:101250000000002070B50546084C0020E080E070DA
:10126000E181226100F042F960616A7864232946D5
:101270000348921C01F0C0F870BD0000000000207F
:101280003400002072B6FEE730B5014620314A79BD
:101290000023022A04D00422C2630B71012030BD56
:1012A000026814680E25AC43146002681468640870
:1012B00064001460446C1C22144001221546006C2A
:1012C000A54045604A7118460B7130BD70B50024C9
:1012D000014620314A79022A03D00421C163012446
:1012E00018E0026813680E25AB43136002681368A8
:1012F0005B085B001360436C1C22134001221546FF
:101300009D40036C5D604A7100220A71816B002967
:1013100000D08847204670BD70B5044600F0E6F85E
:101320000546601C02D004480078241800F0DEF85E
:10133000401BA042FAD370BD18000020F8B500236E
:1013400003240125BDE032462E469E40B44632407D
:1013500079D00E79B607B60F012E01D0022E17D123
:1013600086682746B6465E00B74000967646BE437E
:10137000B646CF68009EB7407646374387604668DA
:101380006746BE430F79FF06FF0F9F403743476014
:101390000E79F643B6070ED0C6682746B4465E00FF
:1013A000B646B7406646BE43B4468F687646B740F9
:1013B00066463743C7600E79B607B60F022E14D1C2
:1013C000DE08B60036180096366A5F07B446FE0E91
:1013D0000F27B646B7406646BE43B4460F69764609
:1013E000B74066463743009E376206682746B446D4
:1013F0005E00B646B7406646BE430F79B446BF07A7
:10140000BF0F7646B7406646374307604E68B6035F
:10141000B60F55D02E4F7E6B2E437E639F082D4E08
:10142000BF00BE190096B6680F27B4469E07360F58
:10143000B646B7406646BE4305273F07B446B842A6
:1014400002D1002715E03BE0234FB84201D101272C
:101450000FE0224FB84201D102270AE0204FB842E4
:1014600001D1032705E01F4FB84201D1052700E055
:1014700006277646B74066463743009EB7601A4E49
:10148000B6684F689643FF0200D51643164FBE60FC
:10149000FE684F689643BF0200D51643124FFE60A8
:1014A0007E684F689643BF0300D516430E4F7E609B
:1014B0003E684F689643FF0300D516430A4A1660FC
:1014C0005B1C0A681646DA4000D03CE7F8BD000015
:1014D00000100240000001400004005000080050CD
:1014E000000C0050001C00500004014001488068BE
:1014F00070470000180000200248816802788918AF
:10150000816070471800002010B508480024016869
:10151000402211430160032000F00AF8002801D0A6
:10152000012401E000F026F8204610BD0020024012
:1015300070B504460D4D7D202978C000FFF73BF8BB
:1015400001460B480068FFF736F800F05FFC002802
:1015500009D1042C07D200222146401E00F022F8B7
:1015600000206C6070BD012070BD000018000020DC
:10157000240000200448416B012211434163816B28
:10158000020411438163704700100240002805DB0C
:10159000C106C90E0120884001490860704700005B
:1015A00000E100E010B501F019FC10BDF8B50446EB
:1015B00000780027594D800674D5584E403EB06BD8
:1015C000C00004D4B06BA9050843B0630127544898
:1015D0000168C90511D40168821511430160FFF744
:1015E00085FF009005E0FFF781FF0099401A64280D
:1015F00037D84B480068C005F5D532680321090586
:1016000060680A400140914208D08103890F032994
:1016100004D13168890301D50120F8BD2A6903216D
:1016200009040A4022D0084090421FD0207880064A
:1016300031D528692A6988430121C9040A432A61EE
:101640002A698A432A612861C0050FD5FFF74EFF3A
:10165000009008E0FFF74AFF0099411A31488142A3
:1016600001D90320F8BD28698005F3D520788006CC
:1016700011D561688803800F032805D13268000501
:10168000824301400A4332602869032261681204E0
:10169000114008432861002F04D0B16B01200007DE
:1016A0008143B1632078C00705D0E868A16880084D
:1016B00080000843E8602078800705D5E8680C21A1
:1016C0008843E1680843E8602078400706D5E86869
:1016D00003218902884321690843E86020780007D4
:1016E00006D5E86803210903884361690843E86077
:1016F0002078400606D5E868012189068843E1691B
:101700000843E8602078000606D5E86803218904CC
:101710008843A1690843E8600020F8BD40100240FA
:101720000070004088130000F8B50E46050038D060
:101730005E480068C007C00FB04214D25B4C2068FE
:101740004008400030432060FFF7D0FE074605E028
:10175000FFF7CCFEC11B564881427AD82068C007EB
:10176000C00FB042F4D12878524C800705D5E0680C
:10177000F0218843A9680843E0602878C00752D068
:101780006868022806D0032807D0216801280AD0FB
:10179000890504E02168890301E0216889010029A5
:1017A00003DB0120F8BD4907F9E7E16889088900F2
:1017B0000143E160FFF79AFE0746686802280AD0F5
:1017C000032814D001281ED029E0FFF78FFEC11B8B
:1017D000374881423DD8E0680007800F0228F4D1E5
:1017E00021E0FFF783FEC11B3148814231D8E06818
:1017F0000007800F0328F4D115E0FFF777FEC11B27
:101800002B48814225D8E0680007800F0128F4D1D9
:1018100009E0FFF76BFEC11B2548814219D8E0683B
:101820000007800FF5D121480168C907C90FB142EF
:1018300017D901684908490031430160FFF756FE96
:10184000074608E005E0FFF751FEC11B184881423A
:1018500001D90320F8BD15480068C007C00FB04289
:10186000F1D12878400706D5E068072109028843AE
:10187000E9680843E0602878000707D5E068072199
:10188000C90288432969C9000843E06000F03AF8BA
:10189000E168094A0906090F515CC8400749086018
:1018A00007480068FFF744FEF8BD00000020024032
:1018B0008813000000100240902F00082400002030
:1018C0001C000020044805490068C968044A49050D
:1018D000490F515CC84070472400002000100240AE
:1018E000A92F0008044805490068C968044A89040A
:1018F000490F515CC840704724000020001002408E
:10190000A92F000810B5184AD1680C2008400428F7
:101910000BD0082810D00C2810D050680004410FBC
:101920000120C003491C884010BD1068C00601D5C5
:101930000E4810BD0E4810BD0E4810BD88020E4B5B
:10194000000F185C0902D368890F491CDB0301D51D
:10195000084A05E01268D20601D5044A00E0044AAC
:101960005043FEF728FE10BD0010024000093D0064
:101970000024F40000127A00A02F0008FEB5050034
:101980007ED0FE4CE7680C20E6680740012000048A
:1019900006402878C00747D0082F05D00C2F0AD161
:1019A00001200004864206D1206880033CD5686887
:1019B0000028E5D038E0012069680004814203D1A5
:1019C00021680143216011E0052301221B049204D8
:1019D0009942216802D111432160F1E781432160DE
:1019E00021680140009120689043206068680028C9
:1019F0000DD0FFF77BFD009005E0FFF777FD009924
:101A0000401A64287BD820688003F6D50CE0FFF7E5
:101A10006DFD009005E0FFF769FD0099401A64280C
:101A2000F0D820688003F6D42878800756D509239B
:101A3000E868042F0DD00C2F01D1002E09D000280A
:101A40003CD02168994301432160FFF74FFD0646D2
:101A500028E02168490701D5002891D061681F223C
:101A6000120291432A69120211436160216899436D
:101A700001432160FFF746FFE16809060A0F00E015
:101A8000BFE1BF49895CC840BE490860BE480068E4
:101A9000FFF74EFD002873D120E0FFF727FD801BE4
:101AA0000228AFD820684007F7D560681F210902D7
:101AB000884329690902084360600FE020684008F4
:101AC00040002060FFF712FD064604E0FFF70EFD20
:101AD000801B022896D820684007F7D42878C006D3
:101AE00060D5002F0CD0E86900284AD02068FF217B
:101AF000013108432060FFF7F9FC06462EE0E5E0DF
:101B00002068800502D5E8690028A6D06068072112
:101B100049038843696A084360606068298C000251
:101B2000000A090608436060686A410B0120C0038F
:101B3000491C8840E16809060A0F9149895CC84040
:101B40009049086090480068FFF7F2FC002817D120
:101B500028E0FFF7CBFC801B0228A2D82068800574
:101B6000F7D56068072149038843696A08436060C4
:101B70006068298C0002000A09060843606011E0D1
:101B800025E12168FF20013081432160FFF7AEFC91
:101B9000064604E0FFF7AAFC801B02289AD82068BA
:101BA0008005F7D42878794E000724D56869002885
:101BB000306910D0012108433061FFF797FC009095
:101BC00005E0FFF793FC0099401A02287ED830699F
:101BD0008007F6D50FE0400840003061FFF786FC33
:101BE000009005E0FFF782FC0099401A02286DD8AA
:101BF00030698007F6D42878400764D50020029029
:101C0000A06BC00006D4A06B012109070843A063A4
:101C1000012002905E480168C90511D4016882154F
:101C200011430160FFF762FC009005E0FFF75EFCE6
:101C30000099401A642849D855480068C005F5D570
:101C4000FF20AA680130824203D13169014331612A
:101C500011E001218902002A07D005231B029A42C4
:101C600003D132690A433261EFE73269824332615C
:101C7000306988433061A86800280ED0FFF736FC31
:101C8000009006E0FFF732FC0099411A414881427A
:101C90001CD830698005F5D50DE0FFF727FC0090D2
:101CA00006E0FFF723FC0099411A3A4881420DD81B
:101CB00030698005F5D40298002804D0A16B01207A
:101CC00000078143A1632878800600E07EE02ED5DE
:101CD0003148A9694314002916D0A26801210A439A
:101CE000A260626B0A436263016A19430162FFF7F3
:101CF000FDFB064604E0FFF7F9FB801B022865D8D0
:101D0000A0688007F7D512E0A16849084900A160E2
:101D1000016A99430162FFF7E9FB064604E0FFF719
:101D2000E5FB801B022851D8A0688007F7D4A86A79
:101D3000002868D00C2F4FD00126360602282068D4
:101D400005D0B0432060FFF7D1FB054640E0B0432B
:101D50002060FFF7CBFB074604E0FFF7C7FBC01B83
:101D6000022833D820688001F7D4296BE86AE2683A
:101D70000843696BFD231B049A430FE000100240E7
:101D8000902F0008240000201C000020401002407A
:101D90000070004088130000000001401143084318
:101DA000E060206830432060FFF7A0FB054604E0B8
:101DB000FFF79CFB401B022808D820688001F7D55C
:101DC00021E0FFF793FB401B022801D90320FEBD51
:101DD00020688001F5D416E00128F8D0E0680121E0
:101DE0000904EA6A014091420BD10F2189042A6B50
:101DF0000140914205D1032189050840696B884261
:101E000001D00120FEBD0020FEBD0000094910B533
:101E1000401E884201D9012010BD074C606103219A
:101E2000081F00F0DBFF0020A061072020610020D8
:101E300010BD0000FFFFFF0000E000E070477047AA
:101E400070470000F8B502680446D06911689368CD
:101E5000A94D06462E4025468035002E71D0A74F4D
:101E6000DE07F60F0F4037437ED0C70706D0CF05F9
:101E700004D5012717626A683A436A60820708D569
:101E8000DA0706D0276802223A626A6804273A43D2
:101E90006A60420708D5DA0706D0236804221A626E
:101EA0006A6802231A436A60020709D520220A40A1
:101EB000324305D0236808221A626B6813436B60B3
:101EC000020509D54A0107D501222368D2021A6208
:101ED0006A6820231A436A606A68002A39D080063B
:101EE00006D5880604D5A16E002901D02046884772
:101EF000686821688968490602D4282108422DD0E3
:101F0000204600F059FC21688868400622D5EFF38E
:101F10001080012282F310888B68402293438B60EB
:101F200080F31088606F002814D075498163606F5A
:101F3000FFF7CCF900280CD0606F816B08E000E05F
:101F400012E0860610D58E060ED5A16EB9E02046A9
:101F50008847F8BD2046FFF773FFF8BD2046FFF71E
:101F60006FFF00206860F8BD266E012E7DD1C60689
:101F70007BD5CE0679D5102010622268906826465F
:101F800040064036002857DA616F0B685868000435
:101F9000000C45D0378B874242D9708308680068AF
:101FA000800636D4EFF31080012181F31088116888
:101FB000FF2301339943116080F31088EFF3108001
:101FC000012181F3108821688A68520852008A60D2
:101FD00080F31088EFF31080012181F310882168CD
:101FE0008A6840239A438A6080F310882020286002
:101FF00000202066EFF31080012181F31088216812
:102000000A6810239A430A6080F31088606FFFF714
:102010003BF902206066308B718B401A81B207E079
:10202000318B81429FD1186880069CD50220606662
:102030002046FFF703FFF8BD308B718B401A81B249
:10204000708B0028F7D00029F5D0EFF31080012322
:1020500083F310881368FF262136B343136080F39F
:102060001088EFF31080012200E01AE082F310885C
:10207000226893685B085B00936080F310882020DF
:10208000286000202066A066EFF31080012282F312
:102090001088226813681025AB43136080F3108802
:1020A000C4E7C50208D55B0206D501200005106211
:1020B0002046FFF7C4FEF8BD030606D50B0604D57F
:1020C000E16E002900D042E7F8BD4006FCD5480685
:1020D000FAD52046EFF31081012383F310881468AA
:1020E00040239C43146081F310882021C1670021A4
:1020F000C16600F0E1F9F8BD0F08000020010004FE
:10210000A927000810B5040003D0E06F002802D012
:1021100007E0012010BD002178200155204600F085
:1021200027F82420E0672068016849084900016019
:10213000606A002802D0204600F06EFA204600F0C7
:1021400043FC0128E6D0206841680922D20291436D
:102150004160206881682A2291438160206801687B
:10216000012211430160204600F0BCFA10BD0000BE
:1021700030B587B0044614216846FEF71AFA246881
:10218000214D0022214802210323AC4218D1446B87
:102190004D032C434463C46A0C43C462C06A6C465A
:1021A00008400590C0200FC4694619480492FFF703
:1021B000C5F8002211461B20FFF7F4F91B201EE092
:1021C000144DAC421DD1846B01256D042C438463F6
:1021D000C46A01252C43C462C06A6C46284005903D
:1021E0000C200FC404200490052069460007FFF767
:1021F000A5F8002211461C20FFF7D4F91C20FFF798
:10220000C5F907B030BD00000038014000100240A1
:102210000004005000440040FFB5074604468037E4
:10222000386885B00E46202802D0022009B0F0BDE3
:10223000002E0CD00798002809D00120A1680003C7
:10224000814206D12069002803D1F00701D0012086
:10225000ECE700207860222139602066FFF746F91C
:102260000490254640350798288307986883012104
:10227000A0680903884206D12269002A01D1274AB1
:102280000CE0FF220AE07F22002812D001231B0766
:10229000984212D12369002B00D03F22AA8392B228
:1022A0000292884202D12069002808D001960026B7
:1022B00007E02369002BE4D0F0E70022EEE70020DE
:1022C0000190D0B20390688B002822D0089800902B
:1022D000002220212046049B00F016FD002803D098
:1022E000202038600320A1E7019800282068406A78
:1022F0000AD003990840019908700198401C019088
:10230000688B401E6883DEE7029908403080B61C67
:10231000F6E720203860002088E70000FF01000079
:1023200070B580231B58202B01D0022070BD0029DE
:102330000BD0002A09D0012483682403A34206D1CC
:102340000369002B03D1CB0701D0012070BD00230E
:1023500003660B4B04689C420ED063681B020BD5CE
:10236000EFF31083012585F3108825680126B60652
:102370003543256083F3108800F062FC70BD0000D7
:102380000048004010B5174A01681748914214D11F
:10239000C188802904D2154B02795A54491CC18046
:1023A000C189002904D0C2888A4201D30121C170A9
:1023B0000D490122091D0E4810E00E4A91420FD12D
:1023C0004189802905D2094B427980335A54491CEE
:1023D0004181054906480122491D8830FFF7A0FFC9
:1023E00010BD000000380140000000208E010020D8
:1023F0003400002000440040FFB50446C06F83B0A5
:1024000017460D46202802D0022007B0F0BD002D4F
:102410000BD0002F09D00120A1680003814206D112
:102420002069002803D1E80701D00120EDE7002151
:10243000842001512120E067FFF758F826464036F6
:102440000190378277820120A1680003814202D186
:102450002069002802D02F46002511E000270FE058
:1024600000228021204600F04FFC002815D1002FCB
:1024700017D02168387888627F1C708A401E70826D
:10248000708A019B002806980090E9D10022402123
:10249000204600F039FC00280AD02020E067032005
:1024A000B3E728882168C005C00D8862AD1CE4E749
:1024B0002020E0670020A8E77047FEE710B50D4830
:1024C0000B490160E1210902416000210122520310
:1024D0008160C26001618161C1610C22016242615F
:1024E0004162FFF70FFE002801D0FEF7CBFE10BDC2
:1024F000003801403400002010B50C480A49016042
:10250000E1214902416000218160C1600161816176
:10251000C1610C22016242614162FFF7F3FD0028B4
:1025200001D0FEF7AFFE10BD00440040BC0000200B
:10253000FEE77047704710B5FEF7DEFF10BD0000E4
:1025400010B59CB038216846FEF733F8142116A860
:10255000FEF72FF820210EA8FEF72BF81948016886
:102560000322D2029143C214891801601020009006
:1025700001200790052000244003099008940A9444
:102580006846FFF7FBF9002801D072B6FEE70F207E
:10259000169017941894199400211A9416A8FFF70E
:1025A000C3F8002801D072B6FEE703200E90109405
:1025B00011940EA8FEF7FAFF002801D072B6FEE7CC
:1025C0001CB010BD007000407047000002490020A0
:1025D0004870024870470000000000208E01002073
:1025E0000148008970470000000000200148407841
:1025F0007047000000000020024900208870024857
:1026000070470000000000200E0200200148807882
:10261000704700000000002010B5818C090707D525
:1026200001684A680123DB039A43436B1A434A60FB
:10263000818CC90707D001684A6801235B049A436B
:10264000836A1A434A60818C890707D501684A6802
:1026500001231B049A43C36A1A434A60818C4907C9
:1026600007D501684A6801239B049A43036B1A4308
:102670004A60818CC90607D50268916801231B0353
:102680009943836B19439160818C890607D5016852
:102690008A6801235B039A43C36B1A438A60818C67
:1026A000490612D503685A6801210905046C8A435A
:1026B00022435A60026C8A4207D1026851680323A0
:1026C0005B059943436C19435160818C090607D51A
:1026D00001684A680123DB04806C9A4302434A6024
:1026E00010BD0000FEB507460025803704467D601A
:1026F000FEF7FCFE01902068006826460007603661
:10270000002819DA274800900121002249052046B7
:10271000019B00F0F9FA00280ED0EFF310800121A0
:1027200081F3108821680A6880239A430A6080F345
:1027300010882020E06729E020680068400728D53D
:10274000184800900121002289052046019B00F0D5
:10275000DBFA00281DD0EFF31080012181F31088EF
:1027600021680A68FF2321339A430A6080F31088A6
:10277000EFF31080012181F3108821688A685208E4
:1027800052008A6080F3108820203860357603205C
:10279000FEBD2020E067386025666566357600203E
:1027A000FEBD0000FFFFFF0110B5806A00225A2124
:1027B0000A52FFF745FB10BD10B5EFF3108101225F
:1027C00082F3108802681368FF242134A343136046
:1027D00081F31088EFF31081012282F310880268E0
:1027E00093685B085B00936081F31088016E012998
:1027F0000BD1EFF31081012282F310880268136875
:102800001024A343136081F31088202280210A50F2
:1028100000210166816610BD70B501464031034656
:1028200080338C8B1D680268222D04D090690821AA
:102830000843906170BD526A456D22402A80426D06
:10284000921C42654A8B521E4A834A8B002AF1D160
:10285000EFF31082012484F3108804682568FF26B2
:102860002136B543256082F31088EFF310820124EE
:1028700084F310880468A5686D086D00A56082F374
:10288000108820221A60002383664366174A046872
:1028900094420ED0626812020BD5EFF3108201252C
:1028A00085F3108825680126B606B543256082F3B6
:1028B0001088026E012A02D0FFF764FD70BD036626
:1028C000EFF31082012383F3108804682568102336
:1028D0009D43256082F310880268D469E443E406CE
:1028E00000D41362098BFFF7A9FA70BD00480040BD
:1028F00070B501464031034680338C8B1D680268F9
:10290000222D04D0906908210843906170BD526A5D
:102910002240446D2270426D521C42654A8B521E09
:102920004A834A8B002AF1D1EFF31082012484F309
:10293000108804682568FF262136B543256082F398
:102940001088EFF31082012484F310880468A568CE
:102950006D086D00A56082F3108820221A600023A4
:1029600083664366174A046894420ED06268120276
:102970000BD5EFF31082012585F310882568012619
:10298000B606B543256082F31088026E012A02D094
:10299000FFF7F8FC70BD0366EFF31082012383F3A9
:1029A00010880468256810239D43256082F31088F1
:1029B0000268D469E443E40600D41362098BFFF78C
:1029C0003DFA70BD00480040F8B504462369A1688F
:1029D000E669194363690025006833431943724A65
:1029E0000368724E33400B43036020684168032341
:1029F0001B039943E368194341602168A069914230
:102A000001D0236A18438B680B263602B343034375
:102A10008B606749236867488B420CD1C068800788
:102A2000800F06D0012839D0022835D0032821D1C3
:102A30001EE001271FE060498B420AD1C0680C21CB
:102A4000084027D0042829D0082825D00C2811D1E7
:102A50000EE093420ED1C16803208002014019D0DC
:102A600001208002091A19D0091A15D0814201D11A
:102A7000082700E010274F4950484039860093420C
:102A800034D1002F0CD0022F0DD0042F10D0082FDE
:102A90007ED128E00027EEE70227ECE70427EAE7EB
:102AA000FEF710FF06E00968C90605D4304603E0CA
:102AB000FEF728FF002872D0626851005118814249
:102AC00066D81103814263D3010E06025008002329
:102AD00030185941FDF78EFB03210902384A411A8B
:102AE00091425AD954E00120C003E5E70122E3698D
:102AF000D20393422AD13B0000F062F90906090C87
:102B00004A114A4A4A264A00FEF7DCFE09E0FEF76F
:102B1000E9FE06E00968C90605D4304603E0FEF781
:102B2000F1FE00283BD0616840004A088018FDF79C
:102B300042FD0146234A1039914229D8511C0140D7
:102B40000007400F084328E01046ECE73B0000F088
:102B500037F90906090C1F111F1F1F211F00FEF75F
:102B6000B1FE09E0FEF7BEFE06E00968C90605D41D
:102B7000304603E0FEF7C6FE002810D061684A0820
:102B80001018FDF718FD01460E4A1039914203D97D
:102B9000012504E01046F1E780B22168C8600020FA
:102BA000A066E0662846F8BD00480040F369FFEFE4
:102BB00000380140401002400044004000093D0040
:102BC000FFFC0F00EFFF000000B513A00FC889B095
:102BD00003936B4607C314A10FC9079304AB07C344
:102BE00064230F2269461448FFF706FC1248642349
:102BF0000F2204A98830FFF7FFFB01220F490E487E
:102C0000FFF78EFB0D490C480122491C8830FFF765
:102C100087FB09B000BD0000554152543120574593
:102C20004C434F4D450D0A005541525432205745F3
:102C30004C434F4D450D0A00340000200400002095
:102C400070B54165014640310A834A83002383669B
:102C5000012284681203FF25944204D10469002CE8
:102C600013D1264C0AE07F26002C09D001252D0720
:102C7000AC420CD10469002C05D03F248C8307E0C2
:102C80000469002C01D08E8302E08D8300E08B83E9
:102C9000014680314B6022230B60EFF3108101234A
:102CA00083F3108803689C6801252C439C6081F3A2
:102CB00010888168914202D1016900290ED0104923
:102CC0008166016900290BD0EFF31081012282F3A4
:102CD000108800680268FF23213309E009498166F2
:102CE000EFF31081012282F310880068026820232C
:102CF0001A43026081F31088002070BDFF010000BC
:102D0000F128000819280008FFB506468036054658
:102D100081B00F460446603534E00A98401C31D03B
:102D2000FEF7E4FB0499411A0A98814218D800285A
:102D300016D020680168490724D5802F22D0402F63
:102D400020D0C169C94309070CD40827076220466F
:102D5000FFF732FD776000202876012005B0F0BD36
:102D60000320FBE7C069C04300050BD401202168A4
:102D7000C00208622046FFF71FFD2020706000207F
:102D80002876EDE72068C1693846884305D00021E0
:102D900003988142C1D00020E0E70121F8E700005C
:102DA00010B50248FFF74EF810BD000034000020B7
:102DB00010B50248FFF746F810BD0000BC00002027
:102DC00030B47446641E2578641CAB4200D21D46A4
:102DD000635D5B00E31830BC184700008307FF22E7
:102DE000DB0E9A408907090E9940002808DB83080A
:102DF00009489B001B1818689043084318607047E7
:102E00000007000F0838830804489B001B18D86986
:102E100090430843D861704700E400E000ED00E013
:102E200030380A2801D20120704700207047000086
:102E300013B56423012269460248FFF7DDFA0098C2
:102E40001CBD0000BC000020FEF75EFBFFF778FB16
:102E5000FFF734FBFFF750FB6420FEF75DFAFFF746
:102E6000B3FEFEF735F9002814D02AA0FDF744FA86
:102E7000FEF7D0F9002802D02BA0FDF73DFAFEF7AF
:102E80004BF9002818D02DA0FDF736FA00242F4E5C
:102E90002F4D07E02FA0F0E7315D34A0FDF72CFAAD
:102EA000641CE4B228788442F6D332A0FDF724FAF9
:102EB0007D20C000FEF730FAFFF798FB002814D001
:102EC000FFF784FB0646FFF78BFB05462AA0FDF7BC
:102ED00013FA002404E0315D24A0FDF70DFA641C10
:102EE000AC42F8DB23A0FDF707FAFFF78FFB0028C1
:102EF000C5D0FFF781FB054622A0FDF7FDF90024B0
:102F0000295D1AA0FDF7F8F9641C082CF8DB19A05C
:102F1000B3E70000435239354846204543484F2027
:102F20004F4B0D0A0000000050726F746F636F6C9E
:102F300020536574204F4B0D0A00000043617264FA
:102F40002044657465637465643A20008401002040
:102F500000000020435239354846204543484F2061
:102F60004641494C45440D0A0000000025303258C6
:102F7000200000000D0A00005553415254312052E8
:102F8000583A20005553415254322052583A2000AA
:102F90000000000000000000010203040607080909
:102FA000030406080C101820300000000001020382
:102FB00004303132333435363738394142434445B1
:102FC0004640305800303132333435363738396185
:102FD0006263646566403078000400000800000009
:102FE000000000000200010000103A7474003A74FE
:102FF00074003A74740000001830000800000020CB
:1030000034000000040100084C30000834000020A7
:10301000BC090000200100080000000000000000C2
:1030200000000000000000000000000000000000A0
:10303000010000000400000000000000000020006B
:0C30400000000000000000000000000084
:04000005080000C12E
:00000001FF
