:020000040800F2
:10000000F00C0020D50000084F3A00084B3A0008D9
:1000100000000000000000000000000000000000E0
:100020000000000000000000000000009D3C0008EF
:100030000000000000000000533A00089F3C000848
:10004000E7000008E7000008E7000008E7000008F4
:10005000E7000008E7000008E7000008E7000008E4
:10006000E7000008E7000008E7000008E7000008D4
:10007000E7000008E700000800000000E7000008B3
:1000800000000000E7000008000000000000000081
:10009000E700000800000000E7000008E700000893
:1000A000E7000008E7000008E70000083D470008F7
:1000B0004D470008E700000800000000E7000008C6
:1000C0000348854600F0DEFA004800475156000814
:1000D000F00C00200448804704480047FEE7FEE794
:1000E000FEE7FEE7FEE7FEE7393D0008C100000835
:1000F00030B50B46014600202022012409E00D46C0
:10010000D5409D4205D31D469540491B2546954047
:1001100040191546521E002DF1DC30BDF0B51FB45C
:100120000646002082B005464024019100901BE065
:10013000019922460F46304600F08BF8049A059B41
:10014000801A994110D310461946224600F071F8E2
:10015000361A8F410197224601200021009F00F0AE
:1001600068F838184D4100902046641E0028DFDCF6
:10017000019B00982946324607B0F0BD03460B4369
:100180009B0703D009E008C9121F08C0042AFAD24D
:1001900003E00B780370401C491C521EF9D27047D3
:1001A000D2B201E00270401C491EFBD2704700220F
:1001B000F6E710B513460A4604461946FFF7F0FF66
:1001C000204610BD421C0178401C0029FBD1801A3A
:1001D0007047C20FD207400040080BD0C10D072363
:1001E000DB01C91840020905400A1143C208400753
:1001F00011437047002001467047CB0FDB074900D1
:1002000010B5490802460A4307D00A0D072409031E
:10021000E401090B121B002A01DC002010BDC900FB
:10022000440F0C43C100E018D205801800F022F8FA
:1002300010BD10B5202A04DB0146203A9140002071
:1002400010BD914020239C1A0346E340194390407F
:1002500010BD10B5202A04DB0846203AD04000210A
:1002600010BD0B46D340D0402024A21A9140084331
:10027000194610BD002904DA401C490001D140088C
:100280004000704770B40024050C05D11024000410
:1002900002D1002921D01124050E01D10002083419
:1002A000050F01D10001241D850F01D18000A41C80
:1002B000002801DB4000641C002908D020252E1BEB
:1002C0000D46F540A14000D0012129430843010615
:1002D0001B1B000ADB1D02D5002070BC7047DB052C
:1002E000181880180029F8DA401C4900F5D170BCB4
:1002F0004008400070470000F0B5074608465840E7
:1003000087B0C00F049048000E46590040084908C5
:10031000BC1A884105D2384631461E4617460B4660
:1003200002465800400810434CD0300D0390400561
:100330005900400D490D0590401A0290402872DA8C
:1003400018030121000B090508430190049800924D
:10035000002805D001995242002088410092019066
:10036000029840210A1A01990098FFF762FF05469A
:100370000C466B4607CB00F097F9C0197141039A00
:100380000E0D0023D71756401A467A40164344D024
:10039000049A002A2DD0029A012A039A15DC12052C
:1003A000C01A914101263605001C7141D20F059EED
:1003B000D2070093019202962A46234600F094F950
:1003C00007B0F0BD38463146FAE71605224A0F4617
:1003D000B218C01AB74101210905001C4F4100188D
:1003E0007F41114618187941E20F10436D1964419D
:1003F00013E0E2076D0815436408C2071443039A2B
:1004000001261205C01A91413605001C7141CE0724
:10041000400830434908C01851412A46234600F09D
:1004200056F9CDE7FFE7049801224000C117121AE0
:1004300000238B4104983146C417381AA141EEE7D6
:1004400030B40124E407634030BC55E730B40124E4
:10045000E407614030BC4FE70000E0FFF0B51FB497
:1004600088B00B990998002448400999C00F4900A9
:1004700049080991C0070B990090490049080B9160
:1004800009990898A64608431CD00B990A98084376
:1004900018D0099801244000420D4800410D0998E8
:1004A00024050003000B204309900B980003000B68
:1004B00020430B9050181C4940180022019014460C
:1004C000104605E0002001460DB0F0BD032801DA1A
:1004D000034600E003239C46C11A0AAE0AE05F000F
:1004E00008ADED5B4F00F75B7D430027AA187C4108
:1004F000491C5B1E6145F2DD410004AB5A522104E8
:10050000120C0A43240C401C0828DFDB01980290DF
:100510000099704601910090059B049A07990698EE
:1005200000F0E2F8D0E700000DFCFFFFF0B50C464C
:100530005C4085B0E40FE40703944C000026640897
:1005400059009446490802460296224321D0624649
:100550000A431ED06200570D4A000E032303550DB7
:10056000012402462C492405781B1B0B360B40182E
:1005700023432643614600901C46501AB44103D3DE
:100580000098401C009002E0921800985B410028FF
:1005900003DA0020014605B0F0BD00200121090565
:1005A0000746864611E064461D46141BB54106D336
:1005B0006546521BB341744607430C43A646CD071C
:1005C00040084908284392185B4105460D43EAD18B
:1005D0001046184313D060461946504071400843F6
:1005E00006D06046101AB34106D20122002306E06D
:1005F00000220123DB0702E00122D24353100098BE
:1006000074460105381C6141029C039D0019694133
:1006100000F05DF8BFE70000FD0300004A00090399
:100620000123090B1B0519430A4B10B5520D9A42C1
:1006300002DA0020014610BD064B34339A4203DC37
:100640009A1AFFF706FE10BD034BD218FFF7F1FD13
:1006500010BD0000FF030000CDFBFFFF10B5002917
:1006600004DB0124E40740428C412146002B04DBDB
:100670001C460123DB075242A341994200D190421C
:1006800010BD0000064C0125064E05E0E36807CCCE
:100690002B430C3C98471034B442F7D3FFF714FDBA
:1006A000345800085458000810B5202A06DBCB1730
:1006B0000846203A1041C1170B4306E00B46134190
:1006C000D0402024A21A91400843194610BD10B50D
:1006D000002B08DA0024401C614192185B411A4348
:1006E00001D14008400010BDF0B51FB482B00546EE
:1006F0000C0003D0084604F063F802E004F060F850
:1007000020300246009021462846FFF792FD049BC8
:10071000059A04460F4618431143084314D018465F
:1007200010431BD0009840210A1A18460599FFF77C
:1007300090FD05460E46009A05990498FFF779FD4D
:10074000084305D0012004E02046394607B0F0BD3B
:100750000020C11705430E432C43374300990E98E0
:100760006305401A7905E40A00220C43FD0A0A30A9
:1007700002D500200146E9E70105101969410C9CEA
:100780000D9D00196941FFF7A2FFDFE70EB5FE4896
:100790000078282801D301F063F843007B449B884C
:1007A0005B009F44270059007D009D00B800DB00DE
:1007B000110137016D019301B301CF016E028A026D
:1007C000B502E50213033D035E038B03A703D203C7
:1007D0003A043005500571059E05C905E905160660
:1007E00032065E068A06B606D206F3068507A1071C
:1007F000CC073B0855200290E4A001F0E7F8012265
:10080000114602A801F062F80120DF4908707D203E
:10081000C00003F0A3FFE1A001F0D8F8E24801888E
:10082000E24801F0E3F8E148007855280BD0E0A059
:1008300001F0CCF8E2480068401EE1490860002061
:10084000D1490870FDE30120CF490870DC480068F9
:10085000401EDB490860F5E7DAA103C90291019067
:100860000222052101A801F031F8282001F064FCE2
:100870007D20C00003F072FFCC48007887280BD0A1
:10088000CA480078902807D0C8480078832803D049
:100890000020BD490870D5E70220BB490870D1E7A8
:1008A000CAA103C9029101900222072101A801F007
:1008B0000DF8282001F040FC7D20C00003F04EFF21
:1008C000BA480078002807D0B8484078002803D0FC
:1008D0000020AD490870B5E70320AB490870B1E7C7
:1008E000BCA0006802900722042102A800F0EEFFDD
:1008F000282001F021FC7D20C00003F02FFFAB4831
:100900000078802803D000209F4908709AE70420CF
:100910009D49087096E7B0A103C9029101900A228F
:10092000052101A800F0D2FF282001F005FC7D2060
:10093000C00003F013FFAA480078072809DB042051
:10094000A849087004229949C91CA748FFF716FC5A
:1009500003E000208C49087074E700BFA3A14A6837
:1009600008688968019202910090904881786846F1
:1009700001718E48C178684641718C48017968469A
:1009800081718A4841796846C17188488179684691
:1009900001728648C1796846417208220A2100F036
:1009A00095FF282001F0C8FB7D20C00003F0D6FE93
:1009B0007E480078802803D000207349087041E702
:1009C0000620714908703DE78BA103C9029101908F
:1009D0000A22052101A800F079FF282001F0ACFBD4
:1009E0007D20C00003F0BAFE7D480078072809DBAF
:1009F00004207C49087004226C49C91C7A48FFF71E
:100A0000BDFB03E00020604908701BE707205E493A
:100A1000087017E77AA211685068926802920091F4
:100A2000019062488178684601716048C1786846E3
:100A300041715E480179684681715C484179684638
:100A4000C1715A488179684601725848C17968462F
:100A5000417208220A2100F039FF282001F06CFBC6
:100A60007D20C00003F07AFE50480078802803D033
:100A7000002045490870E5E6082043490870E1E692
:100A800062A00068029062A000F0A0FF0F22042183
:100A900002A800F01BFF282001F04EFB7D20C000C3
:100AA00003F05CFE5EA000F091FF3F4801883F48E4
:100AB00000F09CFF3D480078802803D00020324998
:100AC0000870BFE6092030490870BBE63DA103C9A4
:100AD000029101900622052101A800F0F7FE2820CE
:100AE00001F02AFB7D20C00003F038FE2F4800787B
:100AF000902807D02D480078802803D00020224974
:100B000008709FE60A20204908709BE649A103C9A6
:100B1000029101900222072101A800F0D7FE2820AF
:100B200001F00AFB7D20C00003F018FE1F4800788A
:100B3000872803D000201449087083E60B2012494F
:100B400008707FE63DA103C9029101903DA000F02D
:100B50003DFF0222052101A800F0B8FE282001F087
:100B6000EBFA7D20C00003F0F9FD3BA000F02EFF62
:100B70000D4801880D4800F039FF0C4800788028A6
:100B80007BD00A48007872E0720000203020535475
:100B90004154453D4543484F0D0A00004543484FE9
:100BA0002052583A2000000080000020220400203B
:100BB0004543484F204552524F520D0A0000000055
:100BC0007C0000200403C2FF280000000205020090
:100BD0000010000004022607040393200800000010
:100BE0007000002071000020180400200408937099
:100BF0000000000000000000040395200800000031
:100C00000408957000000000000000000402602845
:100C100038204745542056455253494F4E0D0A003F
:100C20004745542056455253494F4E2052583A207A
:100C3000000000000405030000002800040330F851
:100C400028000000313120504147452052454144A1
:100C50002046380D0A0000005041474520524541CA
:100C6000442046382052583A2000000005E08028F1
:100C700003D00020FD490870E4E50C20FB49087012
:100C8000E0E5FB4903C9029101900222052101A878
:100C900000F01CFE282001F04FFA7D20C00003F078
:100CA0005DFDF4480078902803D00020EF490870DB
:100CB000C8E50D20ED490870C4E5EFA103C9029114
:100CC0000190EF480068002803D001206946887130
:100CD00002E00020694688710222072101A800F085
:100CE000F5FD282001F028FA7D20C00003F036FD34
:100CF000E0480078872807D0DE480078802803D0B5
:100D00000020DA4908709DE50E20D849087099E561
:100D1000DCA207CA6B4607C3DDA000F057FEE1481E
:100D20000188D44802F096FE06220921DE4800F030
:100D3000CDFD282001F000FA7D20C00003F00EFD5B
:100D4000DAA000F043FED7480188CA4800F04EFE02
:100D5000C8480078902807D0C6480078802803D07B
:100D60000020C24908706DE50F20C049087069E590
:100D7000D3A2116850689268029200910190D3A0AA
:100D800000F024FE06220921D54800F09FFD28200E
:100D900001F0D2F97D20C00003F0E0FCD1A000F00A
:100DA00015FEC0480188B34800F020FEB148007825
:100DB000902807D0AF480078802803D00020AB49A6
:100DC00008703FE51020A94908703BE5A84903C910
:100DD00002910190C8A000F0F9FD0222052101A8AE
:100DE00000F074FD282001F0A7F97D20C00003F079
:100DF000B5FCC7A000F0EAFDAA4801889D4800F0B4
:100E0000F5FD9C480078902806D0C6A000F0DEFDD5
:100E100000209649087015E511209449087011E5E5
:100E20009349703103C9029101900222072101A860
:100E300000F04CFD282001F07FF97D20C00003F078
:100E40008DFC8C480078872807D08A480078802855
:100E500003D0002085490870F4E41220834908700B
:100E6000F0E48349783103C902910190B2A000F007
:100E7000ADFD0222052101A800F028FD282001F087
:100E80005BF97D20C00003F069FC7948943000F0E4
:100E90009DFD84480188774800F0A8FD75480078DA
:100EA000802807D073480078802803D000206F493D
:100EB0000870C7E413206D490870C3E46C4903C986
:100EC000029101900222052101A800F0FFFC2820D8
:100ED00001F032F97D20C00003F040FC6548007845
:100EE000902803D0002061490870ABE414205F49CA
:100EF0000870A7E495A103C90291019060480068B9
:100F0000002803D001206946887102E0002069466C
:100F100088710222072101A800F0D8FC282001F0E6
:100F20000BF97D20C00003F019FC52480078872897
:100F300007D050480078802803D000204B49087023
:100F400080E41520494908707CE482A103C902911C
:100F5000019082A000F03AFD0222062101A800F0D3
:100F6000B5FC282001F0E8F87D20C00003F0F6FB76
:100F700080A000F02BFD4B4801883E4800F036FD74
:100F80003C480078802803D000203849087059E494
:100F900038482030807FA5281FD136482030C07FB8
:100FA0005A281AD179A000F011FD02208149087059
:100FB00081480068401C8049086008460068022893
:100FC00007DD2F480068C0432D49086000207A499A
:100FD000086016202549087034E42648403000781F
:100FE00029280FD02348403000782C280AD02148E7
:100FF00040300078012805D070A000F0E7FC022006
:101000006C490870274801881A4802F023FD00F057
:1010100069FD16201549087014E45520029071A04E
:1010200000F0D4FC0122114602A800F04FFC012080
:101030000E4908707D20C00003F090FB0C48283852
:1010400000E009E200F0C2FC16480188094800F0FF
:10105000CDFC08480078552807D00548143800F022
:10106000B5FC002001490870FEE3C3E072000020D7
:10107000C40B000822040020040501000000280021
:10108000380000200407A2FE1E061384280000007A
:101090003134205041474520575249544520464558
:1010A0000D0A000080000020460000205041474506
:1010B0002057524954452046452052583A200000B6
:1010C0000407A2FFA55A290328000000313520504B
:1010D0004147452057524954452046460D0A0000D5
:1010E0004F00002050414745205752495445204663
:1010F000462052583A20000031362053544154457E
:101100003D2053544154452052455345540D0A0047
:1011100053544154452052455345542052583A2087
:10112000000000005354415445205245534554207B
:101130004552524F520D0A00313820504147452048
:10114000524541442046380D0A00000004050000C5
:101150000000280004043AF0FF280000323120503B
:1011600041474520524541442046302D46460D0A10
:101170000000000050414745205245414420463080
:101180002D46462052583A20000000000A436F6D59
:1011900062696E6174696F6E203320726573657465
:1011A0002064756520746F20413520616E642035A0
:1011B000410A2000660000203C0000200A436F6DB9
:1011C00062696E6174696F6E203320726573657435
:1011D000207374617465203231205F5F20370A20EC
:1011E0000000000032322053544154453D454348ED
:1011F0004F0D0A001720FA490870FA480068401E8F
:10120000F849086030E3F84903C9029101900222CD
:10121000052101A800F05AFB282000F08DFF7D2059
:10122000C00003F09BFAF1480078872807D0EF4808
:101230000078902803D00020E949087014E31820B2
:10124000E749087010E3E849703103C90291019041
:101250000222072101A800F039FB282000F06CFFD2
:101260007D20C00003F07AFAE0480078872807D094
:10127000DE480078802803D00020D9490870F3E2C6
:101280001920D7490870EFE2D749783103C9029194
:101290000190D7A000F09AFB0222052101A800F0DE
:1012A00015FB282000F048FF7D20C00003F056FA0F
:1012B000CD48943000F08AFBD2480188CB4800F03A
:1012C00095FBCA480078802807D0C8480078802855
:1012D00003D00020C2490870C6E21A20C049087035
:1012E000C2E2C14903C902910190C7A000F06EFBA0
:1012F0000622052101A800F0E9FA282000F01CFFD1
:101300007D20C00003F02AFAC44800F05FFBBD480E
:101310000188B64800F06AFBB4480078902807D0EE
:10132000B2480078802803D00020AD4908709BE2C5
:101330001B20AB49087097E2AB49703103C9029199
:101340000190B7A000F042FB0222072101A800F0A3
:10135000BDFA282000F0F0FE7D20C00003F0FEF969
:10136000A2480078872803D000209D4908707BE2BE
:101370001C209B49087077E29B49783103C9029190
:101380000190ACA000F022FB0222052101A800F090
:101390009DFA282000F0D0FE7D20C00003F0DEF989
:1013A0009148943000F012FB964801888F4800F075
:1013B0001DFB8E480078802807D08C480078802854
:1013C00003D00020864908704EE21D208449087031
:1013D0004AE2854903C9029101900222052101A830
:1013E00000F074FA282000F0A7FE7D20C00003F072
:1013F000B5F97E480078902803D00020784908701D
:1014000032E21E20764908702EE28449983903C9D9
:10141000029101908C480068002803D001206946A1
:10142000887102E00020694688710222072101A824
:1014300000F04CFA282000F07FFE7D20C00003F071
:101440008DF96A480078872807D068480078802896
:1014500003D000206249087006E21F20604908702E
:1014600002E27AA207CA6B4607C37BA000F0AEFA7D
:10147000062209217D4800F029FA282000F05CFEB0
:101480007D20C00003F06AF96448643800F09EFAD9
:101490005C480188554800F0A9FA54480078902823
:1014A00007D052480078802803D000204C490870AB
:1014B000DAE120204A490870D6E16DA207CA6B46DE
:1014C00007C36EA000F082FA06220921704800F0DE
:1014D000FDF9282000F030FE7D20C00003F03EF929
:1014E0004E482C3800F072FA464801883F4800F018
:1014F0007DFA3E480078902807D03C480078802844
:1015000003D0002036490870AEE12120344908702C
:10151000AAE1354903C9029101900222052101A8DF
:1015200000F0D4F9282000F007FE7D20C00003F071
:1015300015F92E480078902803D00020284908701B
:1015400092E12220264908708EE12749703103C9B3
:10155000029101900222072101A800F0B7F928208A
:1015600000F0EAFD7D20C00003F0F8F81F48007885
:10157000872807D01D480078802803D0002018490C
:10158000087071E12320164908706DE11649783121
:1015900003C9029101903FA000F018FA0222052130
:1015A00001A800F093F9282000F0C6FD7D20C000BE
:1015B00003F0D4F80C48943000F008FA1148018880
:1015C0000A4800F013FA0948007880286CD00748D0
:1015D0000078802868D000200149087044E163E069
:1015E000720000207C000020C40B000822040020B0
:1015F0003235205041474520524541442046380D60
:101600000A00000080000020323620535441544527
:101610002052455345540D0A0000000010110008E7
:10162000323720534543544F522053454C45435481
:101630000D0A0000323820504147452052454144B0
:101640002046380D0A000000380000200407A2FEE2
:101650001E06F87428000000333120504147452011
:1016600057524954452046450D0A000046000020C7
:101670000407A2FFA55A2C03280000003332205093
:101680004147452057524954452046460D0A00001F
:101690004F000020333520504147452052454144FA
:1016A0002046380D0A000000242071490870DBE054
:1016B000704903C9029101900222052101A800F09E
:1016C00005F9282000F038FD7D20C00003F046F821
:1016D00069480078902803D0002065490870C3E06D
:1016E000252063490870BFE0644903C90291019055
:1016F00063480068002803D001206946887102E031
:101700000020694688710222072101A800F0DEF856
:10171000282000F011FD7D20C00003F01FF856487E
:101720000078872807D054480078802803D000200C
:101730004F49087098E026204D49087094E04F49C1
:10174000DC3103C9029101904EA000F03FF9022262
:10175000062101A800F0BAF8282000F0EDFC7D2059
:10176000C00002F0FBFF4548FC3000F02FF94B4869
:101770000188414800F03AF93F480078802803D0BA
:1017800000203B4908706FE03B482030807FA5284F
:101790001FD139482030C07F5A281AD1404800F064
:1017A00015F902203F4908703F480068401C3E4937
:1017B000086008460068022807DD31480068C04319
:1017C0002F49086000203849086027202849087000
:1017D0004AE0294840300078292811D02648403076
:1017E00000782C280CD0244840300078012807D0FD
:1017F0002B48303000F0EAF802202A49087002E055
:10180000002028490870254801881B4802F022F969
:1018100000F068F927201649087025E023A0006829
:1018200002900222042102A800F050F8282000F0C3
:1018300083FC7D20C00002F091FF0F480078002853
:101840000AD00D484078002806D019A000F0BEF854
:1018500000200749087007E001201B4908600EBD01
:1018600028200349087000BF00BF00BFF7E7000051
:1018700072000020C40B0008220400207810000829
:10188000380000203338205041474520524541441C
:101890002046302D46460D0A000000008000002042
:1018A0008C110008660000203C00002002020000AD
:1018B00050524F54434F4C2053454C4543542045C0
:1018C00052524F520D0A00007800002070B50546B4
:1018D0000E46144600200F4908700F4804700F4848
:1018E000048000200E4908804B21C9000D48FEF7F6
:1018F0005EFC6423324629460B4802F031F801228F
:101900000A49094801F07CFF00F0E8FD0849086039
:1019100070BD00006A0000207000002084000020DC
:101920008000002022040020080100208800002000
:101930006C00002000B587B01F48406B012189036F
:1019400008431D49486300BF0846C06A0221084396
:101950001949C8620846C06A02210840019000BFC8
:1019600000BF142102A8FEF722FCC0200290022032
:10197000039000200490022005900020069002A908
:101980000E4800F0B3FC0E480E490860E12000024A
:10199000486000210B48816001214903C16000219A
:1019A00001610C21416101F079FE03F0EDFE064971
:1019B000087007B000BD0000001002400004005095
:1019C00000380140080100203400002070B50446B2
:1019D0002046FEF7F7FB85B264232A4621460248DB
:1019E00001F0BEFF70BD000090010020F8B5054673
:1019F0000E46002416E0285D00110D49095C68467A
:101A00000170285D0007000F0949095C68464170B4
:101A100020218170642303226946064801F0A0FF5B
:101A2000601C84B2B442E6DB03A0FFF7CFFFF8BD31
:101A300000580008900100200D0A000000B587B092
:101A40002448806B0121490408432249886300BF70
:101A50000846C06A012108431E49C8620846C06A98
:101A6000C007C00F019000BF00BF142102A8FEF7FD
:101A70009EFB0C2002900220039000200490032083
:101A800005900420069002A90520000700F02EFC16
:101A9000114812490860E1204002486000210F48C7
:101AA0008160C16001610C21416101F0F7FD0028F6
:101AB00001D000F0FDF9002211461C2000F07EFD4F
:101AC0001C2000F06DFD01220549044801F098FE3C
:101AD00007B000BD0010024000440040900100200B
:101AE0008900002070B59CB0002682480188824899
:101AF00003F058FE81A0FFF769FF7E4801887E4809
:101B0000FFF774FF7B480088282804DA84A0FFF7D9
:101B10005DFF1CB070BD78488079012816D1012680
:101B200085497548C2890A80008A48807248807B4E
:101B30007149C97B009101906F48037C427C7FA171
:101B400003A802F029FE03A8FFF740FF6A48807946
:101B50002C2818D101266848007B834908806648F4
:101B6000C07A824908806448807A81490880624846
:101B7000407A804908806048007A7F4908805E4842
:101B8000C0797E4908805C488079292822D10126C5
:101B90007B495948428D0A80808D48807949564852
:101BA000C28C0A80008D4880082253491E31764835
:101BB000FEF7E4FA0822504916317448FEF7DEFABF
:101BC00008224D490E317248FEF7D8FA4A48407B48
:101BD00070490880012E7BD16FA0FFF7F7FE5648B1
:101BE00074A1026803A802F0D7FD03A8FFF7EEFE78
:101BF0005D48008800905D4803885D48028873A1B5
:101C000003A802F0C9FD03A8FFF7E0FE5B480088C7
:101C10000090594803885748028874A103A802F02D
:101C2000BBFD03A8FFF7D2FE5A48028877A103A89C
:101C300002F0B2FD03A8FFF7C9FE51480068FEF7A5
:101C4000C8FA044622460B4675A103A802F0A4FD7B
:101C500003A8FFF7BBFE4B480068FEF7BAFA04463C
:101C600022460B4673A103A802F096FD03A8FFF7D6
:101C7000ADFE464903C9FEF7C0FA0446FEF7A9FACD
:101C8000424A03C2414870A10CC803A802F084FD77
:101C900003A8FFF79BFE3E4903C9FEF7AEFA0446D0
:101CA000FEF797FA3A4A03C239486DA10CC803A857
:101CB00002F072FD03A8FFF789FE334903C9FEF75E
:101CC0009CFA0446FEF785FA2F4A03C22E4800E02C
:101CD0000EE069A10CC803A802F05EFD03A8FFF79F
:101CE00075FE6BA0FFF772FE0026704803F054FAF1
:101CF00000BF0EE780000020220400200A52657613
:101D000065727365642064617461205041474520A9
:101D1000524541442046302D46462052583A200034
:101D2000496E76616C69642064617461206C656ED3
:101D30006774680D0A000000300000200D0A52612F
:101D4000772053657269616C2042797465733A201B
:101D50002530325820253032582025303258202561
:101D6000303258200D0A0000000000200200002040
:101D70000400002006000020080000200A000020C7
:101D80002C00002028000020200000201800002047
:101D9000100000200C0000202D2D2D2D2D2D205564
:101DA0004152542044415441202D2D2D2D2D2D0DD7
:101DB0000A00000053657269616C204E6F20203A62
:101DC000202530386C580D0A0000000054696D65FC
:101DD000202020202020203A20253032643A25304F
:101DE00032643A253032640D0A00000044617465A3
:101DF000202020202020203A20253032642D25303C
:101E000032642D3230253032640D0A004261736530
:101E100020556E697420203A2025640D0A000000C8
:101E200054656D70657261747572653A20252E3245
:101E3000660D0A00466C6F77202020202020203A73
:101E400020252E32660D0A00466F7277617264207B
:101E5000566F6C3A20252E366C660D0A0000000085
:101E6000546F74616C20566F6C20203A20252E36FA
:101E70006C660D0A0000000052657665727365207D
:101E8000566F6C3A20252E366C660D0A0000000055
:101E90002D2D2D2D2D2D2D2D2D2D2D2D2D2D2D2D72
:101EA0002D2D2D2D2D2D2D0D0A0000009C00002024
:101EB00072B600BFFEE7000000210A4A51610A49DC
:101EC0004968012252021143074A5160114649688C
:101ED00008221143044A51600021C209D201116055
:101EE00070470000D408002000200240002039493B
:101EF0008969FF2201321140914208D1364949696E
:101F000002221143344A5161FF2101310843314912
:101F10008969012252021140914208D12E49496932
:101F2000012211432C4A51610121490208432949E8
:101F30008969012292021140914208D126494969DA
:101F400008221143244A5161012189020843214991
:101F500089690122D2021140914208D11E49496982
:101F6000042211431C4A51610121C9020843194945
:101F70008969012252031140914208D116494969E9
:101F800010221143144A51610121490308431149A8
:101F90008969012252041140914207D10E494969D1
:101FA000202211430C4A51612021084309498969C3
:101FB000012212041140914208D107494969402287
:101FC0001143054A5161012109040843014988610F
:101FD0007047000000200240D408002070B504467D
:101FE00000F07CFA05460BE0601C002808D0002CAD
:101FF00004D000F073FA401BA04201D9032070BD49
:102000001F488069C007C00F0028EDD11C488069B7
:1020100002210840022801D11949886118488069C5
:10202000FF2101310840884223D0154880694900CA
:10203000084088421DD01248806949000840884203
:1020400017D00F48806949000840884211D00C48D9
:1020500080698900084088420BD0094880690901DD
:102060000840884205D006488069491008408842E7
:1020700003D1FFF73BFF0120C1E70020BFE70000CD
:1020800000200240014600222520405C022808D0A2
:102090000420C86300BF00232420435400BF012054
:1020A0007047086800680E2398430B68186008683A
:1020B0000068400840000B6818601C23486C1840FA
:1020C00001238340086C436001232520435400BF53
:1020D00000232420435400BF1046E1E770B50446B6
:1020E00000252520005D022803D00420E06301259F
:1020F00020E0206800680E2188432168086020687D
:10210000006840084000216808601C21606C08409D
:1021100001218140206C416001212520015500BF33
:1021200000212420015500BFA06B002802D02046CA
:10213000A16B8847284670BD70B5044600F0CEF903
:1021400006462546681C002802D0054800782D1850
:1021500000BF00F0C3F9801BA842FAD370BD000095
:1021600094000020F8B504460F46002600BF1D4825
:10217000007C012801D10220F8BD01201949087412
:1021800000BF1948FFF72AFF0546002D22D1401E47
:102190003860666817E03046FFF78EFE1248FFF79A
:1021A0001DFF054611484068082188430F494860D3
:1021B00008464068491588430C494860002D01D005
:1021C0003E6006E08036A068C00161684018B042F9
:1021D000E1D800BF00BF00200249087400BF2846B4
:1021E000CAE70000D408002050C3000000200240CD
:1021F0000648406802210843044948600846406890
:102200000121084301494860002070470020024036
:10221000F8B507460D46164600BF0F48007C01285A
:1022200001D10220F8BD01200B49087400BF0B4802
:10223000FFF7D4FE0446002C06D1074948612E6002
:102240000648FFF7CBFE044600BF00200249087491
:1022500000BF2046E6E70000D408002050C300007D
:102260001D484068C007C00F002816D000BFEFF31C
:102270001080014600BF72B61848174AD06018484F
:10228000D06000BF81F3108800BF10464068C007CF
:10229000C00F002801D0012070470F48406802227B
:1022A0001040022815D100BFEFF31080014672B62E
:1022B0000C48094A10610C481061084680F31088E8
:1022C00000BF1046406802221040022801D10120C0
:1022D000E2E70020E0E7000000200240EFCDAB89FC
:1022E00005040302BFAE9D8C1615141370B503468A
:1022F0000A46002100240020DCE001268E401568FB
:1023000035402C46002C79D01579AD07AD0F012D45
:1023100004D01579AD07AD0F022D18D198684E0085
:102320000325B5400646AE4330464E00D568B5405D
:1023300028439860586801258D400646AE433046D4
:102340001026556835402D098D4028435860157971
:10235000AD07AD0F032D0BD0D8684E000325B54057
:102360000646AE4330464E009568B5402843D860D7
:102370001579AD07AD0F022D15D1CD08AE001D4664
:102380002035A8594D07EE0E0F25B5400646AE4341
:1023900030464E07F60E1569B5402843CD08AD000E
:1023A0001E462036705118684E000325B54006467B
:1023B000AE4330461579AD07AD0F4E00B54028430A
:1023C00018600326360455683540002D71D03C4D09
:1023D0006D6B012635433A4E75633A4D8E08B60053
:1023E000A8598D072E0F0F25B5400646AE4330463F
:1023F00005252D07AB4202D1002515E059E0324DED
:10240000AB4201D101250FE0304DAB4201D1022595
:102410000AE02F4DAB4201D1032505E02D4DAB4223
:1024200001D1052500E006258E07360FB54028436B
:10243000244D8E08B600A851274DA8680546A5432F
:1024400028460126360555683540002D02D0054640
:1024500025432846204DA860E8680546A543284640
:102460000126760555683540002D02D005462543E6
:102470002846194DE86068680546A54328460126A8
:10248000760455683540002D02D005462543284680
:10249000114D686028680546A54328460126360484
:1024A00055683540002D02D00546254328460A4D83
:1024B0002860491C1568CD40002D00D01DE770BD77
:1024C00000100240080001400004005000080050C5
:1024D000000C0050001C005000040140014800683E
:1024E000704700008C000020034800680349097809
:1024F00040180149086070478C00002094000020BB
:1025000010B50024084800684021084306490860C7
:10251000032000F00BF8002801D0012401E000F0B6
:102520002FF8204610BD00000020024070B5044680
:10253000104801787D20C000FDF7DAFD06463146DF
:102540000D480068FDF7D4FD054600F085FE002823
:1025500001D0012070BD042C07D200222146501E5C
:1025600000F02CF80548046001E00120F2E70020AB
:10257000F0E7000094000020980000209000002068
:102580000648406B01210843044948630846806BB4
:1025900009040843014988637047000000100240A5
:1025A0000146002905DBCB06DB0E01229A40024BD7
:1025B0001A6000BF7047000000E100E070B50446FB
:1025C0000D4616462946204602F038F970BD000037
:1025D000F8B50446002720212068084020287BD138
:1025E00020680840202800D100BF8A48806B012164
:1025F00009070840002805D18648806B08438549B3
:102600008863012784480068FF21013108400028C1
:1026100016D18148006808437F490860FFF75EFFD4
:10262000064606E0FFF75AFF801B642801D9032005
:10263000F8BD79480068FF21013108400028F1D039
:1026400074480568032109050D4060680840A842E8
:102650000DD0091160680840884208D16D480068B3
:10266000012149040840884201D10120E0E769487E
:10267000403000690321090408400546002D3DD083
:1026800060680840A84239D02021206808402028EE
:1026900034D160484030006903210904884305466D
:1026A0005C48403000690121C90408435949403160
:1026B0000861084600690121C90488435549403131
:1026C000086108460561801528408915884215D1A2
:1026D000FFF704FF064608E03DE0FFF7FFFE801B22
:1026E0004E49884201D90320A2E74A484030006998
:1026F000012149020840400A0028EED0202120682C
:10270000084020281FD100BF00BF032109046068D2
:10271000084088420AD13F480068090188430322E3
:1027200012056168114008433A49086000BF394802
:1027300040300069032212046168114008433549A2
:102740004031086100BF012F05D13248806B390745
:102750008843304988632078C007C00F002809D01B
:102760002C484030C06880088000A168084329498F
:102770004031C860022120680840022809D125485C
:102780004030C0680C218843E1680843214940314A
:10279000C86004212068084004280AD11D48403040
:1027A000C0680321890288432169084319494031DF
:1027B000C86008212068084008280AD11548403020
:1027C000C068032109038843616908431149403106
:1027D000C860402120680840402809D10D48403099
:1027E000C06809058843E16908430A494031C86067
:1027F00080212068084080280AD106484030C068FF
:10280000032189048843A169084302494031C86013
:1028100000200DE700100240007000408813000007
:10282000F8B504460E46002C01D10120F8BD8348BE
:102830000068C007C00FB04218D280480068400846
:10284000400030437D490860FFF748FE054607E039
:10285000FFF744FE401B7A49884201D90320E5E78F
:1028600076480068C007C00FB042F1D1022120684D
:102870000840022807D17348C068F0218843A16846
:1028800008437049C8602078C007C00F00284CD0AA
:102890006068022809D16B4800680121490408409A
:1028A000400C002824D10120C0E76068032809D12A
:1028B00064480068012149060840400E002817D1ED
:1028C0000120B3E76068012808D15E480068042150
:1028D0000840800800280BD10120A7E7594800686C
:1028E000012149020840400A002801D101209DE74A
:1028F0005448C06880088000616808435149C86036
:10290000FFF7ECFD0546606802280FD107E0FFF7EE
:10291000E5FD401B4A49884201D9032086E7494822
:10292000C0680C2108400828F1D134E06068032811
:102930000FD107E0FFF7D2FD401B4149884201D982
:10294000032073E73F48C0680C2108400C28F1D1F0
:1029500021E0606801280FD107E0FFF7BFFD401BB1
:102960003749884201D9032060E73648C0680C2106
:1029700008400428F1D10EE007E0FFF7AFFD401B4F
:102980002F49884201D9032050E72E48C0680C2106
:1029900008400028F1D129480068C007C00FB042A4
:1029A00018D9264800684008400030432349086091
:1029B000FFF794FD054607E0FFF790FD401B204917
:1029C000884201D9032031E71C480068C007C00FC6
:1029D000B042F1D1042120680840042808D11948E8
:1029E000C068072109028843E16808431549C860A7
:1029F000082120680840082809D11248C06807212A
:102A0000C90288432169C90008430E49C86000F023
:102A10004BF80C49C968F022114009090A4A515C77
:102A2000C8400A4908600A480068FFF77FFD07466A
:102A3000002F01D03846F9E60020F7E600200240DA
:102A40008813000000100240115800089800002070
:102A500090000020014800687047000098000020A6
:102A600000B5FFF7F7FF0549C968072212021140B8
:102A7000090A034A515CC84000BD00000010024032
:102A80002158000800B5FFF7E5FF0549C96807228E
:102A9000D2021140C90A034A515CC84000BD00007F
:102AA0000010024021580008FEB52E48C7680C20CF
:102AB0003840002845D0042804D008280CD00C2821
:102AC0003ED10BE02748006810210840002801D0C3
:102AD000254C00E0254C41E0254C3FE00F208004D0
:102AE0003840800C23490E5C032080053840800D5F
:102AF000401C01901B48C0680121090408400028BF
:102B000007D01B49714308460199FDF7F1FA0546C4
:102B100014E01448006810210840002807D012492A
:102B2000714308460199FDF7E3FA054606E00F49AF
:102B3000714308460199FDF7DBFA05462C460DE086
:102B400000BF08484068072149030840400B009037
:102B50000098401C01218140CC0300BF00BF2046EB
:102B6000FEBD00000010024000093D000024F400FA
:102B700000127A0029580008FEB50446002C01D145
:102B80000120FEBDF948C6680C210E40C76801212E
:102B900009040F402078C007C00F002872D0082E0B
:102BA00004D00C2E0FD1084687420CD1EF480068A4
:102BB000012149040840400C002863D060680028C7
:102BC00060D10120DDE700BF01210904606888426F
:102BD00005D1E64800680843E449086027E005217C
:102BE0000904606888420ED1E04800680121890428
:102BF0000843DE49086008460068012109040843CB
:102C0000DA49086013E0D9480068012109048843C3
:102C1000D649086008460068012109040840009070
:102C200000BFD248006889008843D049086000BFCF
:102C30006068002813D0FFF751FC054606E0FFF757
:102C40004DFC401B642801D903209AE7C74800685F
:102C5000012149040840400C0028F0D012E0FFF7A1
:102C60003DFC054606E0FFF739FC401B642801D90E
:102C7000032086E7BD480068012149040840400C54
:102C80000028F0D102212068084002287BD1E068AA
:102C90000290042E03D00C2E35D1002F33D1B3482F
:102CA0000068042108408008002804D00298002809
:102CB00001D1012065E7AD4840681F210902884322
:102CC000216909020843A9494860084600680921AA
:102CD000884302990843A5490860FFF7E5FEA34928
:102CE000C968F02211400909A14A515CC840A149B4
:102CF0000860A1480068FFF719FC019001980028BE
:102D000041D001983DE70298002824D097480068F8
:102D1000092188430299084394490860FFF7DEFBC4
:102D2000054606E0FFF7DAFB401B022801D9032025
:102D300027E78E4800680421084080080028F1D069
:102D40008A4840681F210902884321690902084313
:102D50008649486017E0854800684008400083497C
:102D60000860FFF7BBFB054606E0FFF7B7FB401B1B
:102D7000022801D9032004E77C48006804210840A8
:102D800080080028F1D1102120680840102868D15F
:102D9000002E37D17548006849010840400A0028D4
:102DA00004D0E069002801D10120EAE66F484068BC
:102DB000072149038843616A08436C494860084613
:102DC00040680002000A218C0906084367494860F0
:102DD000606A400B401C01218140C8036349C968F7
:102DE000F02211400909624A515CC84061490860FB
:102DF00061480068FFF79AFB0190019800284BD0CA
:102E00000198BEE6E06900282CD058480068FF21F0
:102E10000131084355490860FFF760FB054606E0AD
:102E2000FFF75CFB401B022801D90320A9E64F48AD
:102E30000068012149020840400A0028F0D04B48B0
:102E40004068072149038843616A0843474948604D
:102E5000084640680002000A218C090608434349DD
:102E6000486019E041480068FF21013188433F492B
:102E70000860FFF733FB054606E0FFF72FFB401B1A
:102E8000022801D903207CE6384800680121490264
:102E90000840400A0028F0D108212068084008288E
:102EA00039D1606900281BD03048403000690121C9
:102EB00008432E4940310861FFF710FB054606E044
:102EC000FFF70CFB401B022801D9032059E62748D5
:102ED000403000690221084040080028F0D01AE084
:102EE00022484030006940084000204940310861D4
:102EF000FFF7F4FA054606E0FFF7F0FA401B022858
:102F000001D903203DE619484030006902210840FC
:102F100040080028F0D104212068084004287BD113
:102F2000002000901148806B89060840002806D1D7
:102F30000E48806B08430D498863012000900F48BC
:102F40000068FF2101310840002820D10B480068AB
:102F500008430A490860FFF7C1FA054610E0FFF789
:102F6000BDFA401B64280BD903200AE6001002407A
:102F700011580008980000209000002000700040C8
:102F8000B1480068FF21013108400028E7D000BFA8
:102F9000FF210131A068884205D1AC48006908438F
:102FA000AA49086130E0A06800280DD1A74800694F
:102FB000FF2101318843A5490861084600690915C8
:102FC0008843A24908611FE005210902A0688842E0
:102FD0000DD19E4800690121890208439B4908617F
:102FE0000846006989150843984908610CE097482C
:102FF0000069FF210131884394490861084600694E
:10300000091588439149086100BFA068002815D0C0
:10301000FFF764FA054608E031E0FFF75FFA401B6E
:103020008B49884201D90320ABE58848006901211A
:1030300049020840400A0028EFD013E0FFF74EFA9B
:10304000054607E0FFF74AFA401B8149884201D94B
:10305000032096E57D480069012149020840400AA5
:103060000028EFD10098012808D178484038806BBB
:1030700001210907884375494039886300BF202131
:1030800020680840202852D1A06900282BD000BF1A
:103090006E4840388068012108436C494039886097
:1030A0000846406B01210843684940394863694834
:1030B000006A0121490308436649086200BFFFF71F
:1030C0000DFA054606E0FFF709FA401B022801D970
:1030D000032056E55D4840388068022108404008DA
:1030E0000028F0D023E000BF5848403880684008EE
:1030F00040005649403988605648006A012149031A
:1031000088435449086200BFFFF7E8F9054606E026
:10311000FFF7E4F9401B022801D9032031E54B48B1
:10312000403880680221084040080028F0D1A06A99
:1031300000284CD00C2E69D0A06A022848D1434800
:103140004038006801210906884340494039086039
:10315000FFF7C4F9054606E0FFF7C0F9401B022857
:1031600001D903200DE5394840380068012149069E
:103170000840400E0028EFD1216BE06A0843616BE4
:10318000084332494039C968FD221204914308437B
:103190002E494039C86008460068012109060843E5
:1031A0002A4940390860FFF799F9054606E0FFF71C
:1031B00095F9401B022801D90320E2E42348403856
:1031C0000068012149060840400E0028EFD038E091
:1031D0001E48403800680121090688431B494039D0
:1031E0000860FFF77BF9054606E0FFF777F9401B1B
:1031F000022801D90320C4E41448403800680121A2
:1032000049060840400E0028EFD11AE0A06A0128C4
:1032100000D1B6E40D484038C768012000043840AA
:10322000E16A88420BD10F2080043840216B88422C
:1032300005D1032080053840616B884201D0012010
:103240009FE400209DE40000007000404010024018
:10325000881300000000014070B504462546681E32
:103260000949884201D901200CE0681E07494861DC
:103270000321081F01F0E2FA0020044988610720B9
:103280000861002070BD0000FFFFFF0000E000E0CB
:103290007047704770470000F0B585B0044620685D
:1032A000C5692068066820688768F8482840039048
:1032B000039800280FD12020284000280BD0202080
:1032C0003040002807D0A06E002802D02046A16E12
:1032D000884705B0F0BD039800287DD0F807C00FDF
:1032E000002803D1EA4830400028F6D0E807C00F94
:1032F00000280DD0FF2001303040002808D00120E8
:103300002168086284200059012108438421085162
:103310000220284000280CD0F807C00F002808D051
:103320000220216808628420005904210843842176
:1033300008510420284000280CD0F807C00F0028AE
:1033400008D0042021680862842000590221084323
:103350008421085108202840002810D02020304027
:10336000002803D1F807C00F002808D008202168E2
:103370000862842000590821084384210851012053
:10338000C002284000280ED00120800630400028CE
:1033900009D00120C0022168086284200059202140
:1033A00008438421085184200059002854D020204B
:1033B0002840002809D020203040002805D0A06EE9
:1033C000002802D02046A16E884784200059029030
:1033D00020688068402100E03FE00840402804D099
:1033E000282102980840002830D0204600F0A8FD8F
:1033F0002068806840210840402823D100BF01F0A8
:1034000059FA0190012001F067FA20688068402194
:10341000884321688860019801F05EFA00BF606F00
:1034200000280BD09B48616F8863606FFEF756FEE3
:10343000002811D0606F816B88470DE02046FFF7B0
:1034400029FF09E02046FFF725FF05E02046FFF7AA
:1034500021FF0021842001513BE7206E01287DD10E
:1034600010202840002879D0102030400028FAD0C1
:1034700010202168086220688068402108404028A8
:103480006DD1606F0068406880B20190019800289B
:103490006BD05820015B0198814266DD5A2101986A
:1034A0000853606F006800682021084000284CD154
:1034B00000BF01F0FFF90090012001F00DFA206833
:1034C0000068FF210131884321680860009801F0FD
:1034D00003FA00BF00BF01F0EDF90090012001F0F8
:1034E000FBF92068806840084000216888600098E7
:1034F00001F0F2F900BF00BF01F0DCF900900120FB
:1035000001F0EAF9206880684021884321688860DA
:10351000009801F0E1F900BF202180200151002036
:10352000206600BF01F0C6F90090012001F0D4F937
:10353000206800681021884321680860009801F025
:10354000CBF900BF606FFEF79DFD0220606658203A
:10355000025B5A20005B101A81B202E068E018E0BA
:1035600003E02046FFF794FE12E05820015B01982B
:1035700081420DD1606F006800682021084020283A
:1035800006D1022060665820015B2046FFF780FECE
:103590009FE65820015B5A20005B081A80B2019018
:1035A0005A20005B002842D0019800283FD000BF7D
:1035B00001F080F90090012001F08EF92068006888
:1035C000FF212131884321680860009801F084F9C7
:1035D00000BF00BF01F06EF90090012001F07CF9FE
:1035E000206880684008400021688860009801F0E9
:1035F00073F900BF20218020015100202066A066C1
:1036000000BF01F057F90090012001F065F9206832
:1036100000681021884321680860009801F05CF977
:1036200000BF0220606620460199FFF731FE50E698
:1036300001200005284000280CD0012080053840DA
:10364000002807D001200005216808622046FFF706
:1036500020FE3EE68020284000280AD0802030400E
:10366000002806D0E06E002802D02046E16E884790
:103670002FE64020284000280ED04020304000286F
:103680000AD0204600F09CFC23E600000F08000052
:10369000200100042D3F000800BF1AE610B50446C3
:1036A000002C01D1012010BDA069002800D000E04D
:1036B00000BFE06F002805D1002178200155204689
:1036C00000F02CF82420E0672068006840084000E3
:1036D00021680860606A002802D0204600F02DFBB7
:1036E000204600F0B9FD012800D1DCE720684068E1
:1036F0000921C902884321684860206880682A211E
:103700008843216888602068006801210843216897
:103710000860204600F08AFBC5E7000010B586B0BF
:103720000446142101A8FCF742FD31492068884273
:103730002BD13048406B0121890308432D49486350
:1037400000BF0846C06A022108432A49C8620846E9
:10375000C06A02210840009000BF00BFC020019055
:103760000220029000200390032004900020059086
:1037700001A92148FEF7BAFD002211461B20FEF7E1
:103780001DFF1B20FEF70CFF2FE01C49206888421C
:103790002BD11848806B01214904084315498863DF
:1037A00000BF0846C06A012108431249C8620846A2
:1037B000C06AC007C00F009000BF00BF0C2001907E
:1037C0000220029000200390032004900420059022
:1037D00001A905200007FEF789FD002211461C20E3
:1037E000FEF7ECFE1C20FEF7DBFE06B010BD00006D
:1037F0000038014000100240000400500044004026
:10380000F8B504460D46164680200059202838D1C8
:10381000002D01D0002E01D10120F8BD01210903A6
:10382000A068884208D12069002805D1E807C00FA8
:10383000002801D00120F0E700202066124920680E
:10384000884218D0206840680121C9050840002836
:1038500011D000BF01F02EF80746012001F03CF81E
:1038600020680068012189060843216808603846FD
:1038700001F032F800BF32462946204600F074FEBF
:10388000CBE70220C9E700000048004070B50446BD
:1038900026492068884221D1254805782548018895
:1038A0000088401C234A1080234845541046008855
:1038B0004B21C900884202DB0020114608801D48C8
:1038C00000881E490988884202DB01201C490870D3
:1038D000012217491B48FFF793FF26E01A49206889
:1038E000884222D1194805780020194908701948E2
:1038F00001880088401C174A10801748455410461C
:1039000000884B21C900884202DB00201146088054
:1039100010480088052802DB01200D4908700122AB
:103920000A490E48FFF76CFF00BF70BD0038014028
:103930008800002080000020220400208400002055
:103940006A00002008010020004400408900002097
:1039500087000020820000207A06002090010020CD
:10396000FFB583B004460D461746E06F202869D1A5
:10397000002D01D0002F02D1012007B0F0BD0121A0
:103980000903A068884208D12069002805D1E8070A
:10399000C00F002801D00120EFE700218420015151
:1039A0002120E067FEF79AFD019050200753522036
:1039B000075301210903A068884205D12069002826
:1039C00002D10026029502E02E460020029023E05C
:1039D00006980090002280212046019B00F054FEB2
:1039E000002803D02020E0670320C6E7002E09D17D
:1039F00002980088C005C00D216888620298801C6A
:103A0000029003E0307821688862761C5220005BC7
:103A1000401E81B2522001535220005B0028D7D1B2
:103A200006980090002240212046019B00F02CFEC9
:103A3000002803D02020E06703209EE72020E067D5
:103A400000209AE7022098E7704700BFFEE700BF1A
:103A5000FEE77047FCB504460D46002600200190A5
:103A60000C2D00DAFCBD28460C38265C401C205C7E
:103A7000019004204D49087007204870A2208870EA
:103A8000FE20C87008460671019848710420484914
:103A9000087007204870A2208870FF20C870A520F9
:103AA00008715A20487143480078022811D100203B
:103AB0003E49087148712C2088711720C871282050
:103AC0003B490872012088710320C87128203749BA
:103AD00008722D2D25DB37480078022821D10021DE
:103AE000344A11702921095D09062A22125D120447
:103AF00011432B22125D120211432C22125D11433D
:103B0000084600280CD02C490968884208D02A4B66
:103B10001860010C82B20B465340284F3B8000BF17
:103B2000A0E72448007800281AD12C202049887169
:103B30000320C87122A0006800900846C179684639
:103B400001701B488179684641701C480288042135
:103B5000684601F087FC07460120164908701EE000
:103B60001448007801281AD12920114988710320AE
:103B7000C87113A0006800900846C17968460170BA
:103B80000B488179684641700C48028804216846D8
:103B900001F068FC074600200649087000BF282095
:103BA000024908720249087200BF5BE74600002024
:103BB0004F0000206600002040000020440000204C
:103BC00000005AA500B589B00A20214908600020EC
:103BD00020490870204908602049087001214902E5
:103BE0001F48FCF7E4FA00201E49088024E01A4828
:103BF0000068012800D127E0FCF7C8FD16480068DE
:103C0000012804D118A0FDF7E1FE09B000BD11485C
:103C1000007800280DD1104803680D4816A10268ED
:103C200001A800F0B9FD01A8FDF7D0FE19A0FDF72D
:103C3000CDFE0120FEF780FA05480068002803D079
:103C4000054800680028D2D000BF00BFDDE70000B3
:103C50007C000020720000207800002087000020F7
:103C600018020020680000205265616420646F6EB5
:103C7000652E0D0A0D0A00005245545259203A2073
:103C800025642020205354415445203A2025640DBA
:103C90000A0D0A000D0A0D0A00000000704710B559
:103CA000FEF722FC10BD000000B59BB038210DA826
:103CB000FCF77DFA142108A8FCF779FA2021684660
:103CC000FCF775FA1B4800680321C90288430121EB
:103CD000C90240181749086002200D900120109079
:103CE00010201190002017900DA8FEF745FF002826
:103CF00001D0FEF7DDF80F20089001200990002088
:103D00000A900B900C90002108A8FEF789FD00286E
:103D100001D0FEF7CDF80320009000200290039020
:103D20006846FEF755FC002801D0FEF7C1F81BB02D
:103D300000BD00000070004070470822416A114039
:103D4000082907D10168496812039143426B114366
:103D500002685160818CC907C90F002908D0016829
:103D60004968012252049143826A114302685160FA
:103D70000222416A1140022907D101684968D20331
:103D80009143C26A1143026851600422416A1140A2
:103D9000042907D10168496812049143026B114359
:103DA000026851601022416A1140102907D1016850
:103DB000896812029143826B11430268916020224C
:103DC000416A1140202907D1016889681202914394
:103DD000C26B1143026891604022416A1140402940
:103DE00015D10168496892039143026C114302683E
:103DF000516001221205016C914208D101684968A5
:103E0000032252059143426C1143026851608022A3
:103E1000416A1140802907D1016849681203914322
:103E2000826C11430268516070470000F8B5044687
:103E3000002184200151FEF751FB054620680068EF
:103E400008210840082823D137482B46002289043E
:103E50000090204600F018FC002819D000BF00F0A8
:103E600029FD0646012000F037FD2068006880210A
:103E7000884321680860304600F02EFD00BF2020F6
:103E8000E06700BF00217820015500BF0320F8BD86
:103E90002068006804210840042836D122482B46B7
:103EA000002209050090204600F0EEFB00282CD0EF
:103EB00000BF00F0FFFC0646012000F00DFD206869
:103EC0000068FF212131884321680860304600F0F6
:103ED00003FD00BF00BF00F0EDFC0646012000F02E
:103EE000FBFC2068806840084000216888603046FC
:103EF00000F0F2FC00BF20218020015100BF002112
:103F00007820015500BF0320C1E72020E067202171
:103F10008020015100202066606600BF00217820CB
:103F2000015500BF0020B2E7FFFFFF0170B5044656
:103F3000A56A00215A2041532846FFF7ABF970BD0E
:103F400070B5044600BF00F0B5FC0546012000F046
:103F5000C3FC20680068FF21213188432168086084
:103F6000284600F0B9FC00BF00BF00F0A3FC0546E6
:103F7000012000F0B1FC2068806840084000216802
:103F80008860284600F0A8FC00BF206E012810D1F0
:103F900000BF00F08FFC0546012000F09DFC20686A
:103FA00000681021884321680860284600F094FCCE
:103FB00000BF20218020015100202066A06670BD36
:103FC00070B5044600BF00F075FC0546012000F006
:103FD00083FC2068006840218843216808602846E7
:103FE00000F07AFC00BF2020E0670020E066204659
:103FF000FFF72AFD70BD0000F8B504465C20075BA2
:104000008020005922287CD12068406A86B2656DE4
:10401000304638402880606D801C60655A20005B07
:10402000401E81B25A200153005B002878D100BFA6
:1040300000F040FC0090012000F04EFC2068006879
:10404000FF212131884321680860009800F044FC7A
:1040500000BF00BF00F02EFC0090012000F03CFCEF
:10406000206880684008400021688860009800F05F
:1040700033FC00BF2021802001510020A066606633
:1040800028492068884218D0206840680121C90565
:104090000840002811D000BF00F00CFC0090012067
:1040A00000F01AFC20680068012189068843216815
:1040B0000860009800F010FC00BF206E012825D198
:1040C0000020206600BF00F0F5FB0090012000F00A
:1040D00003FC20680068102188432168086000986C
:1040E00000F0FAFB00BF2068C069102108400009F9
:1040F000002802D01020216808625820015B204669
:1041000001E007E00CE0FFF7C3F809E02046FFF705
:10411000BDFB05E0206880690821084321688861AB
:10412000F8BD000000480040F8B504465C20065B7E
:104130008020005922287CD12068406A85B2F0B2E4
:104140002840616D0870606D401C60655A20005BFE
:10415000401E81B25A200153005B002878D100BF75
:1041600000F0A8FB0746012000F0B6FB20680068BD
:10417000FF212131884321680860384600F0ACFBFC
:1041800000BF00BF00F096FB0746012000F0A4FB33
:10419000206880684008400021688860384600F048
:1041A0009BFB00BF2021802001510020A06660669B
:1041B00028492068884218D0206840680121C90534
:1041C0000840002811D000BF00F074FB0746012012
:1041D00000F082FB2068006801218906884321687D
:1041E0000860384600F078FB00BF206E012825D11A
:1041F0000020206600BF00F05DFB0746012000F0B4
:104200006BFB2068006810218843216808603846ED
:1042100000F062FB00BF2068C0691021084000095F
:10422000002802D01020216808625820015B204637
:1042300001E007E00CE0FFF72BF809E02046FFF76C
:1042400025FB05E020688069082108432168886112
:10425000F8BD000000480040F0B587B004460020DB
:104260000390B8492068884200D100E000BF21696E
:10427000A068084361690843E16908430590206824
:104280000068B14908400599084321680860206822
:104290004068032109038843E168084321684860B6
:1042A000A0690590A7492068884203D0206A059933
:1042B00008430590206880680B210902884305990E
:1042C00008432168886000BFA0492068884217D150
:1042D0009F48C0688007800F002806D0012808D0BA
:1042E000022804D0032808D105E0012607E00226B1
:1042F00005E0042603E0082601E0102600BF3BE0AD
:1043000094492068884217D19148C0680C21084020
:10431000002806D0042808D0082804D00C2808D18A
:1043200005E0002607E0022605E0042603E0082653
:1043300001E0102600BF1FE08249206888421AD1A0
:104340008348C068032189020840002808D0012161
:104350008902401A08D0401A04D0401A08D105E05A
:10436000002607E0022605E0042603E0082601E017
:10437000102600BF00E0102600BF72492068884266
:1043800051D1002E06D0022E08D0042E12D0082EB5
:1043900017D113E0FEF764FB054616E06C48403881
:1043A0000068102108400009002801D06A4D00E093
:1043B0006A4D0AE0FEF778FB054606E00125ED03AD
:1043C00003E000250120039000BF00BF002D0AD0AC
:1043D000606841004018A84203D860680003A84202
:1043E00002D201200390A7E0606802902846FF21D6
:1043F000013100F0FCF9626852080023801859412D
:1044000001910090029AFBF789FE074603210902F9
:104410008F4205D35248874202D82068C7608BE09C
:104420000120039088E00121C903E069884247D157
:10443000330000F0F4F909060A0E211A2121211E89
:104440002100FEF70DFB05461AE0FEF71BFB0546B3
:1044500016E03F4840380068102108400009002855
:1044600001D03D4D00E03D4D0AE0FEF71DFB054645
:1044700006E00125ED0303E000250120039000BFC5
:1044800000BF002D58D06A0063685B08D0186168CF
:10449000FBF72EFE0746102F0FD3324887420CD869
:1044A00030480F38384004903807400F04990843CB
:1044B000049004982168C8603EE0012003903BE02E
:1044C000330000F0ACF909060A0E211A2121211E41
:1044D0002100FEF7C5FA05461AE0FEF7D3FA0546B5
:1044E00016E01B48403800681021084000090028E9
:1044F00001D0194D00E0194D0AE0FEF7D5FA054646
:1045000006E00125ED0303E000250120039000BF34
:1045100000BF002D10D061684A085019FBF7E8FD74
:104520000746102F06D30F48874203D8B8B2216838
:10453000C86001E0012003900020A066E0660398B7
:1045400007B0F0BD00480040F369FFEF00380140BC
:10455000401002400044004000093D000024F400E7
:10456000FFFF0F00FFFF0000F8B504460E4615469A
:104570006665582005535A2005530020A06600BFE9
:1045800001210903A06888420AD12069002803D1CB
:104590003A495C20015324E0FF215C20015320E0D4
:1045A000A06800280AD12069002803D1FF215C20DF
:1045B000015316E07F215C20015312E0012109071D
:1045C000A06888420AD12069002803D17F215C209D
:1045D000015306E03F215C20015302E000215C20F2
:1045E000015300BF0021842001512221802001516C
:1045F00000BF00F05FF90746012000F06DF9206868
:1046000080680121084321688860384600F064F919
:1046100000BF01210903A068884205D12069002854
:1046200002D11748A06601E01648A066206900285C
:1046300011D000BF00F03EF90746012000F04CF910
:1046400020680068FF21213108432168086038464E
:1046500000F042F910E000BF00F02CF907460120FD
:1046600000F03AF9206800682021084321680860BA
:10467000384600F031F900BF0020F8BDFF0100000E
:10468000F93F000829410008FFB581B004460D46F6
:1046900017460A9E46E0701C002843D0FDF71EFF17
:1046A0000499401AB04201D8002E02D1032005B06F
:1046B000F0BD2068006804210840002832D0802D19
:1046C00030D0402D2ED02068C06908210840C00895
:1046D00000280FD00820216808622046FFF730FC30
:1046E00008218420015100BF00217820015500BF1E
:1046F0000120DCE72068C0690121C9020840C00A26
:1047000000280FD00846216808622046FFF718FCF1
:1047100020218420015100BF00217820015500BFD5
:104720000320C4E72068C0692840A84201D10120C5
:1047300000E00020B842AED00020B8E710B5024833
:10474000FEF7AAFD10BD00000801002010B50248C8
:10475000FEF7A2FD10BD00009001002010B5044638
:104760000A48007800280BD1FDF7B8FE084909680F
:10477000401AA04202D9002006490870002010BD4E
:104780000020024908700120F9E700006A000020BB
:104790006C000020720000200FB410B504A9074B74
:1047A00002AA039800F056F9044602A9002000F07E
:1047B000EDFC204610BC08BC04B018478D51000821
:1047C0002021020C01D010211046020A01D010460F
:1047D0000839020901D01046091F820801D010468D
:1047E000891E420801D0881E7047081A7047F8B524
:1047F00082B28BB2040C0D0C1046584300212646A1
:104800005E43370C36048019794116466E43370CE7
:1048100036048019794126466E438919F8BD30B4B3
:104820007446641E2578641CAB4204D3635D5B0050
:10483000E31830BC18471D46F8E7000010B5002803
:1048400019DB1A4A03231B02D21883089B00D25893
:104850008307DC0EFF23A3409A438B071B0E8407BC
:10486000E40EA3401A43114B032424021B198408AD
:10487000A4001A5118E00E4A03071B0F083B9B08BF
:104880009B00D2588307DC0EFF23A3409A438B077B
:104890001B0E8407E40EA3401A43054B0407240FA4
:1048A000083CA408A4001A5110BD000000E100E07B
:1048B0001CED00E0EFF31080704702E008C8121F03
:1048C00008C1002AFAD170477047002001E001C1F9
:1048D000121F002AFBD1704780F310887047000038
:1048E000F0B51FB486B00998089A030D0021024361
:1048F00014D05148514A18185043051411980128F2
:1049000010981AD0281A401C00264D4F4D49009689
:1049100001910490002812DA444211E01198012418
:1049200049A3012801D11098C1430698119A8460C7
:104930000360C26041600BB0F0BD4042E4E7044652
:10494000210500203F4A001C51410391029012E0D2
:10495000E00707D032463B4601990098FBF77EFD01
:104960000191009032463B4610461946FBF776FD12
:1049700006460F466410002CEAD10498039B0028D9
:10498000029A0999089806DAFBF768FD019B009ADC
:10499000FBF764FD05E0FBF7C9FD019B009AFBF7FF
:1049A000C5FD04460E460022284BFBF757FE03D8F0
:1049B0000020C043014607E00022254B2046314637
:1049C000FBF79AFCFBF72AFE102409E0002C0ADB17
:1049D0000A220023FBF7A2FB079B30321A55641E04
:1049E00002460A43F2D11122641C079B121B1C19B8
:1049F000119B012B03D0012308430ED10AE0084389
:104A000004D0112010900020119077E71098151A0B
:104A10006D1E0BE01098824202DD00236D1C03E046
:104A2000824201DA00236D1E002BEED00698119908
:104A30008260C16030C07EE701FCFFFF104D0000C6
:104A4000000014400000F03F300000000000F04380
:104A50000000E03FFFB597B00646002518E2252884
:104A600077D100242746FD49049400E00443761CD6
:104A700032780120203A90400842F7D130782A2835
:104A80000ED00222307801463039092916D804990F
:104A90000A235943303940181443761C0490F1E737
:104AA000189802C804911890002904DA01204003E4
:104AB00004434842049002200443761C30782E2898
:104AC00014D1042004437078761C2A2809D1189840
:104AD000761C80C8189009E00A214F43303FC7195F
:104AE000761C3078014630390929F5D930786C28A0
:104AF00010D006DC4C281AD068280ED06A2817D1AE
:104B000004E0742813D07A2812D110E00120400567
:104B100004430CE00121090501E0032109050C43D0
:104B20007178814203D1012000052418761C761C7F
:104B30003078119066280BD013DC58287DD009DC22
:104B400000287BD04528F6D04628F4D047281AD133
:104B5000A5E118E0632835D0642870D0652812D10B
:104B60009DE170286CD008DC6728F1D069287BD0E3
:104B70006E280DD06F2806D1BAE073282ED0752884
:104B800071D0782859D01A9A199990476D1C7EE1F6
:104B90006002400F022809D003280DD0042818987D
:104BA00001680DD00D60001D189070E11898EA178B
:104BB00001680D604A60F6E7189801680D80F2E719
:104BC0000D70F0E718986A4601781172001D189070
:104BD0000020507202A80090012005E0189802C839
:104BE000189000200091C04361070DD5002101E01D
:104BF0000199491C0191B94212DA8142F8DB009A0D
:104C0000515C0029F4D10BE0002101E00199491C1D
:104C100001918142FADB019A0099895C0029F5D162
:104C2000019904981A9B471A21463846199A00F0B0
:104C300097FA0199401945180BE04FE02CE113E079
:104C40004EE0009800990078491C00911A9A199931
:104C500090470198401E0190401CF2D121463846F1
:104C60001A9B199A10E137E00A2000210090019167
:104C70006002410F022907D0189A01CA1892C21780
:104C80009446032908D00AE01898C01DC108C9003D
:104C900005C91891944607E000B2C217944604294A
:104CA00002D140B2C1178C4600226146944506DA13
:104CB0000A460021404291418C462D2102E0210507
:104CC00004D52B216A461173012103E0E10701D0CD
:104CD0002021F7E7029155E00A200AE0102008E0C1
:104CE000102000900021042004430191082703E0D4
:104CF00008200021019100906002410F022907D095
:104D0000189A01CA189200229446032908D008E094
:104D10001898C01DC108C90005C91891944603E040
:104D200080B2042900D1C0B200210291210729D507
:104D30001199702906D0009A1021019B4A401A430C
:104D400005D00EE040216A461173012108E061465A
:104D5000014306D030216A46117311995173022123
:104D60000291009A0821019B4A401A430AD16146E8
:104D7000014301D1610705D530216A461173012134
:104D80007F1E02911199582904D035A10E910DA9C9
:104D90000D910DE037A1F9E76146019B009AFBF701
:104DA000BDF90E9B8C469B5C0D9A521E0D921370A2
:104DB00061460143F0D10D9805A9081A20300190F1
:104DC000600703D501200004844300E00127019817
:104DD000874201DD381A00E0002001990090411857
:104DE000029809180498401A0490E00306D421465A
:104DF0001A9B199A049800F0B3F94519002706E0A8
:104E000003A81A9AC05D199990476D1C7F1C0298DF
:104E10008742F5DBE0030CD521461A9B199A0498CA
:104E200000F09EF9451904E01A9A3020199990472C
:104E30006D1C0099481E00900029F5DC08E00D98D3
:104E40000D990078491C0D911A9A199990476D1C7B
:104E50000199481E01900029F1DC63E10928010055
:104E600030313233343536373839616263646566E0
:104E700000000000303132333435363738394142A2
:104E8000434445460000000000F05AF94519761CDD
:104E90003078002800D0E2E528461BB0F0BD60075E
:104EA00000D406271898C01DC108C90048680A68C0
:104EB0000831C30FDB071891190001D09CA108E04D
:104EC000210501D59BA104E0E10701D09AA100E0F2
:104ED0009AA1430011985B08109165280CD006DC5C
:104EE000452809D046281DD0472841D141E06628F1
:104EF00018D067283CD13CE00021112F01DB1120A4
:104F000000E0781C0191009008A911A8FFF7E8FCC7
:104F1000139905910021119A15927F1C12980197FF
:104F2000009150E00120C00703900120019008A9E2
:104F3000009711A8FFF7D4FC139A14990592002248
:104F4000119B009212981593059A0192002901D0A5
:104F5000104602E0791C40180190381A01D50198DA
:104F600004E04042401E0090781C0190C01B02905B
:104F700043E0012F00DA01270021112F01DD11206C
:104F800000E038460191009008A911A8FFF7A8FC9D
:104F900013990591119A0021129815920091019789
:104FA00021070CD40599B94201DB019900E0019178
:104FB000012904DD159A491E515C302906D0B842FA
:104FC00001DA011D05DA0121029115E00199491E5E
:104FD000EDE7002805DC0099411800910199091AB4
:104FE00003E0019A411C914200DD01910099401AB1
:104FF000401C02900120C0070390200706D40299AC
:105000000198814202DB0020C043029000206946E3
:10501000C87707AF012103980337C907884224D016
:10502000022011902B201290039800280CDA4042A5
:1050300003902D20129007E00A210398FBF758F8FF
:1050400030317F1E039039701199481E119000294C
:10505000F2DC03980028EFD1791E1298087030789E
:10506000202108404530BF1E387006A8C01BC01D57
:10507000039010980078002800D001200199411871
:105080000298C0170918039809180498401A401E7E
:105090000490E00306D421461A9B199A049800F064
:1050A0005FF8451910980078002803D01A9A1999CA
:1050B00090476D1CE00324D521461A9B199A049849
:1050C00000F04EF845191CE00098002807DB009915
:1050D0000598884203DD1598405C199901E01999FB
:1050E00030201A9A904700986D1C401C009002983E
:1050F000401E0290002804D11A9A2E201999904738
:105100006D1C0199481E01900029DDDC05E038780E
:105110001A9A7F1C199990476D1C0399481E039099
:105120000029F4DC21461A9B199A0498ACE6000089
:105130002D0000002B0000002000000000000000F7
:10514000F8B5044600251E461746880404D405E039
:1051500039462020B0476D1C641EF9D52846F8BD9D
:10516000FFB50446002581B01E46C80301D530278F
:1051700000E02027880404D505E038460399B047AD
:105180006D1C641EF9D5284605B0F0BD0A68531C95
:105190000B60107070470000F8B50546002400F061
:1051A000F3FA00900098FF2802D00098002801D15F
:1051B0000120009000BF9848008802122046611C20
:1051C0008CB22A54944802782046611C8CB22A542E
:1051D00000BF00BF9148008802122146601C84B2C3
:1051E0006A548E4802782146601C84B26A5400BF1B
:1051F00000BF8B48008802122146601C84B26A54AA
:10520000874802782046611C8CB22A5400BF00BF38
:105210008448008802122146601C84B26A54814886
:1052200002782146601C84B26A5400BF00BF7E48E9
:10523000008802122146601C84B26A547A480278BF
:105240002046611C8CB22A5400BF00BF77480088FA
:1052500002122146601C84B26A54744802782046C7
:10526000611C8CB22A5400BF00BF71480088021232
:105270002046611C8CB22A546D4802782046611C7D
:105280008CB22A5400BF6B4903C9FAF7B6FF064631
:1052900000BF3046010E2246631C9CB2A954010295
:1052A0000A0E2146631C9CB26A5401040A0E214670
:1052B000631C9CB26A542146631C9CB2685400BFB4
:1052C0005D4903C9FAF799FF064600BF3046010E53
:1052D0002246631C9CB2A95401020A0E2146631C9B
:1052E0009CB26A5401040A0E2146631C9CB26A54A3
:1052F0002146631C9CB2685400BF504903C9FAF7A9
:105300007CFF064600BF3046010E2246631C9CB25D
:10531000A95401020A0E2146631C9CB26A5401047E
:105320000A0E2146631C9CB26A542146631C9CB23F
:10533000685400BF00BF42490868010E2246631C42
:105340009CB2A95401020A0E2146631C9CB26A5405
:1053500001040A0E2146631C9CB26A542146631C58
:105360009CB2685400BF00BF36490868010E22464F
:10537000631C9CB2A95401020A0E2146631C9CB214
:105380006A5401040A0E2146631C9CB26A542146E9
:10539000631C9CB2685400BF00BF2B490868010E13
:1053A0002246631C9CB2A95401020A0E2146631CCA
:1053B0009CB26A5401040A0E2146631C9CB26A54D2
:1053C0002146631C9CB2685400BF00222046611C29
:1053D0008CB22A542046611C8CB22A5404E000226C
:1053E0002046611C8CB22A54642CF8DB64212846C8
:1053F00000F0AAF907462046611C8CB22F543812DF
:105400002146621C94B2685410A0FCF7DFFA2146D2
:105410002846FCF7EBFAF8BD00000020020000204F
:105420000400002006000020080000200A000020E0
:105430000C00002010000020180000202000002098
:10544000280000202C000020300000200D0A5458B5
:1054500020737472696E6720746F206D6F6462755B
:10546000733A2000F8B503460C46104611490091E6
:10547000002116E05D5C2D02684000250DE001264C
:10548000F6030640002E04D046000A4F7E40B0B21C
:1054900001E04604300C6E1CF5B2082DEFDB4D1C0C
:1054A000E9B2A142E6DB044DE8710104090EA971DD
:1054B000F8BD00002110000046000020F0B58DB0BE
:1054C0000446277860780C9038A0FCF77FFA012119
:1054D0000CA8FCF78BFA37A0FCF778FA364800786E
:1054E000874206D0002F04D034A0FCF76FFA0DB02D
:1054F000F0BDA0790002E17908430B900621204617
:1055000000F022F9064633A0FCF760FA324635A1D6
:1055100003A8FFF741F903A8FCF758FA0B98B0422B
:1055200003D035A0FCF752FAE1E708A8007C062872
:105530003AD134A0FCF74AFAA0780002E178084397
:1055400002902079000261790843054602980128FB
:1055500029D130A0FCF73AFA012D24DBF72D22DC0B
:1055600030A0FCF733FAE8B200F030F912490D70C0
:105570000621204600F0E8F801900198A0710198FA
:105580000012E0716423082221462C48FEF7E8F956
:105590002BA0FCF71BFA01210748FCF727FA05A00E
:1055A000FCF714FA00BF00BF00BFA0E746756E63AA
:1055B0003A2000000D0A00003400002057726F6E80
:1055C0006720536C61766520416464726573730D66
:1055D0000A00000045787065637465642043524397
:1055E0003A2000004352432063616C633A203078D4
:1055F000253034580D0A0000435243204572726F23
:10560000720D0A0046756E6374696F6E2030360D38
:105610000A0000005265676973746572204F4B0D74
:105620000A00000057726974696E67206E65772002
:10563000616464726573730D0A0000000801002044
:105640004E65772041646472205365743A200000EF
:105650001CB5FCF755FFFEF727FBFCF76BF9FCF7D1
:10566000EDF96420FCF768FD24A0FCF7AFF900F029
:105670008BF80190012101A8FCF7B8F9FEF7A2FA16
:105680003BE0012221492248FEF7BAF82148007880
:10569000002832D000201F49087064231E48028869
:1056A0001E491B48FEF75CF91DA0FCF78FF91A484C
:1056B00001881A48FCF79AF91848407806280DD155
:1056C0001648FFF7FBFE19A0FCF780F900F05CF824
:1056D000009001216846FCF789F904E000200E499A
:1056E0000880FEF76FFA00200B490880FEF76AFA7F
:1056F0004B21C9000948FAF75AFDC2E7536C61769D
:105700006520616464726573733A2000890000202B
:105710009001002087000020820000207A060020EF
:1057200044454255472052583A200000536C617658
:10573000652041646472657373204368616E6765B8
:1057400064206E65773A200070B502460B460C481F
:10575000002112E0545C604000240AE0C507ED0F10
:10576000002D04D04510074E7540284600E040103B
:10577000641C082CF2DB4C1CA1B29942EADB70BD20
:10578000FFFF000001A0000005480178FF2903D0B9
:10579000002901D0F72901DD012070470846FCE708
:1057A000007C000810B50246002009E0135C4C1E86
:1057B000241A145D14544C1E241A1355431C98B219
:1057C000CC0F641864108442F0DC10BD7FB5044631
:1057D000FCF746FD0020019008480290012003904C
:1057E000694601A8FCF7BEFC25462A46034902206B
:1057F000FCF70EFDFCF7FCFC7FBD0000007C000800
:1058000030313233343536373839414243444546F6
:105810000000000000000000000102030406070869
:10582000090000000001020304030406080C10181C
:105830002030000054580008000000209C000000A8
:10584000BA480008F05800089C000020540C0000E2
:10585000CA4800080000000000000000000000002E
:105860000000000000000000000000000000000038
:105870000000000000000000000000000000000028
:105880000000000000000000000000000000000018
:10589000000000000000000000000407A2FE00005D
:1058A0002C17280407A2FFA55A010328676F4C652F
:1058B0006D756C6F56796C696144020000000000E0
:1058C00000000000000000000300000000000000D5
:1058D0000A000000000000000000000000000000BE
:1058E0000000000004000000010000000000200093
:04000005080000C12E
:00000001FF
