:020000040800F2
:10000000F00C0020D5000008B33A0008AF3A000811
:1000100000000000000000000000000000000000E0
:10002000000000000000000000000000553D000836
:100030000000000000000000B73A0008573D00082B
:10004000E7000008E7000008E7000008E7000008F4
:10005000E7000008E7000008E7000008E7000008E4
:10006000E7000008E7000008E7000008E7000008D4
:10007000E7000008E700000800000000E7000008B3
:1000800000000000E7000008000000000000000081
:10009000E700000800000000E7000008E700000893
:1000A000E7000008E7000008E7000008F54700083F
:1000B00005480008E700000800000000E70000080D
:1000C0000348854600F0DEFA00480047095700085B
:1000D000F00C00200448804704480047FEE7FEE794
:1000E000FEE7FEE7FEE7FEE7F13D0008C10000087D
:1000F00030B50B46014600202022012409E00D46C0
:10010000D5409D4205D31D469540491B2546954047
:1001100040191546521E002DF1DC30BDF0B51FB45C
:100120000646002082B005464024019100901BE065
:10013000019922460F46304600F08BF8049A059B41
:10014000801A994110D310461946224600F071F8E2
:10015000361A8F410197224601200021009F00F0AE
:1001600068F838184D4100902046641E0028DFDCF6
:10017000019B00982946324607B0F0BD03460B4369
:100180009B0703D009E008C9121F08C0042AFAD24D
:1001900003E00B780370401C491C521EF9D27047D3
:1001A000D2B201E00270401C491EFBD2704700220F
:1001B000F6E710B513460A4604461946FFF7F0FF66
:1001C000204610BD421C0178401C0029FBD1801A3A
:1001D0007047C20FD207400040080BD0C10D072363
:1001E000DB01C91840020905400A1143C208400753
:1001F00011437047002001467047CB0FDB074900D1
:1002000010B5490802460A4307D00A0D072409031E
:10021000E401090B121B002A01DC002010BDC900FB
:10022000440F0C43C100E018D205801800F022F8FA
:1002300010BD10B5202A04DB0146203A9140002071
:1002400010BD914020239C1A0346E340194390407F
:1002500010BD10B5202A04DB0846203AD04000210A
:1002600010BD0B46D340D0402024A21A9140084331
:10027000194610BD002904DA401C490001D140088C
:100280004000704770B40024050C05D11024000410
:1002900002D1002921D01124050E01D10002083419
:1002A000050F01D10001241D850F01D18000A41C80
:1002B000002801DB4000641C002908D020252E1BEB
:1002C0000D46F540A14000D0012129430843010615
:1002D0001B1B000ADB1D02D5002070BC7047DB052C
:1002E000181880180029F8DA401C4900F5D170BCB4
:1002F0004008400070470000F0B5074608465840E7
:1003000087B0C00F049048000E46590040084908C5
:10031000BC1A884105D2384631461E4617460B4660
:1003200002465800400810434CD0300D0390400561
:100330005900400D490D0590401A0290402872DA8C
:1003400018030121000B090508430190049800924D
:10035000002805D001995242002088410092019066
:10036000029840210A1A01990098FFF762FF05469A
:100370000C466B4607CB00F097F9C0197141039A00
:100380000E0D0023D71756401A467A40164344D024
:10039000049A002A2DD0029A012A039A15DC12052C
:1003A000C01A914101263605001C7141D20F059EED
:1003B000D2070093019202962A46234600F094F950
:1003C00007B0F0BD38463146FAE71605224A0F4617
:1003D000B218C01AB74101210905001C4F4100188D
:1003E0007F41114618187941E20F10436D1964419D
:1003F00013E0E2076D0815436408C2071443039A2B
:1004000001261205C01A91413605001C7141CE0724
:10041000400830434908C01851412A46234600F09D
:1004200056F9CDE7FFE7049801224000C117121AE0
:1004300000238B4104983146C417381AA141EEE7D6
:1004400030B40124E407634030BC55E730B40124E4
:10045000E407614030BC4FE70000E0FFF0B51FB497
:1004600088B00B990998002448400999C00F4900A9
:1004700049080991C0070B990090490049080B9160
:1004800009990898A64608431CD00B990A98084376
:1004900018D0099801244000420D4800410D0998E8
:1004A00024050003000B204309900B980003000B68
:1004B00020430B9050181C4940180022019014460C
:1004C000104605E0002001460DB0F0BD032801DA1A
:1004D000034600E003239C46C11A0AAE0AE05F000F
:1004E00008ADED5B4F00F75B7D430027AA187C4108
:1004F000491C5B1E6145F2DD410004AB5A522104E8
:10050000120C0A43240C401C0828DFDB01980290DF
:100510000099704601910090059B049A07990698EE
:1005200000F0E2F8D0E700000DFCFFFFF0B50C464C
:100530005C4085B0E40FE40703944C000026640897
:1005400059009446490802460296224321D0624649
:100550000A431ED06200570D4A000E032303550DB7
:10056000012402462C492405781B1B0B360B40182E
:1005700023432643614600901C46501AB44103D3DE
:100580000098401C009002E0921800985B410028FF
:1005900003DA0020014605B0F0BD00200121090565
:1005A0000746864611E064461D46141BB54106D336
:1005B0006546521BB341744607430C43A646CD071C
:1005C00040084908284392185B4105460D43EAD18B
:1005D0001046184313D060461946504071400843F6
:1005E00006D06046101AB34106D20122002306E06D
:1005F00000220123DB0702E00122D24353100098BE
:1006000074460105381C6141029C039D0019694133
:1006100000F05DF8BFE70000FD0300004A00090399
:100620000123090B1B0519430A4B10B5520D9A42C1
:1006300002DA0020014610BD064B34339A4203DC37
:100640009A1AFFF706FE10BD034BD218FFF7F1FD13
:1006500010BD0000FF030000CDFBFFFF10B5002917
:1006600004DB0124E40740428C412146002B04DBDB
:100670001C460123DB075242A341994200D190421C
:1006800010BD0000064C0125064E05E0E36807CCCE
:100690002B430C3C98471034B442F7D3FFF714FDBA
:1006A000EC5800080C59000810B5202A06DBCB17BF
:1006B0000846203A1041C1170B4306E00B46134190
:1006C000D0402024A21A91400843194610BD10B50D
:1006D000002B08DA0024401C614192185B411A4348
:1006E00001D14008400010BDF0B51FB482B00546EE
:1006F0000C0003D0084604F0BFF802E004F0BCF898
:1007000020300246009021462846FFF792FD049BC8
:10071000059A04460F4618431143084314D018465F
:1007200010431BD0009840210A1A18460599FFF77C
:1007300090FD05460E46009A05990498FFF779FD4D
:10074000084305D0012004E02046394607B0F0BD3B
:100750000020C11705430E432C43374300990E98E0
:100760006305401A7905E40A00220C43FD0A0A30A9
:1007700002D500200146E9E70105101969410C9CEA
:100780000D9D00196941FFF7A2FFDFE70EB5FE4896
:100790000078282801D301F078F843007B449B8837
:1007A0005B009F44270059007D009D00B800DB00DE
:1007B0000E01340167018D01AD01C9016702830299
:1007C000AE02E1020C03360357038403A003CB03FC
:1007D0004104340555057605A305CF05EF051C0634
:1007E000390665069106BD06DA06FB068E07AA07DE
:1007F000D507500855200290E4A001F0FBF8012233
:10080000114602A801F076F80120DF4908707D202A
:10081000C00003F0FFFFE1A001F0ECF8E24801881E
:10082000E24801F0F7F8E148007855280BD0E0A045
:1008300001F0E0F8E2480068401EE149086000204D
:10084000D1490870EFE30120CF490870DC48006807
:10085000401EDB490860F5E7DAA103C90291019067
:100860000222052101A801F045F8282001F096FC9C
:100870007D20C00003F0CEFFCC48007887280BD045
:10088000CA480078902807D0C8480078832803D049
:100890000020BD490870D5E70220BB490870D1E7A8
:1008A000CAA103C9029101900222072101A801F007
:1008B00021F8282001F072FC7D20C00003F0AAFF7F
:1008C000BA480078002807D0B8484078002803D0FC
:1008D0000020AD490870B5E70320AB490870B1E7C7
:1008E000BCA0006802900722042102A801F002F8CF
:1008F000282001F053FC7D20C00003F08BFFAB48A3
:100900000078802803D000209F4908709AE70420CF
:100910009D49087096E7B0A103C9029101900A228F
:10092000052101A800F0E6FF282001F037FC7D201A
:10093000C00003F06FFFAA480078072809DB0420F5
:10094000A849087004229949C91CA748FFF716FC5A
:1009500003E000208C49087074E700BFA3A207CA17
:100960006B4607C391488178684601718F48C1780A
:10097000684641718D480179684681718B4841799B
:100980006846C17189488179684601728748C17992
:100990006846417208220A2100F0ACFF282001F0CD
:1009A000FDFB7D20C00003F035FF804800788028E3
:1009B00003D000207449087044E70620724908708B
:1009C00040E78DA103C9029101900A22052101A8E7
:1009D00000F090FF282001F0E1FB7D20C00003F033
:1009E00019FF7F480078072809DB04207D4908703B
:1009F00004226E49C91C7C48FFF7C0FB03E00020BD
:100A0000614908701EE707205F4908701AE77CA259
:100A100007CA6B4607C36548817868460171634819
:100A2000C1786846417161480179684681715F48C3
:100A300041796846C1715D488179684601725B48B9
:100A4000C1796846417208220A2100F053FF28202C
:100A500001F0A4FB7D20C00003F0DCFE53480078C9
:100A6000802803D0002048490870EBE6082046495A
:100A70000870E7E665A00068029065A000F0BAFF84
:100A80000F22042102A800F035FF282001F086FB88
:100A90007D20C00003F0BEFE61A000F0ABFF424825
:100AA0000188424800F0B6FF40480078802803D013
:100AB000002035490870C5E6092033490870C1E6B1
:100AC00040A103C9029101900622052101A800F06E
:100AD00011FF282001F062FB7D20C00003F09AFE88
:100AE00032480078902807D030480078802803D01A
:100AF000002025490870A5E60A2023490870A1E6D0
:100B00004CA103C9029101900222072101A800F023
:100B1000F1FE282001F042FB7D20C00003F07AFEA8
:100B200022480078872803D000201749087089E6FA
:100B30000B201549087085E640A103C90291019078
:100B400040A000F057FF0222052101A800F0D2FECC
:100B5000282001F023FB7D20C00003F05BFE3EA0B7
:100B600000F048FF10480188104800F053FF0F487C
:100B7000007880287AD00D480078802876D0002030
:100B8000014908705EE671E0720000203020535485
:100B90004154453D4543484F0D0A00004543484FE9
:100BA0002052583A2000000080000020220400203B
:100BB0004543484F204552524F520D0A0000000055
:100BC0007C0000200403C2FF280000000205020090
:100BD0000010000004022607040393200800000010
:100BE0007000002071000020180400200408937099
:100BF0000000000000000000040395200800000031
:100C00000408957000000000000000000402602845
:100C100038204745542056455253494F4E0D0A003F
:100C20004745542056455253494F4E2052583A207A
:100C3000000000000405030000002800040330F851
:100C400028000000313120504147452052454144A1
:100C50002046380D0A0000005041474520524541CA
:100C6000442046382052583A200000000C20FD490C
:100C70000870E7E5FC4903C90291019002220521B1
:100C800001A800F037FE282001F088FA7D20C0007E
:100C900003F0C0FDF5480078902803D00020F1490A
:100CA0000870CFE50D20EF490870CBE5F0A103C92E
:100CB00002910190F0480068002803D001206946A5
:100CC000887102E00020694688710222072101A88C
:100CD00000F010FE282001F061FA7D20C00003F032
:100CE00099FDE2480078872807D0E04800788028FE
:100CF00003D00020DB490870A4E50E20D949087014
:100D0000A0E5DEA2116850689268029200910190FD
:100D1000DDA000F06FFEE1480188D44802F0CCFE6F
:100D200006220921DE4800F0E5FD282001F036FA10
:100D30007D20C00003F06EFDDAA000F05BFED74816
:100D40000188CA4800F066FEC8480078902807D09D
:100D5000C6480078802803D00020C249087071E599
:100D60000F20C04908706DE5D3A207CA6B4607C3C0
:100D7000D4A000F03FFE06220921D74800F0BAFDBA
:100D8000282001F00BFA7D20C00003F043FDD3A022
:100D900000F030FEC1480188B44800F03BFEB34883
:100DA0000078902807D0B1480078802803D0002030
:100DB000AC49087046E51020AA49087042E5AA49E6
:100DC00003C902910190CAA000F014FE022205217D
:100DD00001A800F08FFD282001F0E0F97D20C0007F
:100DE00003F018FDC8A000F005FEAC4801889F483C
:100DF00000F010FE9D480078902806D0C7A000F0B3
:100E0000F9FD0020974908701CE5112095490870EC
:100E100018E59549703103C902910190022207211A
:100E200001A800F067FD282001F0B8F97D20C0007E
:100E300003F0F0FC8D480078872807D08B480078B5
:100E4000802803D0002087490870FBE412208549E0
:100E50000870F7E48449783103C902910190B4A085
:100E600000F0C8FD0222052101A800F043FD282062
:100E700001F094F97D20C00003F0CCFC7A48943056
:100E800000F0B8FD85480188784800F0C3FD774838
:100E90000078802807D075480078802803D000208B
:100EA00070490870CEE413206E490870CAE46E4998
:100EB00003C9029101900222052101A800F01AFD48
:100EC000282001F06BF97D20C00003F0A3FC6748E7
:100ED0000078902803D0002062490870B2E4142002
:100EE00060490870AEE497A103C90291019062487D
:100EF0000068002803D001206946887102E00020C4
:100F0000694688710222072101A800F0F3FC28201D
:100F100001F044F97D20C00003F07CFC53480078C8
:100F2000872807D051480078802803D000204D49F9
:100F3000087087E415204B49087083E483A103C936
:100F40000291019083A000F055FD0222062101A824
:100F500000F0D0FC282001F021F97D20C00003F032
:100F600059FC82A000F046FD4C4801883F4800F043
:100F700051FD3E480078802803D000203949087090
:100F800060E43A482030807FA52824D137482030BB
:100F9000C07F5A281FD17BA000F02CFD022083497E
:100FA000087083480068401C814908603B480188FC
:100FB0002E4802F081FD7E480068022807DB2E489B
:100FC0000068C0432C490860002079490860162059
:100FD0002449087036E400207549086023484030F1
:100FE0000078292814D02148403000782C280FD0D0
:100FF0001E484030007801280AD06EA000F0FAFCAC
:1010000002206A49087025480188184802F054FDFA
:1010100022480188154802F04FFD00F077FD1620A8
:10102000104908700EE41EE2552002906BA000F0FB
:10103000E1FC0122114602A800F05CFC01200949F4
:1010400008707D20C00003F0E5FB0748283800F059
:10105000D1FC12480188054800F0DCFC0348007808
:101060005528C3E072000020C40B000822040020B1
:101070000405010000002800380000200407A2FE3B
:101080001E061384280000003134205041474520BB
:1010900057524954452046450D0A00008000002063
:1010A00046000020504147452057524954452046AC
:1010B000452052583A2000000407A2FFA55A2903F0
:1010C00028000000313520504147452057524954EF
:1010D000452046460D0A00004F000020504147457C
:1010E0002057524954452046462052583A20000085
:1010F00031362053544154453D20535441544520EA
:1011000052455345540D0A0053544154452052450D
:101110005345542052583A20000000005354415483
:1011200045205245534554204552524F520D0A0016
:101130003138205041474520524541442046380D22
:101140000A000000040500000000280004043AF032
:10115000FF2800003231205041474520524541448C
:101160002046302D46460D0A0000000050414745FC
:1011700020524541442046302D46462052583A20C0
:10118000000000000A436F6D62696E6174696F6EE2
:1011900020332072657365742064756520746F2038
:1011A000413520616E642035410A20006600002030
:1011B0003C0000200A436F6D62696E6174696F6E56
:1011C00020332072657365742073746174652032F6
:1011D00031205F5F20370A200000000032322053A8
:1011E000544154453D4543484F0D0A0006D0FE4842
:1011F00000F000FC0020FD4908704AE31720FB497D
:101200000870FB480068401EF949086041E3F64950
:10121000143103C9029101900222052101A800F0B6
:1012200069FB282000F0BAFF7D20C00003F0F2FA2D
:10123000F0480078872807D0EE480078902803D03F
:101240000020EA49087024E31820E849087020E3E8
:10125000E549843103C9029101900222072101A8C6
:1012600000F048FB282000F099FF7D20C00003F02B
:10127000D1FAE0480078872807D0DE480078802837
:1012800003D00020D949087003E31920D74908701A
:10129000FFE2D5498C3103C902910190D6A000F03C
:1012A000A9FB0222052101A800F024FB282000F060
:1012B00075FF7D20C00003F0ADFACB48A83000F0E8
:1012C00099FBD2480188CB4800F0A4FBC9480078BC
:1012D000802807D0C7480078802803D00020C34961
:1012E0000870D6E21A20C1490870D2E2BE49143112
:1012F00003C902910190C6A000F07CFB06220521E3
:1013000001A800F0F7FA282000F048FF7D20C00077
:1013100003F080FAC34800F06DFBBC480188B54873
:1013200000F078FBB3480078902807D0B1480078E7
:10133000802803D00020AD490870AAE21B20AB49E9
:101340000870A6E2A849843103C902910190B6A0B1
:1013500000F050FB0222072101A800F0CBFA282060
:1013600000F01CFF7D20C00003F054FAA148007873
:10137000872803D000209D4908708AE21C209B49E1
:10138000087086E298498C3103C902910190ABA0A4
:1013900000F030FB0222052101A800F0ABFA282062
:1013A00000F0FCFE7D20C00003F034FA8E48A83027
:1013B00000F020FB954801888E4800F02BFB8D48FB
:1013C0000078802807D08B480078802803D0002040
:1013D000864908705DE21D208449087059E28249FF
:1013E000143103C9029101900222052101A800F0E5
:1013F00081FA282000F0D2FE7D20C00003F00AFA16
:101400007C480078902803D000207849087040E29A
:101410001E20764908703CE28249983903C902913E
:1014200001908B480068002803D00120694688712C
:1014300002E00020694688710222072101A800F01D
:1014400059FA282000F0AAFE7D20C00003F0E2F93E
:1014500068480078872807D066480078802803D03D
:1014600000206249087014E21F206049087010E2F1
:1014700078A207CA6B4607C379A000F0BBFA062220
:1014800009217C4800F036FA282000F087FE7D20F4
:10149000C00003F0BFF96348643800F0ABFA5B4862
:1014A0000188544800F0B6FA52480078902807D0D6
:1014B00050480078802803D000204C490870E8E1AB
:1014C00020204A490870E4E16BA207CA6B4607C3B3
:1014D0006CA000F08FFA062209216F4800F00AFA8A
:1014E000282000F05BFE7D20C00003F093F94D48FA
:1014F0002C3800F07FFA454801883E4800F08AFA0F
:101500003C480078902807D03A480078802803D0DB
:10151000002036490870BCE1212034490870B8E148
:101520003149143103C9029101900222052101A819
:1015300000F0E0F9282000F031FE7D20C00003F02B
:1015400069F92C480078902803D0002027490870BA
:101550009FE12220254908709BE12349843103C97A
:10156000029101900222072101A800F0C3F928206E
:1015700000F014FE7D20C00003F04CF91D480078F7
:10158000872807D01B480078802803D000201749FF
:1015900008707EE12320154908707AE112498C31E8
:1015A00003C9029101903DA000F024FA0222052116
:1015B00001A800F09FF9282000F0F0FD7D20C00078
:1015C00003F028F90848A83000F014FA0F48018801
:1015D000084800F01FFA0748007880286DD00548B9
:1015E0000078802869D064E0B00B00087200002009
:1015F0007C00002022040020323520504147452045
:10160000524541442046380D0A0000008000002069
:1016100032362053544154452052455345540D0A07
:101620000000000008110008323720534543544F92
:10163000522053454C4543540D0A00003238205087
:1016400041474520524541442046380D0A000000DC
:10165000380000200407A2FE1E06F87428000000CF
:101660003331205041474520575249544520464583
:101670000D0A0000460000200407A2FFA55A2C0313
:10168000280000003332205041474520575249542A
:10169000452046460D0A00004F00002033352050FB
:1016A00041474520524541442046380D0A0000007C
:1016B00003E0002078490870EBE0242076490870A8
:1016C000E7E0764903C9029101900222052101A8B1
:1016D00000F010F9282000F061FD7D20C00003F02B
:1016E00099F86F480078902803D000206A49087064
:1016F000CFE0252068490870CBE06A4903C9029110
:10170000019069480068002803D00120694688716B
:1017100002E00020694688710222072101A800F03A
:10172000E9F8282000F03AFD7D20C00003F072F8AF
:101730005B480078872807D059480078802803D074
:10174000002055490870A4E0262053490870A0E005
:101750005449DC3103C90291019054A000F04AF9C8
:101760000222062101A800F0C5F8282000F016FD8D
:10177000642003F04FF84B48FC3000F03BF951482F
:101780000188474800F046F945480078802803D092
:101790000020414908707CE041482030807FA52826
:1017A00024D13F482030C07F5A281FD1464800F03E
:1017B00021F902204549087045480068401C444909
:1017C000086040480188364802F076F940480068D1
:1017D000022807DB34480068C04333490860002012
:1017E0003B49086027202C49087052E00020384906
:1017F00008602B4840300078292819D0284840300C
:1018000000782C2814D026484030007801280FD0CA
:101810002D48303000F0EEF802202C49087029489D
:1018200001881F4802F048F927201B49087030E062
:10183000244801881A4802F03FF900F067F9272090
:101840001549087025E023A00068029002220421B7
:1018500002A800F04FF8282000F0A0FC7D20C00076
:1018600002F0D8FF0E48007800280AD00C484078D3
:10187000002806D018A000F0BDF800200649087026
:1018800007E001201A4908600EBD282002490870AF
:1018900000BF00BF00BFF7E772000020C40B0008C4
:1018A0002204002070100008380000203338205037
:1018B00041474520524541442046302D46460D0AB9
:1018C0000000000080000020841100086600002055
:1018D0003C0000200202000050524F54434F4C2065
:1018E00053454C454354204552524F520D0A000077
:1018F0007800002070B505460E46144600200F49BA
:1019000008700F4804700F48048000200E490880BA
:101910004B21C9000D48FEF74AFC64233246294694
:101920000B4802F04FF801220A49094801F09AFFDA
:1019300000F006FE0849086070BD00006A00002043
:10194000700000208400002080000020220400207D
:1019500008010020880000206C00002000B587B03E
:101960001F48406B0121890308431D49486300BF9C
:101970000846C06A022108431949C8620846C06A7D
:1019800002210840019000BF00BF142102A8FEF709
:101990000EFCC02002900220039000200490022040
:1019A00005900020069002A90E4800F0D1FC0E48D8
:1019B0000E490860E1200002486000210B48816068
:1019C00001214903C160002101610C21416101F045
:1019D00097FE03F035FF0649087007B000BD000010
:1019E00000100240000400500038014008010020AF
:1019F0003400002070B504462046FEF7E3FB85B2B4
:101A000064232A462146024801F0DCFF70BD000035
:101A100090010020F8B505460E46002416E0285D2A
:101A200000110D49095C68460170285D0007000F30
:101A30000949095C684641702021817064230322B2
:101A40006946064801F0BEFF601C84B2B442E6DB82
:101A500003A0FFF7CFFFF8BDB858000890010020A1
:101A60000D0A000000B587B02448806B01214904AD
:101A700008432249886300BF0846C06A0121084321
:101A80001E49C8620846C06AC007C00F019000BF67
:101A900000BF142102A8FEF78AFB0C20029002204E
:101AA000039000200490032005900420069002A9D2
:101AB0000520000700F04CFC114812490860E120A5
:101AC0004002486000210F488160C16001610C2123
:101AD000416101F015FE002801D000F01BFA002240
:101AE00011461C2000F09CFD1C2000F08BFD012203
:101AF0000549044801F0B6FE07B000BD00100240E1
:101B000000440040900100208900002070B59CB086
:101B1000002690480188904803F0A0FE8FA0FFF7B0
:101B200069FF8C4801888C48FFF774FF894800885A
:101B3000282804DA92A0FFF75DFF1CB070BD86482C
:101B40008079012816D1012693498348C2890A80E9
:101B5000008A48808048807B7F49C97B0091019042
:101B60007D48037C427C8DA103A802F071FE03A88E
:101B7000FFF740FF784880792C2818D10126764855
:101B8000007B914908807448C07A90490880724867
:101B9000807A8F4908807048407A8E4908806E4864
:101BA000007A8D4908806C48C0798C4908806A4861
:101BB000807929283DD1012601208949086066489D
:101BC000007B814908806448C07A80490880624867
:101BD000807A7F4908806048407A7E4908805E4864
:101BE000007A7D4908805C48C0797C4908807D493D
:101BF0005948428D0A80808D48807B495648C28C66
:101C00000A80008D4880082253491E317748FEF72C
:101C1000B5FA0822504916317548FEF7AFFA082286
:101C20004D490E317348FEF7A9FA4B48407B724983
:101C30000880012E7ED171A0FFF7DCFE564876A108
:101C4000026803A802F004FE03A8FFF7D3FE5E4873
:101C5000008800905D4803885D48028874A103A84D
:101C600002F0F6FD03A8FFF7C5FE5C48008800906F
:101C7000594803885748028875A103A802F0E8FD77
:101C800003A8FFF7B7FE5C48028879A103A802F019
:101C9000DFFD03A8FFF7AEFE52480068FEF799FA91
:101CA000044622460B4677A103A802F0D1FD03A803
:101CB000FFF7A0FE4C480068FEF78BFA0446224668
:101CC0000B4675A103A802F0C3FD03A8FFF792FE1F
:101CD000474903C9FEF791FA0446FEF77AFA444AE7
:101CE00003C2434871A10CC803A802F0B1FD03A8C8
:101CF000FFF780FE3F4903C9FEF77FFA0446FEF76F
:101D000068FA3C4A03C23B486EA10CC803A802F023
:101D10009FFD03A8FFF76EFE344903C9FEF76DFA75
:101D20000446FEF756FA314A03C230486BA10CC88C
:101D300003A800E00BE002F08BFD03A8FFF75AFEBA
:101D40006CA0FFF757FE0026714803F081FA00BF30
:101D5000F3E6000080000020220400200A5265768D
:101D60006572736564206461746120504147452049
:101D7000524541442046302D46462052583A2000D4
:101D8000496E76616C69642064617461206C656E73
:101D90006774680D0A000000300000200D0A5261CF
:101DA000772053657269616C2042797465733A20BB
:101DB0002530325820253032582025303258202501
:101DC000303258200D0A00000000002002000020E0
:101DD0000400002006000020080000200A00002067
:101DE000780000202C000020280000202000002087
:101DF00018000020100000200C0000202D2D2D2D9B
:101E00002D2D20554152542044415441202D2D2D3B
:101E10002D2D2D0D0A00000053657269616C204E56
:101E20006F20203A202530386C580D0A0000000041
:101E300054696D65202020202020203A2025303252
:101E4000643A253032643A253032640D0A000000CD
:101E500044617465202020202020203A2025303243
:101E6000642D253032642D3230253032640D0A0065
:101E70004261736520556E697420203A2025640DF7
:101E80000A00000054656D70657261747572653A80
:101E900020252E32660D0A00466C6F772020202008
:101EA0002020203A20252E32660D0A00466F7277D8
:101EB00061726420566F6C3A20252E366C660D0ACE
:101EC00000000000546F74616C20566F6C20203A43
:101ED00020252E366C660D0A0000000052657665DE
:101EE00072736520566F6C3A20252E366C660D0A8B
:101EF000000000002D2D2D2D2D2D2D2D2D2D2D2DC6
:101F00002D2D2D2D2D2D2D2D2D2D2D0D0A000000CB
:101F10009C00002072B600BFFEE7000000210A4AC4
:101F200051610A494968012252021143074A51602E
:101F30001146496808221143044A51600021C20930
:101F4000D201116070470000D40800200020024038
:101F5000002039498969FF2201321140914208D19C
:101F60003649496902221143344A5161FF21013146
:101F7000084331498969012252021140914208D136
:101F80002E494969012211432C4A5161012149021C
:101F9000084329498969012292021140914208D1DE
:101FA0002649496908221143244A516101218902C5
:101FB0000843214989690122D2021140914208D186
:101FC0001E494969042211431C4A51610121C90279
:101FD000084319498969012252031140914208D1ED
:101FE0001649496910221143144A516101214903DC
:101FF000084311498969012252041140914207D1D5
:102000000E494969202211430C4A5161202108439D
:1020100009498969012212041140914208D10749F6
:10202000496940221143054A5161012109040843CD
:10203000014988617047000000200240D408002058
:1020400070B5044600F07CFA05460BE0601C0028E1
:1020500008D0002C04D000F073FA401BA04201D934
:10206000032070BD1F488069C007C00F0028EDD154
:102070001C48806902210840022801D11949886161
:1020800018488069FF2101310840884223D0154853
:1020900080694900084088421DD012488069490083
:1020A0000840884217D00F4880694900084088429C
:1020B00011D00C4880698900084088420BD009483B
:1020C000806909010840884205D0064880694910A6
:1020D0000840884203D1FFF73BFF0120C1E7002001
:1020E000BFE7000000200240014600222520405C9E
:1020F000022808D00420C86300BF002324204354D2
:1021000000BF01207047086800680E2398430B68E1
:10211000186008680068400840000B6818601C23BD
:10212000486C184001238340086C4360012325203C
:10213000435400BF00232420435400BF1046E1E76E
:1021400070B5044600252520005D022803D0042038
:10215000E063012520E0206800680E2188432168A3
:1021600008602068006840084000216808601C2161
:10217000606C084001218140206C416001212520D4
:10218000015500BF00212420015500BFA06B00288D
:1021900002D02046A16B8847284670BD70B5044622
:1021A00000F0CEF906462546681C002802D00548F6
:1021B00000782D1800BF00F0C3F9801BA842FAD3A5
:1021C00070BD000094000020F8B504460F460026BC
:1021D00000BF1D48007C012801D10220F8BD01206C
:1021E0001949087400BF1948FFF72AFF0546002D5A
:1021F00022D1401E3860666817E03046FFF78EFE39
:102200001248FFF71DFF0546114840680821884322
:102210000F49486008464068491588430C494860A2
:10222000002D01D03E6006E08036A068C0016168E4
:102230004018B042E1D800BF00BF00200249087436
:1022400000BF2846CAE70000D408002050C30000A1
:1022500000200240064840680221084304494860C3
:102260000846406801210843014948600020704742
:1022700000200240F8B507460D46164600BF0F483D
:10228000007C012801D10220F8BD01200B4908740F
:1022900000BF0B48FFF7D4FE0446002C06D10749C7
:1022A00048612E600648FFF7CBFE044600BF0020C1
:1022B0000249087400BF2046E6E70000D408002069
:1022C00050C300001D484068C007C00F002816D04A
:1022D00000BFEFF31080014600BF72B61848174ADE
:1022E000D0601848D06000BF81F3108800BF10464E
:1022F0004068C007C00F002801D0012070470F4878
:10230000406802221040022815D100BFEFF3108070
:10231000014672B60C48094A10610C481061084623
:1023200080F3108800BF1046406802221040022847
:1023300001D10120E2E70020E0E700000020024098
:10234000EFCDAB8905040302BFAE9D8C16151413A7
:1023500070B503460A46002100240020DCE0012677
:102360008E40156835402C46002C79D01579AD0784
:10237000AD0F012D04D01579AD07AD0F022D18D189
:1023800098684E000325B5400646AE4330464E00E1
:10239000D568B54028439860586801258D400646A9
:1023A000AE4330461026556835402D098D402843F0
:1023B00058601579AD07AD0F032D0BD0D8684E00CE
:1023C0000325B5400646AE4330464E009568B540FD
:1023D0002843D8601579AD07AD0F022D15D1CD0872
:1023E000AE001D462035A8594D07EE0E0F25B5400D
:1023F0000646AE4330464E07F60E1569B5402843F3
:10240000CD08AD001E462036705118684E000325D9
:10241000B5400646AE4330461579AD07AD0F4E00C8
:10242000B540284318600326360455683540002D12
:1024300071D03C4D6D6B012635433A4E75633A4D74
:102440008E08B600A8598D072E0F0F25B5400646F9
:10245000AE43304605252D07AB4202D1002515E0DD
:1024600059E0324DAB4201D101250FE0304DAB4276
:1024700001D102250AE02F4DAB4201D1032505E031
:102480002D4DAB4201D1052500E006258E07360F04
:10249000B5402843244D8E08B600A851274DA868A2
:1024A0000546A54328460126360555683540002DCA
:1024B00002D0054625432846204DA860E868054619
:1024C000A54328460126760555683540002D02D0E3
:1024D000054625432846194DE86068680546A5432A
:1024E00028460126760455683540002D02D0054661
:1024F00025432846114D686028680546A5432846AF
:102500000126360455683540002D02D00546254386
:1025100028460A4D2860491C1568CD40002D00D082
:102520001DE770BD0010024008000140000400508B
:1025300000080050000C0050001C00500004014036
:1025400001480068704700008C00002003480068C4
:102550000349097840180149086070478C00002041
:102560009400002010B5002408480068402108436A
:1025700006490860032000F00BF8002801D0012470
:1025800001E000F02FF8204610BD000000200240BE
:1025900070B50446104801787D20C000FDF7A8FD05
:1025A000064631460D480068FDF7A2FD054600F0DD
:1025B00085FE002801D0012070BD042C07D2002226
:1025C0002146501E00F02CF80548046001E001206F
:1025D000F2E70020F0E700009400002098000020BF
:1025E000900000200648406B0121084304494863DD
:1025F0000846806B0904084301498863704700005E
:10260000001002400146002905DBCB06DB0E01224B
:102610009A40024B1A6000BF7047000000E100E0E2
:1026200070B504460D4616462946204602F062F96A
:1026300070BD0000F8B5044600272021206808403E
:1026400020287BD120680840202800D100BF8A487C
:10265000806B012109070840002805D18648806B5E
:10266000084385498863012784480068FF210131B8
:102670000840002816D18148006808437F49086057
:10268000FFF75EFF064606E0FFF75AFF801B64284F
:1026900001D90320F8BD79480068FF2101310840C5
:1026A0000028F1D074480568032109050D406068D1
:1026B0000840A8420DD0091160680840884208D13E
:1026C0006D480068012149040840884201D1012079
:1026D000E0E76948403000690321090408400546E5
:1026E000002D3DD060680840A84239D020212068E4
:1026F0000840202834D16048403000690321090493
:10270000884305465C48403000690121C9040843FC
:10271000594940310861084600690121C9048843CC
:1027200055494031086108460561801528408915E2
:10273000884215D1FFF704FF064608E03DE0FFF7A9
:10274000FFFE801B4E49884201D90320A2E74A4878
:1027500040300069012149020840400A0028EED0BB
:1027600020212068084020281FD100BF00BF03217E
:1027700009046068084088420AD13F48006809019E
:102780008843032212056168114008433A490860F2
:1027900000BF3948403000690322120461681140CB
:1027A000084335494031086100BF012F05D1324847
:1027B000806B39078843304988632078C007C00F91
:1027C000002809D02C484030C06880088000A168EB
:1027D000084329494031C860022120680840022886
:1027E00009D125484030C0680C218843E16808437E
:1027F00021494031C86004212068084004280AD1DA
:102800001D484030C068032189028843216908437C
:1028100019494031C86008212068084008280AD1B9
:1028200015484030C06803210903884361690843A3
:1028300011494031C860402120680840402809D132
:102840000D484030C06809058843E16908430A49DA
:102850004031C86080212068084080280AD106489D
:102860004030C068032189048843A16908430249B4
:102870004031C86000200DE70010024000700040A9
:1028800088130000F8B504460E46002C01D1012043
:10289000F8BD83480068C007C00FB04218D2804816
:1028A00000684008400030437D490860FFF748FE5B
:1028B000054607E0FFF744FE401B7A49884201D9EC
:1028C0000320E5E776480068C007C00FB042F1D1A9
:1028D000022120680840022807D17348C068F0210F
:1028E0008843A16808437049C8602078C007C00FBA
:1028F00000284CD06068022809D16B48006801218B
:1029000049040840400C002824D10120C0E7606839
:10291000032809D164480068012149060840400E97
:10292000002817D10120B3E76068012808D15E486C
:10293000006804210840800800280BD10120A7E787
:1029400059480068012149020840400A002801D185
:1029500001209DE75448C0688008800061680843F2
:102960005149C860FFF7ECFD0546606802280FD1A9
:1029700007E0FFF7E5FD401B4A49884201D90320E3
:1029800086E74948C0680C2108400828F1D134E0A6
:10299000606803280FD107E0FFF7D2FD401B4149D3
:1029A000884201D9032073E73F48C0680C210840E2
:1029B0000C28F1D121E0606801280FD107E0FFF772
:1029C000BFFD401B3749884201D9032060E73648E4
:1029D000C0680C2108400428F1D10EE007E0FFF7A1
:1029E000AFFD401B2F49884201D9032050E72E48F4
:1029F000C0680C2108400028F1D129480068C007B0
:102A0000C00FB04218D92648006840084000304343
:102A100023490860FFF794FD054607E0FFF790FDA6
:102A2000401B2049884201D9032031E71C48006837
:102A3000C007C00FB042F1D104212068084004282B
:102A400008D11948C068072109028843E168084392
:102A50001549C860082120680840082809D1124893
:102A6000C0680721C90288432169C90008430E498B
:102A7000C86000F04BF80C49C968F0221140090900
:102A80000A4A515CC8400A4908600A480068FFF7D2
:102A90007FFD0746002F01D03846F9E60020F7E613
:102AA000002002408813000000100240C9580008AE
:102AB0009800002090000020014800687047000046
:102AC0009800002000B5FFF7F7FF0549C968072205
:102AD00012021140090A034A515CC84000BD0000BF
:102AE00000100240D958000800B5FFF7E5FF05497E
:102AF000C9680722D2021140C90A034A515CC84082
:102B000000BD000000100240D9580008FEB52E4854
:102B1000C7680C203840002845D0042804D0082875
:102B20000CD00C283ED10BE027480068102108404B
:102B3000002801D0254C00E0254C41E0254C3FE029
:102B40000F2080043840800C23490E5C0320800550
:102B50003840800D401C01901B48C06801210904C9
:102B60000840002807D01B49714308460199FDF72A
:102B7000BFFA054614E014480068102108400028F8
:102B800007D01249714308460199FDF7B1FA05468D
:102B900006E00F49714308460199FDF7A9FA054679
:102BA0002C460DE000BF0848406807214903084053
:102BB000400B00900098401C01218140CC0300BFD5
:102BC00000BF2046FEBD00000010024000093D008D
:102BD0000024F40000127A00E1580008FEB5044613
:102BE000002C01D10120FEBDF948C6680C210E4021
:102BF000C768012109040F402078C007C00F0028D2
:102C000072D0082E04D00C2E0FD1084687420CD16A
:102C1000EF480068012149040840400C002863D0B7
:102C20006068002860D10120DDE700BF01210904B0
:102C30006068884205D1E64800680843E4490860B6
:102C400027E005210904606888420ED1E048006849
:102C5000012189040843DE49086008460068012113
:102C600009040843DA49086013E0D94800680121E3
:102C700009048843D6490860084600680121090410
:102C80000840009000BFD248006889008843D049BE
:102C9000086000BF6068002813D0FFF751FC0546AC
:102CA00006E0FFF74DFC401B642801D903209AE79A
:102CB000C7480068012149040840400C0028F0D0B2
:102CC00012E0FFF73DFC054606E0FFF739FC401B2C
:102CD000642801D9032086E7BD4800680121490422
:102CE0000840400C0028F0D102212068084002284A
:102CF0007BD1E0680290042E03D00C2E35D1002F3A
:102D000033D1B3480068042108408008002804D06B
:102D10000298002801D1012065E7AD4840681F21D5
:102D200009028843216909020843A9494860084605
:102D300000680921884302990843A5490860FFF704
:102D4000E5FEA349C968F02211400909A14A515C76
:102D5000C840A1490860A1480068FFF719FC01902C
:102D60000198002841D001983DE70298002824D01E
:102D700097480068092188430299084394490860EC
:102D8000FFF7DEFB054606E0FFF7DAFB401B0228F3
:102D900001D9032027E78E480068042108408008F5
:102DA0000028F1D08A4840681F2109028843216920
:102DB000090208438649486017E0854800684008D2
:102DC000400083490860FFF7BBFB054606E0FFF7BC
:102DD000B7FB401B022801D9032004E77C480068A8
:102DE0000421084080080028F1D110212068084003
:102DF000102868D1002E37D1754800684901084075
:102E0000400A002804D0E069002801D10120EAE648
:102E10006F484068072149038843616A08436C4949
:102E20004860084640680002000A218C09060843F1
:102E300067494860606A400B401C01218140C8031B
:102E40006349C968F02211400909624A515CC840CF
:102E50006149086061480068FFF79AFB019001989A
:102E600000284BD00198BEE6E06900282CD05848D5
:102E70000068FF210131084355490860FFF760FBF6
:102E8000054606E0FFF75CFB401B022801D9032042
:102E9000A9E64F480068012149020840400A00287D
:102EA000F0D04B484068072149038843616A0843D2
:102EB00047494860084640680002000A218C09061C
:102EC00008434349486019E041480068FF21013147
:102ED00088433F490860FFF733FB054606E0FFF7EC
:102EE0002FFB401B022801D903207CE638480068EC
:102EF000012149020840400A0028F0D10821206839
:102F00000840082839D1606900281BD0304840307B
:102F10000069012108432E4940310861FFF710FB89
:102F2000054606E0FFF70CFB401B022801D90320F1
:102F300059E627484030006902210840400800282F
:102F4000F0D01AE022484030006940084000204993
:102F500040310861FFF7F4FA054606E0FFF7F0FAA2
:102F6000401B022801D903203DE619484030006982
:102F70000221084040080028F0D1042120680840C0
:102F800004287BD1002000901148806B89060840FE
:102F9000002806D10E48806B08430D498863012044
:102FA00000900F480068FF2101310840002820D11F
:102FB0000B48006808430A490860FFF7C1FA054654
:102FC00010E0FFF7BDFA401B64280BD903200AE686
:102FD00000100240C958000898000020900000200E
:102FE00000700040B1480068FF210131084000280E
:102FF000E7D000BFFF210131A068884205D1AC486D
:1030000000690843AA49086130E0A06800280DD192
:10301000A7480069FF2101318843A5490861084696
:10302000006909158843A24908611FE005210902CA
:10303000A06888420DD19E48006901218902084399
:103040009B49086108460069891508439849086149
:103050000CE097480069FF210131884394490861D9
:1030600008460069091588439149086100BFA068B6
:10307000002815D0FFF764FA054608E031E0FFF7B5
:103080005FFA401B8B49884201D90320ABE5884891
:103090000069012149020840400A0028EFD013E0EE
:1030A000FFF74EFA054607E0FFF74AFA401B814951
:1030B000884201D9032096E57D4800690121490233
:1030C0000840400A0028EFD10098012808D178482C
:1030D0004038806B0121090788437549403988636E
:1030E00000BF202120680840202852D1A069002874
:1030F0002BD000BF6E4840388068012108436C49DE
:10310000403988600846406B0121084368494039CE
:1031100048636948006A0121490308436649086217
:1031200000BFFFF70DFA054606E0FFF709FA401B5E
:10313000022801D9032056E55D4840388068022105
:10314000084040080028F0D023E000BF584840382D
:103150008068400840005649403988605648006AF7
:103160000121490388435449086200BFFFF7E8F989
:10317000054606E0FFF7E4F9401B022801D90320C9
:1031800031E54B484038806802210840400800285B
:10319000F0D1A06A00284CD00C2E69D0A06A022879
:1031A00048D1434840380068012109068843404916
:1031B00040390860FFF7C4F9054606E0FFF7C0F99B
:1031C000401B022801D903200DE53948403800682A
:1031D000012149060840400E0028EFD1216BE06A2A
:1031E0000843616B084332494039C968FD22120423
:1031F000914308432E494039C860084600680121C0
:10320000090608432A4940390860FFF799F905463D
:1032100006E0FFF795F9401B022801D90320E2E4FC
:10322000234840380068012149060840400E002824
:10323000EFD038E01E484038006801210906884375
:103240001B4940390860FFF77BF9054606E0FFF7A8
:1032500077F9401B022801D90320C4E41448403800
:103260000068012149060840400E0028EFD11AE00D
:10327000A06A012800D1B6E40D484038C768012093
:1032800000043840E16A88420BD10F2080043840A6
:10329000216B884205D1032080053840616B88424C
:1032A00001D001209FE400209DE400000070004058
:1032B00040100240881300000000014070B5044631
:1032C0002546681E0949884201D901200CE0681E84
:1032D000074948610321081F01F00CFB0020044945
:1032E000886107200861002070BD0000FFFFFF001B
:1032F00000E000E07047704770470000F0B585B00F
:1033000004462068C5692068066820688768F84810
:1033100028400390039800280FD12020284000283F
:103320000BD020203040002807D0A06E002802D00B
:103330002046A16E884705B0F0BD039800287DD0D7
:10334000F807C00F002803D1EA4830400028F6D023
:10335000E807C00F00280DD0FF20013030400028C2
:1033600008D0012021680862842000590121084307
:10337000842108510220284000280CD0F807C00FF3
:10338000002808D002202168086284200059042106
:103390000843842108510420284000280CD0F80755
:1033A000C00F002808D0042021680862842000593A
:1033B000022108438421085108202840002810D009
:1033C00020203040002803D1F807C00F002808D083
:1033D00008202168086284200059082108438421BC
:1033E00008510120C002284000280ED0012080068C
:1033F0003040002809D00120C002216808628420E2
:1034000000592021084384210851842000590028B4
:1034100054D020202840002809D020203040002807
:1034200005D0A06E002802D02046A16E88478420D7
:103430000059029020688068402100E03FE0084089
:10344000402804D0282102980840002830D0204687
:1034500000F0D2FD2068806840210840402823D138
:1034600000BF01F083FA0190012001F091FA206879
:1034700080684021884321688860019801F088FABB
:1034800000BF606F00280BD09B48616F8863606F3E
:10349000FEF756FE002811D0606F816B88470DE063
:1034A0002046FFF729FF09E02046FFF725FF05E04A
:1034B0002046FFF721FF0021842001513BE7206EC9
:1034C00001287DD110202840002879D010203040DC
:1034D0000028FAD010202168086220688068402106
:1034E000084040286DD1606F0068406880B201904C
:1034F000019800286BD05820015B0198814266DD5D
:103500005A2101980853606F006800682021084024
:1035100000284CD100BF01F029FA0090012001F0F1
:1035200037FA20680068FF2101318843216808606C
:10353000009801F02DFA00BF00BF01F017FA0090CB
:10354000012001F025FA20688068400840002168C9
:103550008860009801F01CFA00BF00BF01F006FA75
:103560000090012001F014FA20688068402188430F
:1035700021688860009801F00BFA00BF20218020AC
:1035800001510020206600BF01F0F0F900900120F9
:1035900001F0FEF920680068102188432168086066
:1035A000009801F0F5F900BF606FFEF79DFD022065
:1035B00060665820025B5A20005B101A81B202E05C
:1035C00068E018E003E02046FFF794FE12E0582080
:1035D000015B019881420DD1606F00680068202175
:1035E0000840202806D1022060665820015B204652
:1035F000FFF780FE9FE65820015B5A20005B081A07
:1036000080B201905A20005B002842D00198002827
:103610003FD000BF01F0AAF90090012001F0B8F9F5
:1036200020680068FF2121318843216808600098E4
:1036300001F0AEF900BF00BF01F098F90090012041
:1036400001F0A6F920688068400840002168886081
:10365000009801F09DF900BF202180200151002039
:103660002066A06600BF01F081F90090012001F002
:103670008FF920680068102188432168086000984D
:1036800001F086F900BF0220606620460199FFF72D
:1036900031FE50E601200005284000280CD0012012
:1036A00080053840002807D0012000052168086205
:1036B0002046FFF720FE3EE68020284000280AD062
:1036C00080203040002806D0E06E002802D020463E
:1036D000E16E88472FE64020284000280ED0402089
:1036E000304000280AD0204600F0C6FC23E6000047
:1036F0000F08000020010004E53F000800BF1AE6A3
:1037000010B50446002C01D1012010BDA06900288D
:1037100000D000E000BFE06F002805D10021782034
:103720000155204600F02CF82420E067206800684E
:103730004008400021680860606A002802D02046E6
:1037400000F057FB204600F0E3FD012800D1DCE744
:10375000206840680921C9028843216848602068C0
:1037600080682A21884321688860206800680121D8
:10377000084321680860204600F0B4FBC5E700005C
:1037800010B586B00446142101A8FCF710FD31499C
:10379000206888422BD13048406B012189030843BF
:1037A0002D49486300BF0846C06A022108432A49E0
:1037B000C8620846C06A02210840009000BF00BFEE
:1037C000C02001900220029000200390032004906A
:1037D0000020059001A92148FEF7BAFD00221146FC
:1037E0001B20FEF71DFF1B20FEF70CFF2FE01C49DE
:1037F000206888422BD11848806B01214904084376
:103800001549886300BF0846C06A01210843124970
:10381000C8620846C06AC007C00F009000BF00BF62
:103820000C200190022002900020039003200490BD
:103830000420059001A905200007FEF789FD00225C
:1038400011461C20FEF7ECFE1C20FEF7DBFE06B046
:1038500010BD00000038014000100240000400507C
:1038600000440040F8B504460D4616468020005935
:10387000202838D1002D01D0002E01D10120F8BD23
:1038800001210903A068884208D12069002805D1D8
:10389000E807C00F002801D00120F0E700202066D3
:1038A00012492068884218D0206840680121C90563
:1038B0000840002811D000BF01F058F80746012049
:1038C00001F066F820680068012189060843216834
:1038D0000860384601F05CF800BF324629462046B1
:1038E00000F09EFECBE70220C9E700000048004040
:1038F00070B5044626492068884221D125480578BC
:10390000254801880088401C234A108023484554DC
:10391000104600884B21C900884202DB0020114676
:1039200008801D4800881E490988884202DB012062
:103930001C490870012217491B48FFF793FF26E036
:103940001A492068884222D119480578002019496F
:103950000870194801880088401C174A10801748D1
:103960004554104600884B21C900884202DB0020E4
:103970001146088010480088052802DB01200D4907
:10398000087001220A490E48FFF76CFF00BF70BDA6
:103990000038014088000020800000202204002020
:1039A000840000206A00002008010020004400403C
:1039B0008900002087000020820000207A06002075
:1039C00090010020FFB583B004460D461746E06F16
:1039D000202869D1002D01D0002F02D1012007B08D
:1039E000F0BD01210903A068884208D120690028A0
:1039F00005D1E807C00F002801D00120EFE7002122
:103A0000842001512120E067FEF79AFD01905020AB
:103A100007535220075301210903A068884205D1AA
:103A20002069002802D10026029502E02E460020DF
:103A3000029023E006980090002280212046019BFE
:103A400000F07EFE002803D02020E0670320C6E7B8
:103A5000002E09D102980088C005C00D2168886237
:103A60000298801C029003E0307821688862761CFE
:103A70005220005B401E81B2522001535220005B55
:103A80000028D7D106980090002240212046019BB3
:103A900000F056FE002803D02020E06703209EE7B8
:103AA0002020E06700209AE7022098E7704700BFD7
:103AB000FEE700BFFEE77047FEB504460D46002650
:103AC000002001900C2D00DAFEBD28460C38265C43
:103AD000401C205C01900420514908700720487068
:103AE000A2208870FE20C8700846067101984871AF
:103AF00004204C49087007204870A2208870FF20DD
:103B0000C870A52008715A2048712D2D29DB464820
:103B10000078012825D145480068002821D10121DD
:103B2000434A11702921095D09062A22125D1204F7
:103B300011432B22125D120211432C22125D1143FC
:103B4000084600280CD03B490968884208D0394B08
:103B50001860010C82B20B465340374F3B8000BFC8
:103B600000BF33480078022815D134A0FDF742FF8A
:103B700000202B49087148712C2088711720C871CA
:103B8000282028490872012088710320C871282044
:103B90002349087298E72648007800281AD12CA0FB
:103BA000FDF728FF2C201F4988710320C8712DA024
:103BB000006800900846C17968460170194881790B
:103BC000684641701C4802880421684601F0A6FC42
:103BD00007461EE01648007801281AD122A0FDF7FA
:103BE00009FF29200F4988710320C8711DA00068B2
:103BF00000900846C179684601700A488179684694
:103C000041700D4802880421684601F087FC074690
:103C100000BF2820024908720249087200BF53E71A
:103C2000460000204F000020620400203C000020DD
:103C30006600002040000020440000200D0A2043C0
:103C40006F6D62696E6174696F6E2033200D0A00BA
:103C50000D0A20436F6D62696E6174696F6E203169
:103C6000200D0A0000005AA50D0A20436F6D6269FD
:103C70006E6174696F6E2032200D0A0000B589B044
:103C80000A20214908600020204908702049086066
:103C900020490870012149021F48FCF788FA0020DA
:103CA0001E49088024E01A480068012800D127E056
:103CB000FCF76CFD16480068012804D118A0FDF738
:103CC00099FE09B000BD1148007800280DD11048B8
:103CD00003680D4816A1026801A800F0B9FD01A80B
:103CE000FDF788FE19A0FDF785FE0120FEF756FAC4
:103CF00005480068002803D0054800680028D2D095
:103D000000BF00BFDDE700007C0000207200002043
:103D100078000020870000201802002068000020A2
:103D20005265616420646F6E652E0D0A0D0A0000F5
:103D30005245545259203A202564202020535441A2
:103D40005445203A2025640D0A0D0A000D0A0D0A7B
:103D500000000000704710B5FEF7F8FB10BD000032
:103D600000B59BB038210DA8FCF721FA142108A852
:103D7000FCF71DFA20216846FCF719FA1B48006879
:103D80000321C90288430121C9024018174908606C
:103D900002200D900120109010201190002017900B
:103DA0000DA8FEF71BFF002801D0FEF7B3F80F2087
:103DB00008900120099000200A900B900C9000219F
:103DC00008A8FEF75FFD002801D0FEF7A3F8032046
:103DD00000900020029003906846FEF72BFC00281C
:103DE00001D0FEF797F81BB000BD00000070004046
:103DF00070470822416A1140082907D101684968C3
:103E000012039143426B114302685160818CC907D0
:103E1000C90F002908D00168496801225204914362
:103E2000826A1143026851600222416A11400229EC
:103E300007D101684968D2039143C26A11430268FD
:103E400051600422416A1140042907D10168496880
:103E500012049143026B1143026851601022416ABF
:103E60001140102907D10168896812029143826BC1
:103E70001143026891602022416A1140202907D134
:103E80000168896812029143C26B11430268916014
:103E90004022416A1140402915D1016849689203C6
:103EA0009143026C11430268516001221205016CBA
:103EB000914208D101684968032252059143426C3E
:103EC0001143026851608022416A1140802907D164
:103ED0000168496812039143826C11430268516082
:103EE00070470000F8B50446002184200151FEF718
:103EF00027FB05462068006808210840082823D1D0
:103F000037482B46002289040090204600F018FC18
:103F1000002819D000BF00F029FD0646012000F05E
:103F200037FD20680068802188432168086030469A
:103F300000F02EFD00BF2020E06700BF00217820A8
:103F4000015500BF0320F8BD206800680421084027
:103F5000042836D122482B4600220905009020462D
:103F600000F0EEFB00282CD000BF00F0FFFC06465E
:103F7000012000F00DFD20680068FF2121318843F9
:103F800021680860304600F003FD00BF00BF00F06C
:103F9000EDFC0646012000F0FBFC2068806840082C
:103FA000400021688860304600F0F2FC00BF20210C
:103FB0008020015100BF00217820015500BF03205F
:103FC000C1E72020E06720218020015100202066E9
:103FD000606600BF00217820015500BF0020B2E7D5
:103FE000FFFFFF0170B50446A56A00215A20415326
:103FF0002846FFF781F970BD70B5044600BF00F098
:10400000B5FC0546012000F0C3FC20680068FF21D4
:104010002131884321680860284600F0B9FC00BFC0
:1040200000BF00F0A3FC0546012000F0B1FC2068B1
:1040300080684008400021688860284600F0A8FC9D
:1040400000BF206E012810D100BF00F08FFC054694
:10405000012000F09DFC2068006810218843216841
:104060000860284600F094FC00BF20218020015108
:1040700000202066A06670BD70B5044600BF00F049
:1040800075FC0546012000F083FC20680068402193
:10409000884321680860284600F07AFC00BF202091
:1040A000E0670020E0662046FFF700FD70BD0000DD
:1040B000F8B504465C20075B8020005922287CD19B
:1040C0002068406A86B2656D304638402880606D51
:1040D000801C60655A20005B401E81B25A2001534B
:1040E000005B002878D100BF00F040FC0090012068
:1040F00000F04EFC20680068FF21213188432168D0
:104100000860009800F044FC00BF00BF00F02EFCE7
:104110000090012000F03CFC2068806840084000CE
:1041200021688860009800F033FC00BF20218020C7
:1041300001510020A066606628492068884218D096
:10414000206840680121C9050840002811D000BF3F
:1041500000F00CFC0090012000F01AFC20680068C0
:1041600001218906884321680860009800F010FC4E
:1041700000BF206E012825D10020206600BF00F07E
:10418000F5FB0090012000F003FC2068006810217E
:10419000884321680860009800F0FAFB00BF20689F
:1041A000C069102108400009002802D010202168B1
:1041B00008625820015B204601E007E00CE0FFF7B1
:1041C00099F809E02046FFF793FB05E02068806935
:1041D0000821084321688861F8BD000000480040BC
:1041E000F8B504465C20065B8020005922287CD16B
:1041F0002068406A85B2F0B22840616D0870606D39
:10420000401C60655A20005B401E81B25A20015359
:10421000005B002878D100BF00F0A8FB0746012012
:1042200000F0B6FB20680068FF2121318843216837
:104230000860384600F0ACFB00BF00BF00F096FB02
:104240000746012000F0A4FB206880684008400079
:1042500021688860384600F09BFB00BF2021802049
:1042600001510020A066606628492068884218D065
:10427000206840680121C9050840002811D000BF0E
:1042800000F074FB0746012000F082FB2068006804
:1042900001218906884321680860384600F078FBD0
:1042A00000BF206E012825D10020206600BF00F04D
:1042B0005DFB0746012000F06BFB206800681021C1
:1042C000884321680860384600F062FB00BF206820
:1042D000C069102108400009002802D01020216880
:1042E00008625820015B204601E007E00CE0FFF780
:1042F00001F809E02046FFF7FBFA05E02068806935
:104300000821084321688861F8BD0000004800408A
:10431000F0B587B0044600200390B8492068884271
:1043200000D100E000BF2169A0680843616908432B
:10433000E1690843059020680068B1490840059983
:104340000843216808602068406803210903884306
:10435000E168084321684860A0690590A749206882
:10436000884203D0206A0599084305902068806838
:104370000B2109028843059908432168886000BF22
:10438000A0492068884217D19F48C0688007800FE5
:10439000002806D0012808D0022804D0032808D11C
:1043A00005E0012607E0022605E0042603E00826D2
:1043B00001E0102600BF3BE094492068884217D1F5
:1043C0009148C0680C210840002806D0042808D075
:1043D000082804D00C2808D105E0002607E00226B2
:1043E00005E0042603E0082601E0102600BF1FE0D8
:1043F0008249206888421AD18348C0680321890213
:104400000840002808D001218902401A08D0401A2B
:1044100004D0401A08D105E0002607E0022605E096
:10442000042603E0082601E0102600BF00E0102665
:1044300000BF72492068884251D1002E06D0022E5A
:1044400008D0042E12D0082E17D113E0FEF73AFB45
:10445000054616E06C484038006810210840000905
:10446000002801D06A4D00E06A4D0AE0FEF74EFBDD
:10447000054606E00125ED0303E000250120039039
:1044800000BF00BF002D0AD0606841004018A8425C
:1044900003D860680003A84202D201200390A7E07D
:1044A000606802902846FF21013100F0FCF9626843
:1044B000520800238018594101910090029AFBF79D
:1044C0002DFE0746032109028F4205D35248874239
:1044D00002D82068C7608BE00120039088E00121AA
:1044E000C903E069884247D1330000F0F4F90906B6
:1044F0000A0E211A2121211E2100FEF7E3FA0546AA
:104500001AE0FEF7F1FA054616E03F484038006829
:10451000102108400009002801D03D4D00E03D4D2C
:104520000AE0FEF7F3FA054606E00125ED0303E095
:1045300000250120039000BF00BF002D58D06A0065
:1045400063685B08D0186168FBF7D2FD0746102F3F
:104550000FD3324887420CD830480F383840049087
:104560003807400F04990843049004982168C860F4
:104570003EE0012003903BE0330000F0ACF9090677
:104580000A0E211A2121211E2100FEF79BFA054661
:104590001AE0FEF7A9FA054616E01B484038006805
:1045A000102108400009002801D0194D00E0194DE4
:1045B0000AE0FEF7ABFA054606E00125ED0303E04D
:1045C00000250120039000BF00BF002D10D06168BE
:1045D0004A085019FBF78CFD0746102F06D30F48E9
:1045E000874203D8B8B22168C86001E00120039077
:1045F0000020A066E066039807B0F0BD00480040C8
:10460000F369FFEF003801404010024000440040D1
:1046100000093D000024F400FFFF0F00FFFF000031
:10462000F8B504460E4615466665582005535A20CF
:1046300005530020A06600BF01210903A06888423D
:104640000AD12069002803D13A495C20015324E0B3
:10465000FF215C20015320E0A06800280AD12069D6
:10466000002803D1FF215C20015316E07F215C204C
:10467000015312E001210907A06888420AD120698C
:10468000002803D17F215C20015306E03F215C20FC
:10469000015302E000215C20015300BF002184206F
:1046A000015122218020015100BF00F05FF907462F
:1046B000012000F06DF9206880680121084321681D
:1046C0008860384600F064F900BF01210903A06842
:1046D000884205D12069002802D11748A06601E070
:1046E0001648A0662069002811D000BF00F03EF9EE
:1046F0000746012000F04CF920680068FF212131B5
:10470000084321680860384600F042F910E000BF15
:1047100000F02CF90746012000F03AF92068006803
:104720002021084321680860384600F031F900BFB5
:104730000020F8BDFF010000B1400008E141000881
:10474000FFB581B004460D4617460A9E46E0701C30
:10475000002843D0FDF7F4FE0499401AB04201D876
:10476000002E02D1032005B0F0BD206800680421AE
:104770000840002832D0802D30D0402D2ED0206827
:10478000C06908210840C00800280FD0082021680F
:1047900008622046FFF730FC08218420015100BF49
:1047A00000217820015500BF0120DCE72068C069A6
:1047B0000121C9020840C00A00280FD0084621681C
:1047C00008622046FFF718FC20218420015100BF19
:1047D00000217820015500BF0320C4E72068C0698C
:1047E0002840A84201D1012000E00020B842AED00C
:1047F0000020B8E710B50248FEF780FD10BD0000AC
:104800000801002010B50248FEF778FD10BD000039
:104810009001002010B504460A48007800280BD10A
:10482000FDF78EFE08490968401AA04202D900200F
:1048300006490870002010BD0020024908700120C0
:10484000F9E700006A0000206C00002072000020E0
:104850000FB410B504A9074B02AA039800F056F94B
:10486000044602A9002000F0EDFC204610BC08BC64
:1048700004B01847455200082021020C01D0102135
:104880001046020A01D010460839020901D010462C
:10489000091F820801D01046891E420801D0881ED7
:1048A0007047081A7047F8B582B28BB2040C0D0C31
:1048B00010465843002126465E43370C36048019C3
:1048C000794116466E43370C3604801979412646E5
:1048D0006E438919F8BD30B47446641E2578641C93
:1048E000AB4204D3635D5B00E31830BC18471D4640
:1048F000F8E7000010B5002819DB1A4A03231B0251
:10490000D21883089B00D2588307DC0EFF23A340F4
:104910009A438B071B0E8407E40EA3401A43114BE6
:10492000032424021B198408A4001A5118E00E4A1B
:1049300003071B0F083B9B089B00D2588307DC0E24
:10494000FF23A3409A438B071B0E8407E40EA3406A
:104950001A43054B0407240F083CA408A4001A516D
:1049600010BD000000E100E01CED00E0EFF310805E
:10497000704702E008C8121F08C1002AFAD1704728
:104980007047002001E001C1121F002AFBD17047CF
:1049900080F3108870470000F0B51FB486B0099806
:1049A000089A030D0021024314D05148514A1818A7
:1049B000504305141198012810981AD0281A401C49
:1049C00000264D4F4D49009601910490002812DABF
:1049D000444211E01198012449A3012801D1109803
:1049E000C1430698119A84600360C26041600BB0B5
:1049F000F0BD4042E4E70446210500203F4A001C88
:104A000051410391029012E0E00707D032463B4645
:104A100001990098FBF722FD0191009032463B4638
:104A200010461946FBF71AFD06460F466410002C87
:104A3000EAD10498039B0028029A0999089806DA9B
:104A4000FBF70CFD019B009AFBF708FD05E0FBF767
:104A50006DFD019B009AFBF769FD04460E4600229E
:104A6000284BFBF7FBFD03D80020C043014607E0BD
:104A70000022254B20463146FBF73EFCFBF7CEFDDE
:104A8000102409E0002C0ADB0A220023FBF746FB76
:104A9000079B30321A55641E02460A43F2D1112296
:104AA000641C079B121B1C19119B012B03D00123B3
:104AB00008430ED10AE0084304D0112010900020D2
:104AC000119077E71098151A6D1E0BE0109882422E
:104AD00002DD00236D1C03E0824201DA00236D1E1B
:104AE000002BEED0069811998260C16030C07EE73D
:104AF00001FCFFFF104D0000000014400000F03FDB
:104B0000300000000000F0430000E03FFFB597B028
:104B10000646002518E2252877D100242746FD49BE
:104B2000049400E00443761C32780120203A90403F
:104B30000842F7D130782A280ED002223078014678
:104B40003039092916D804990A23594330394018B5
:104B50001443761C0490F1E7189802C80491189049
:104B6000002904DA01204003044348420490022053
:104B70000443761C30782E2814D104200443707826
:104B8000761C2A2809D11898761C80C8189009E04C
:104B90000A214F43303FC719761C3078014630391F
:104BA0000929F5D930786C2810D006DC4C281AD0A9
:104BB00068280ED06A2817D104E0742813D07A2808
:104BC00012D110E00120400504430CE00121090549
:104BD00001E0032109050C437178814203D10120D2
:104BE00000052418761C761C3078119066280BD0AE
:104BF00013DC58287DD009DC00287BD04528F6D06E
:104C00004628F4D047281AD1A5E118E0632835D00A
:104C1000642870D0652812D19DE170286CD008DC22
:104C20006728F1D069287BD06E280DD06F2806D177
:104C3000BAE073282ED0752871D0782859D01A9AE6
:104C4000199990476D1C7EE16002400F022809D03F
:104C500003280DD00428189801680DD00D60001DA0
:104C6000189070E11898EA1701680D604A60F6E73D
:104C7000189801680D80F2E70D70F0E718986A4601
:104C800001781172001D18900020507202A8009047
:104C9000012005E0189802C8189000200091C04338
:104CA00061070DD5002101E00199491C0191B9422C
:104CB00012DA8142F8DB009A515C0029F4D10BE052
:104CC000002101E00199491C01918142FADB019A1E
:104CD0000099895C0029F5D1019904981A9B471A1B
:104CE00021463846199A00F097FA0199401945185B
:104CF0000BE04FE02CE113E04EE0009800990078C3
:104D0000491C00911A9A199990470198401E0190E8
:104D1000401CF2D1214638461A9B199A10E137E01F
:104D20000A200021009001916002410F022907D062
:104D3000189A01CA1892C2179446032908D00AE0AB
:104D40001898C01DC108C90005C91891944607E00C
:104D500000B2C2179446042902D140B2C1178C4652
:104D600000226146944506DA0A46002140429141FC
:104D70008C462D2102E0210504D52B216A461173B2
:104D8000012103E0E10701D02021F7E7029155E07E
:104D90000A200AE0102008E01020009000210420E2
:104DA00004430191082703E00820002101910090AD
:104DB0006002410F022907D0189A01CA18920022F6
:104DC0009446032908D008E01898C01DC108C900FE
:104DD00005C91891944603E080B2042900D1C0B2FD
:104DE00000210291210729D51199702906D0009A36
:104DF0001021019B4A401A4305D00EE040216A462B
:104E00001173012108E06146014306D030216A4652
:104E100011731199517302210291009A0821019B8B
:104E20004A401A430AD16146014301D1610705D5C1
:104E300030216A46117301217F1E02911199582970
:104E400004D035A10E910DA90D910DE037A1F9E720
:104E50006146019B009AFBF761F90E9B8C469B5CB7
:104E60000D9A521E0D92137061460143F0D10D98B8
:104E700005A9081A20300190600703D5012000041D
:104E8000844300E001270198874201DD381A00E0E1
:104E90000020019900904118029809180498401ABE
:104EA0000490E00306D421461A9B199A049800F056
:104EB000B3F94519002706E003A81A9AC05D1999AD
:104EC00090476D1C7F1C02988742F5DBE0030CD5F0
:104ED00021461A9B199A049800F09EF9451904E09E
:104EE0001A9A3020199990476D1C0099481E00901D
:104EF0000029F5DC08E00D980D990078491C0D910A
:104F00001A9A199990476D1C0199481E0190002921
:104F1000F1DC63E1092801003031323334353637B2
:104F200038396162636465660000000030313233F5
:104F30003435363738394142434445460000000095
:104F400000F05AF94519761C3078002800D0E2E5C7
:104F500028461BB0F0BD600700D406271898C01D76
:104F6000C108C90048680A680831C30FDB071891F7
:104F7000190001D09CA108E0210501D59BA104E006
:104F8000E10701D09AA100E09AA1430011985B08C3
:104F9000109165280CD006DC452809D046281DD084
:104FA000472841D141E0662818D067283CD13CE031
:104FB0000021112F01DB112000E0781C01910090ED
:104FC00008A911A8FFF7E8FC139905910021119A8F
:104FD00015927F1C12980197009150E00120C007A4
:104FE00003900120019008A9009711A8FFF7D4FCB5
:104FF000139A149905920022119B0092129815930E
:10500000059A0192002901D0104602E0791C40184F
:105010000190381A01D5019804E04042401E0090EA
:10502000781C0190C01B029043E0012F00DA012799
:105030000021112F01DD112000E038460191009080
:1050400008A911A8FFF7A8FC13990591119A00214E
:10505000129815920091019721070CD40599B94235
:1050600001DB019900E00191012904DD159A491E37
:10507000515C302906D0B84201DA011D05DA012160
:10508000029115E00199491EEDE7002805DC009921
:10509000411800910199091A03E0019A411C9142BB
:1050A00000DD01910099401A401C02900120C007C8
:1050B0000390200706D402990198814202DB002068
:1050C000C043029000206946C87707AF01210398CA
:1050D0000337C907884224D0022011902B20129058
:1050E000039800280CDA404203902D20129007E02C
:1050F0000A210398FAF7FCFF30317F1E03903970C4
:105100001199481E11900029F2DC03980028EFD174
:10511000791E129808703078202108404530BF1E53
:10512000387006A8C01BC01D039010980078002896
:1051300000D00120019941180298C017091803985E
:1051400009180498401A401E0490E00306D4214632
:105150001A9B199A049800F05FF845191098007886
:10516000002803D01A9A199990476D1CE00324D5A2
:1051700021461A9B199A049800F04EF845191CE034
:105180000098002807DB00990598884203DD1598F0
:10519000405C199901E0199930201A9A90470098BB
:1051A0006D1C401C00900298401E0290002804D103
:1051B0001A9A2E20199990476D1C0199481E01904A
:1051C0000029DDDC05E038781A9A7F1C1999904790
:1051D0006D1C0399481E03900029F4DC21461A9B9C
:1051E000199A0498ACE600002D0000002B00000086
:1051F0002000000000000000F8B5044600251E460F
:105200001746880404D405E039462020B0476D1CB9
:10521000641EF9D52846F8BDFFB50446002581B0C7
:105220001E46C80301D5302700E02027880404D596
:1052300005E038460399B0476D1C641EF9D5284631
:1052400005B0F0BD0A68531C0B6010707047000079
:10525000F8B50546002400F0F3FA00900098FF2806
:1052600002D00098002801D10120009000BF98488A
:10527000008802122046611C8CB22A54944802789D
:105280002046611C8CB22A5400BF00BF91480088A0
:1052900002122146601C84B26A548E48027821466C
:1052A000601C84B26A5400BF00BF8B4800880212A1
:1052B0002146601C84B26A54874802782046611CEB
:1052C0008CB22A5400BF00BF8448008802122146D5
:1052D000601C84B26A54814802782146601C84B202
:1052E0006A5400BF00BF7E48008802122146601C3D
:1052F00084B26A547A4802782046611C8CB22A54DF
:1053000000BF00BF7748008802122146601C84B2AB
:105310006A54744802782046611C8CB22A5400BF3B
:1053200000BF7148008802122046611C8CB22A54CA
:105330006D4802782046611C8CB22A5400BF6B492C
:1053400003C9FAF75AFF064600BF3046010E22464F
:10535000631C9CB2A95401020A0E2146631C9CB234
:105360006A5401040A0E2146631C9CB26A54214609
:10537000631C9CB2685400BF5D4903C9FAF73DFF46
:10538000064600BF3046010E2246631C9CB2A9545B
:1053900001020A0E2146631C9CB26A5401040A0EE3
:1053A0002146631C9CB26A542146631C9CB268541B
:1053B00000BF504903C9FAF720FF064600BF304638
:1053C000010E2246631C9CB2A95401020A0E21461A
:1053D000631C9CB26A5401040A0E2146631C9CB2F1
:1053E0006A542146631C9CB2685400BF00BF424906
:1053F0000868010E2246631C9CB2A95401020A0EE1
:105400002146631C9CB26A5401040A0E2146631CA7
:105410009CB26A542146631C9CB2685400BF00BF12
:1054200036490868010E2246631C9CB2A954010249
:105430000A0E2146631C9CB26A5401040A0E2146DE
:10544000631C9CB26A542146631C9CB2685400BF22
:1054500000BF2B490868010E2246631C9CB2A95468
:1054600001020A0E2146631C9CB26A5401040A0E12
:105470002146631C9CB26A542146631C9CB268544A
:1054800000BF00222046611C8CB22A542046611CB9
:105490008CB22A5404E000222046611C8CB22A54AB
:1054A000642CF8DB6421284600F0AAF90746204660
:1054B000611C8CB22F5438122146621C94B268547D
:1054C00010A0FCF797FA21462846FCF7A3FAF8BD8E
:1054D0000000002002000020040000200600002040
:1054E000080000200A0000200C000020100000200E
:1054F0001800002020000020280000202C000020A0
:10550000300000200D0A545820737472696E6720B1
:10551000746F206D6F646275733A2000F8B50346AE
:105520000C46104611490091002116E05D5C2D02E9
:10553000684000250DE00126F6030640002E04D049
:1055400046000A4F7E40B0B201E04604300C6E1CAB
:10555000F5B2082DEFDB4D1CE9B2A142E6DB044DAC
:10556000E8710104090EA971F8BD000021100000C6
:1055700046000020F0B58DB00446277860780C9086
:1055800038A0FCF737FA01210CA8FCF743FA37A042
:10559000FCF730FA36480078874206D0002F04D056
:1055A00034A0FCF727FA0DB0F0BDA0790002E17934
:1055B00008430B900621204600F022F9064633A04E
:1055C000FCF718FA324635A103A8FFF741F903A802
:1055D000FCF710FA0B98B04203D035A0FCF70AFA9A
:1055E000E1E708A8007C06283AD134A0FCF702FACB
:1055F000A0780002E17808430290207900026179E6
:10560000084305460298012829D130A0FCF7F2F999
:10561000012D24DBF72D22DC30A0FCF7EBF9E8B2FA
:1056200000F030F912490D700621204600F0E8F82C
:1056300001900198A07101980012E0716423082282
:1056400021462C48FEF7BEF92BA0FCF7D3F9012127
:105650000748FCF7DFF905A0FCF7CCF900BF00BF55
:1056600000BFA0E746756E633A2000000D0A0000F7
:105670003400002057726F6E6720536C617665208E
:10568000416464726573730D0A00000045787065AB
:1056900063746564204352433A2000004352432020
:1056A00063616C633A203078253034580D0A00006D
:1056B000435243204572726F720D0A0046756E6345
:1056C00074696F6E2030360D0A00000052656769FC
:1056D00073746572204F4B0D0A0000005772697495
:1056E000696E67206E657720616464726573730DFF
:1056F0000A000000080100204E65772041646472B2
:10570000205365743A2000001CB5FCF72BFFFEF710
:1057100027FBFCF723F9FCF7A5F96420FCF73EFD15
:1057200024A0FCF767F900F08BF80190012101A893
:10573000FCF770F9FEF7A2FA3BE00122214922486A
:10574000FEF790F821480078002832D000201F4949
:10575000087064231E4802881E491B48FEF732F970
:105760001DA0FCF747F91A4801881A48FCF752F9BE
:105770001848407806280DD11648FFF7FBFE19A0FF
:10578000FCF738F900F05CF8009001216846FCF75E
:1057900041F904E000200E490880FEF76FFA00206E
:1057A0000B490880FEF76AFA4B21C9000948FAF74D
:1057B000FEFCC2E7536C61766520616464726573B8
:1057C000733A20008900002090010020870000200B
:1057D000820000207A060020444542554720525856
:1057E0003A200000536C61766520416464726573F1
:1057F00073204368616E676564206E65773A2000A8
:1058000070B502460B460C48002112E0545C604023
:1058100000240AE0C507ED0F002D04D04510074E07
:105820007540284600E04010641C082CF2DB4C1C3C
:10583000A1B29942EADB70BDFFFF000001A00000A9
:1058400005480178FF2903D0002901D0F72901DD9F
:10585000012070470846FCE7007C000810B50246AE
:10586000002009E0135C4C1E241A145D14544C1ED5
:10587000241A1355431C98B2CC0F64186410844248
:10588000F0DC10BD7FB50446FCF71CFD0020019044
:105890000848029001200390694601A8FCF794FC97
:1058A00025462A4603490220FCF7E4FCFCF7D2FC1B
:1058B0007FBD0000007C000830313233343536378C
:1058C00038394142434445460000000000000000D2
:1058D000000102030406070809000000000102039A
:1058E00004030406080C1018203000000C590008AE
:1058F000000000209C00000072490008A859000820
:105900009C000020540C00008249000800000000A8
:105910000000000000000000000000000000000087
:105920000000000000000000000000000000000077
:105930000000000000000000000000000000000067
:105940000000000000000000000000000000000057
:1059500000000407A2FE00002C17280407A2FFA5E0
:105960005A010328676F4C656D756C6F56796C69C9
:105970006144020000000000000000000000000080
:1059800003000000000000000A000000000000000A
:105990000000000000000000000000000400000003
:0859A0000100000000002000DE
:04000005080000C12E
:00000001FF
