:020000040800F2
:10000000F00C0020D50000080F3A00080B3A000859
:1000100000000000000000000000000000000000E0
:10002000000000000000000000000000B53C0008D7
:100030000000000000000000133A0008B73C000870
:10004000E7000008E7000008E7000008E7000008F4
:10005000E7000008E7000008E7000008E7000008E4
:10006000E7000008E7000008E7000008E7000008D4
:10007000E7000008E700000800000000E7000008B3
:1000800000000000E7000008000000000000000081
:10009000E700000800000000E7000008E700000893
:1000A000E7000008E7000008E700000855470008DF
:1000B00065470008E700000800000000E7000008AE
:1000C0000348854600F0DEFA0048004771560008F4
:1000D000F00C00200448804704480047FEE7FEE794
:1000E000FEE7FEE7FEE7FEE7513D0008C10000081D
:1000F00030B50B46014600202022012409E00D46C0
:10010000D5409D4205D31D469540491B2546954047
:1001100040191546521E002DF1DC30BDF0B51FB45C
:100120000646002082B005464024019100901BE065
:10013000019922460F46304600F08BF8049A059B41
:10014000801A994110D310461946224600F071F8E2
:10015000361A8F410197224601200021009F00F0AE
:1001600068F838184D4100902046641E0028DFDCF6
:10017000019B00982946324607B0F0BD03460B4369
:100180009B0703D009E008C9121F08C0042AFAD24D
:1001900003E00B780370401C491C521EF9D27047D3
:1001A000D2B201E00270401C491EFBD2704700220F
:1001B000F6E710B513460A4604461946FFF7F0FF66
:1001C000204610BD421C0178401C0029FBD1801A3A
:1001D0007047C20FD207400040080BD0C10D072363
:1001E000DB01C91840020905400A1143C208400753
:1001F00011437047002001467047CB0FDB074900D1
:1002000010B5490802460A4307D00A0D072409031E
:10021000E401090B121B002A01DC002010BDC900FB
:10022000440F0C43C100E018D205801800F022F8FA
:1002300010BD10B5202A04DB0146203A9140002071
:1002400010BD914020239C1A0346E340194390407F
:1002500010BD10B5202A04DB0846203AD04000210A
:1002600010BD0B46D340D0402024A21A9140084331
:10027000194610BD002904DA401C490001D140088C
:100280004000704770B40024050C05D11024000410
:1002900002D1002921D01124050E01D10002083419
:1002A000050F01D10001241D850F01D18000A41C80
:1002B000002801DB4000641C002908D020252E1BEB
:1002C0000D46F540A14000D0012129430843010615
:1002D0001B1B000ADB1D02D5002070BC7047DB052C
:1002E000181880180029F8DA401C4900F5D170BCB4
:1002F0004008400070470000F0B5074608465840E7
:1003000087B0C00F049048000E46590040084908C5
:10031000BC1A884105D2384631461E4617460B4660
:1003200002465800400810434CD0300D0390400561
:100330005900400D490D0590401A0290402872DA8C
:1003400018030121000B090508430190049800924D
:10035000002805D001995242002088410092019066
:10036000029840210A1A01990098FFF762FF05469A
:100370000C466B4607CB00F097F9C0197141039A00
:100380000E0D0023D71756401A467A40164344D024
:10039000049A002A2DD0029A012A039A15DC12052C
:1003A000C01A914101263605001C7141D20F059EED
:1003B000D2070093019202962A46234600F094F950
:1003C00007B0F0BD38463146FAE71605224A0F4617
:1003D000B218C01AB74101210905001C4F4100188D
:1003E0007F41114618187941E20F10436D1964419D
:1003F00013E0E2076D0815436408C2071443039A2B
:1004000001261205C01A91413605001C7141CE0724
:10041000400830434908C01851412A46234600F09D
:1004200056F9CDE7FFE7049801224000C117121AE0
:1004300000238B4104983146C417381AA141EEE7D6
:1004400030B40124E407634030BC55E730B40124E4
:10045000E407614030BC4FE70000E0FFF0B51FB497
:1004600088B00B990998002448400999C00F4900A9
:1004700049080991C0070B990090490049080B9160
:1004800009990898A64608431CD00B990A98084376
:1004900018D0099801244000420D4800410D0998E8
:1004A00024050003000B204309900B980003000B68
:1004B00020430B9050181C4940180022019014460C
:1004C000104605E0002001460DB0F0BD032801DA1A
:1004D000034600E003239C46C11A0AAE0AE05F000F
:1004E00008ADED5B4F00F75B7D430027AA187C4108
:1004F000491C5B1E6145F2DD410004AB5A522104E8
:10050000120C0A43240C401C0828DFDB01980290DF
:100510000099704601910090059B049A07990698EE
:1005200000F0E2F8D0E700000DFCFFFFF0B50C464C
:100530005C4085B0E40FE40703944C000026640897
:1005400059009446490802460296224321D0624649
:100550000A431ED06200570D4A000E032303550DB7
:10056000012402462C492405781B1B0B360B40182E
:1005700023432643614600901C46501AB44103D3DE
:100580000098401C009002E0921800985B410028FF
:1005900003DA0020014605B0F0BD00200121090565
:1005A0000746864611E064461D46141BB54106D336
:1005B0006546521BB341744607430C43A646CD071C
:1005C00040084908284392185B4105460D43EAD18B
:1005D0001046184313D060461946504071400843F6
:1005E00006D06046101AB34106D20122002306E06D
:1005F00000220123DB0702E00122D24353100098BE
:1006000074460105381C6141029C039D0019694133
:1006100000F05DF8BFE70000FD0300004A00090399
:100620000123090B1B0519430A4B10B5520D9A42C1
:1006300002DA0020014610BD064B34339A4203DC37
:100640009A1AFFF706FE10BD034BD218FFF7F1FD13
:1006500010BD0000FF030000CDFBFFFF10B5002917
:1006600004DB0124E40740428C412146002B04DBDB
:100670001C460123DB075242A341994200D190421C
:1006800010BD0000064C0125064E05E0E36807CCCE
:100690002B430C3C98471034B442F7D3FFF714FDBA
:1006A000545800087458000810B5202A06DBCB17F0
:1006B0000846203A1041C1170B4306E00B46134190
:1006C000D0402024A21A91400843194610BD10B50D
:1006D000002B08DA0024401C614192185B411A4348
:1006E00001D14008400010BDF0B51FB482B00546EE
:1006F0000C0003D0084604F06FF802E004F06CF838
:1007000020300246009021462846FFF792FD049BC8
:10071000059A04460F4618431143084314D018465F
:1007200010431BD0009840210A1A18460599FFF77C
:1007300090FD05460E46009A05990498FFF779FD4D
:10074000084305D0012004E02046394607B0F0BD3B
:100750000020C11705430E432C43374300990E98E0
:100760006305401A7905E40A00220C43FD0A0A30A9
:1007700002D500200146E9E70105101969410C9CEA
:100780000D9D00196941FFF7A2FFDFE70EB5F8489C
:100790000078282801D301F04DF843007B449B8862
:1007A0005B009F44270058007B009A00B400D600ED
:1007B00008012D015F018401A301BE015B027502E6
:1007C0009F02D102FB022403440370038B03B50391
:1007D00029041E053D055D058905B305D205FE0505
:1007E000190644066F069A06B506D5060107810765
:1007F000AB07260855200290DEA001F0CFF80122B9
:10080000114602A801F04AF80120D94908703220A7
:1008100003F0B0FFDBA001F0C1F8DD480188DD483E
:1008200001F0CCF8DB48007855280BD0DAA001F0B5
:10083000B5F8DD480068401EDB4908600020CC495F
:100840000870FDE30120CA490870D7480068401EBF
:10085000D549086000BFD5A103C9029101900222C9
:10086000052101A801F01AF8282001F045FC3220EA
:1008700003F080FFC748007887280BD0C548007870
:10088000902807D0C3480078832803D00020B849B7
:100890000870D6E70220B649087000BFC5A103C999
:1008A000029101900222072101A800F0F7FF282001
:1008B00001F022FC322003F05DFFB64800780028EA
:1008C00007D0B4484078002803D00020A849087019
:1008D000B7E70320A649087000BFB8A000680290DF
:1008E0000722042102A800F0D9FF282001F004FC0F
:1008F000322003F03FFFA7480078802803D0002073
:100900009B4908709DE704209949087000BFACA17D
:1009100003C9029101900A22052101A800F0BEFF3F
:10092000282001F0E9FB322003F024FFA6480078DC
:10093000072809DB0420A549087004229549C91C31
:10094000A348FFF71BFC03E000208949087078E703
:1009500000BFA0A207CA6B4607C38E4881786846CD
:1009600001718C48C178684641718A4801796846AE
:100970008171884841796846C171864881796846A5
:1009800001728448C1796846417208220A2100F048
:1009900085FF282001F0B0FB322003F0EBFE7D48FC
:1009A0000078802803D000207149087049E70620AC
:1009B0006F49087000BF8AA103C9029101900A2201
:1009C000052101A800F06AFF282001F095FB3220E4
:1009D00003F0D0FE7C480078072809DB04207B491F
:1009E000087004226B49C91C7948FFF7C7FB03E074
:1009F00000205F49087024E707205D49087000BFA8
:100A000079A207CA6B4607C36248817868460171BC
:100A10006048C178684641715E48017968468171D5
:100A20005C4841796846C1715A48817968460172CB
:100A30005848C1796846417208220A2100F02EFF09
:100A4000282001F059FB322003F094FE5148007831
:100A5000802803D0002046490870F2E60820444967
:100A6000087000BF63A00068029063A000F096FFCA
:100A70000F22042102A800F011FF282001F03CFB06
:100A8000322003F077FE60A000F088FF4048018824
:100A9000404800F093FF3F480078802803D00020B2
:100AA00033490870CDE609203149087000BF3FA1E5
:100AB00003C9029101900622052101A800F0EEFE73
:100AC000282001F019FB322003F054FE3148007851
:100AD000902807D02F480078802803D00020244990
:100AE0000870AEE60A202249087000BF4BA103C976
:100AF000029101900222072101A800F0CFFE2820D8
:100B000001F0FAFA322003F035FE224800788728F7
:100B100003D000201649087093E60B201449087092
:100B200000BF40A103C90291019040A000F036FF30
:100B30000222052101A800F0B1FE282001F0DCFA14
:100B4000322003F017FE3EA000F028FF1048018875
:100B5000104800F033FF0F48007880287AD00D4805
:100B60000078802876D000200149087069E671E09D
:100B700072000020302053544154453D4543484FB6
:100B80000D0A00004543484F2052583A200000000B
:100B900080000020220400204543484F2045525247
:100BA0004F520D0A000000007C0000200403C2FF29
:100BB00028000000020502000010000004022607C1
:100BC0000403932008000000700000207100002042
:100BD00018040020040893700000000000000000CA
:100BE0000403952008000000040895700000000030
:100BF0000000000004026028382047455420564574
:100C00005253494F4E0D0A00474554205645525302
:100C1000494F4E2052583A200000000004050300BE
:100C200000002800040330F8280000003131205073
:100C300041474520524541442046380D0A000000F6
:100C40005041474520524541442046382052583AA9
:100C5000200000000C20FC49087000BFFB4903C9BC
:100C6000029101900222052101A800F017FE282020
:100C700001F042FA322003F07DFDF548007890281B
:100C800002D00020F04908700D20EF490870D8E527
:100C9000F0A103C902910190F0480068002803D038
:100CA00001206946887102E00020694688710222AD
:100CB000072101A800F0F2FD282001F01DFA3220E2
:100CC00003F058FDE2480078872807D0E048007814
:100CD000802803D00020DC490870B2E50E20DA49F4
:100CE000087000BFDEA211685068926802920091FD
:100CF0000190DEA000F052FEE1480188D44802F0E5
:100D000089FE06220921DF4800F0C8FD282001F0F5
:100D1000F3F9322003F02EFDDBA000F03FFED848AF
:100D20000188CB4800F04AFEC9480078902807D0D7
:100D3000C7480078802803D00020C349087080E5A8
:100D40000F20C149087000BFD4A207CA6B4607C371
:100D5000D5A000F023FE06220921D84800F09EFD10
:100D6000282001F0C9F9322003F004FDD4A000F0DE
:100D700015FEC3480188B64800F020FEB44800784C
:100D8000902807D0B2480078802803D00020AE49D0
:100D9000087056E51020AC49087000BFAB4903C984
:100DA00002910190CBA000F0F9FD0222052101A8DB
:100DB00000F074FD282001F09FF9322003F0DAFCE6
:100DC000CAA000F0EBFDAE480188A14800F0F6FD96
:100DD0009F480078902806D0C9A000F0DFFD0020D1
:100DE000994908702DE511209749087000BF97496F
:100DF000703103C9029101900222072101A800F07D
:100E00004DFD282001F078F9322003F0B3FC904822
:100E10000078872807D08E480078802803D00020EB
:100E2000894908700DE512208749087000BF87497D
:100E3000783103C902910190B6A000F0AFFD022203
:100E4000052101A800F02AFD282001F055F93220E3
:100E500003F090FC7D48943000F0A0FD88480188A4
:100E60007B4800F0ABFD7A480078802807D07848AE
:100E70000078802803D0002073490870E1E4132033
:100E80007149087000BF714903C9029101900222A3
:100E9000052101A800F002FD282001F02DF93220E3
:100EA00003F068FC6A480078902803D00020664967
:100EB0000870C6E414206449087000BF9AA103C9F1
:100EC0000291019065480068002803D0012069461E
:100ED000887102E00020694688710222072101A87A
:100EE00000F0DCFC282001F007F9322003F042FC7E
:100EF00057480078872807D055480078802803D0C5
:100F00000020514908709CE415204F49087000BF2B
:100F100087A103C90291019087A000F03FFD022242
:100F2000062101A800F0BAFC282001F0E5F83220E3
:100F300003F020FC86A000F031FD514801884448B0
:100F400000F03CFD42480078802803D000203E4954
:100F5000087076E43E482030807FA52824D13C48A4
:100F60002030C07F5A281FD17FA000F017FD02203B
:100F70008749087087480068401C864908604048D7
:100F80000188334802F046FD82480068022807DBEA
:100F900032480068C0433149086000207D4908603C
:100FA0001620294908704CE400207A490860284836
:100FB00040300078292814D02548403000782C286B
:100FC0000FD023484030007801280AD072A000F0EA
:100FD000E5FC02206E490870294801881C4802F08F
:100FE00019FD274801881A4802F014FD00F062FD3F
:100FF00016201549087024E45520029070A000F0D6
:10100000CDFC0122114602A800F048FC01200E4947
:101010000870322003F0AEFB0C48283800F0BEFC0C
:10102000174801880A4800F0C9FC0948007855288B
:1010300009D00648143800F0B1FC0020024900E055
:101040001BE20870FAE3C3E072000020AC0B00085A
:1010500022040020040501000000280038000020C0
:101060000407A2FE1E06138428000000313420501D
:101070004147452057524954452046450D0A000036
:10108000800000204600002050414745205752492B
:1010900054452046452052583A2000000407A2FF3C
:1010A000A55A29032800000031352050414745202A
:1010B00057524954452046460D0A00004F00002073
:1010C00050414745205752495445204646205258E2
:1010D0003A20000031362053544154453D205354AA
:1010E0004154452052455345540D0A005354415430
:1010F000452052455345542052583A2000000000E4
:101100005354415445205245534554204552524F63
:10111000520D0A0031382050414745205245414484
:101120002046380D0A0000000405000000002800D9
:1011300004043AF0FF280000323120504147452096
:10114000524541442046302D46460D0A000000001D
:101150005041474520524541442046302D464620C7
:1011600052583A20000000000A436F6D62696E61B8
:1011700074696F6E203320726573657420647565C1
:1011800020746F20413520616E642035410A2000B3
:10119000660000203C0000200A436F6D62696E61AA
:1011A00074696F6E20332072657365742073746187
:1011B0007465203231205F5F20370A200000000074
:1011C00032322053544154453D4543484F0D0A00A7
:1011D0001720FE490870FE480068401EFC49086060
:1011E00000BFFC4903C9029101900222052101A818
:1011F00000F054FB282000F07FFF322003F0BAFA01
:10120000F5480078872807D0F3480078902803D065
:101210000020EE49087011E31820EC49087000BF67
:10122000EC49703103C9029101900222072101A803
:1012300000F034FB282000F05FFF322003F09AFA20
:10124000E5480078872807D0E3480078802803D055
:101250000020DE490870F1E21920DC49087000BF67
:10126000DC49783103C902910190DCA000F096FBC3
:101270000222052101A800F011FB282000F03CFF0C
:10128000322003F077FAD348943000F087FBD84837
:101290000188D14800F092FBCF480078802807D021
:1012A000CD480078802803D00020C8490870C5E2E6
:1012B0001A20C649087000BFC64903C902910190AF
:1012C000CCA000F06BFB0622052101A800F0E6FA95
:1012D000282000F011FF322003F04CFACA4800F039
:1012E0005DFBC3480188BC4800F068FBBA48007841
:1012F000902807D0B8480078802803D00020B34950
:1013000008709BE21B20B149087000BFB1497031E1
:1013100003C902910190BDA000F040FB0222072109
:1013200001A800F0BBFA282000F0E6FE322003F00E
:1013300021FAA9480078872803D00020A349087023
:101340007CE21C20A149087000BFA249783103C982
:1013500002910190B2A000F021FB0222052101A818
:1013600000F09CFA282000F0C7FE322003F002FAB9
:101370009848943000F012FB9D480188964800F090
:101380001DFB95480078802807D093480078802876
:1013900003D000208D49087050E21D208B49087051
:1013A00000BF8C4903C9029101900222052101A8C6
:1013B00000F074FA282000F09FFE322003F0DAF9E2
:1013C00085480078902803D000208049087035E2D5
:1013D0001E207E49087000BF8B49983903C90291CD
:1013E000019094480068002803D001206946887164
:1013F00002E00020694688710222072101A800F05E
:101400004DFA282000F078FE322003F0B3F972483C
:101410000078872807D070480078802803D0002003
:101420006A4908700AE21F206849087000BF82A25A
:1014300007CA6B4607C383A000F0B0FA0622092151
:10144000854800F02BFA282000F056FE322003F0E9
:1014500091F96D48643800F0A1FA654801885E484A
:1014600000F0ACFA5C480078902807D05A48007821
:10147000802803D0002055490870DFE1202053491F
:10148000087000BF75A207CA6B4607C376A000F0BC
:1014900085FA06220921794800F000FA282000F098
:1014A0002BFE322003F066F957482C3800F076FA0C
:1014B0004F480188484800F081FA47480078902852
:1014C00007D045480078802803D000203F490870A5
:1014D000B4E121203D49087000BF3E4903C9029193
:1014E00001900222052101A800F0D8F9282000F07F
:1014F00003FE322003F03EF937480078902803D0ED
:1015000000203249087099E122203049087000BF5C
:101510003049703103C9029101900222072101A8CC
:1015200000F0BCF9282000F0E7FD322003F022F99A
:1015300029480078872807D027480078802803D0DA
:1015400000202249087079E123202049087000BF5B
:101550002049783103C90291019049A000F01EFA98
:101560000222052101A800F099F9282000F0C4FD0D
:10157000322003F0FFF81748943000F00FFA1C48AF
:101580000188154800F01AFA13480078802807D01F
:1015900011480078802803D000200C4908704DE1E4
:1015A00024200A49087000BF0A4903C9029101902A
:1015B0000222052101A800F071F9282000F09CFD0D
:1015C000322003F0D7F80448007863E0720000206E
:1015D0007C000020AC0B0008220400203235205093
:1015E00041474520524541442046380D0A0000003D
:1015F0008000002032362053544154452052455338
:1016000045540D0A00000000EC100008323720534A
:101610004543544F522053454C4543540D0A000056
:101620003238205041474520524541442046380D2C
:101630000A000000380000200407A2FE1E06F8740D
:10164000280000003331205041474520575249546B
:10165000452046450D0A0000460000200407A2FF71
:10166000A55A2C0328000000333220504147452062
:1016700057524954452046460D0A00004F000020AD
:101680003335205041474520524541442046380DCE
:101690000A000000902803D000206A490870CDE0BD
:1016A00025206849087000BF674903C9029101906D
:1016B00066480068002803D001206946887102E06E
:1016C0000020694688710222072101A800F0E6F88F
:1016D000282000F011FD322003F04CF85C4800781F
:1016E000872807D05A480078802803D00020554921
:1016F0000870A3E026205349087000BF5249DC312E
:1017000003C90291019053A000F048F9022206217A
:1017100001A800F0C3F8282000F0EEFC322003F00E
:1017200029F84948FC3000F039F950480188484808
:1017300000F044F946480078802803D00020414951
:1017400008707BE042482030807FA52824D14048A3
:101750002030C07F5A281FD1454800F01FF90220D1
:101760004449087044480068401C434908603F48A9
:101770000188374802F04EF93F480068022807DB2D
:1017800032480068C0433149086000203A49086087
:1017900027202C49087051E00020374908602C4868
:1017A00040300078292819D02948403000782C286A
:1017B00014D027484030007801280FD02C48303012
:1017C00000F0ECF802202B490870284801882048D6
:1017D00002F020F927201B4908702FE023480188D8
:1017E0001B4802F017F900F065F927201549087029
:1017F00000BF22A0006802900222042102A800F08B
:101800004DF8282000F078FC322002F0B3FF104899
:10181000007800280AD00E484078002806D018A08A
:1018200000F0BCF800200749087007E001201A49C1
:1018300008600EBD00200349087000BF00BF00BF54
:10184000F7E7000072000020541000083800002064
:10185000220400203338205041474520524541445E
:101860002046302D46460D0A000000008000002072
:1018700068110008660000203C0000200202000001
:1018800050524F54434F4C2053454C4543542045F0
:1018900052524F520D0A00007800002070B50546E4
:1018A0000E46144600200F4908700F4804700F4878
:1018B000048000200E4908804B21C9000D48FEF726
:1018C00076FC6423324629460B4802F029F80122AF
:1018D0000A49094801F074FF00F0E0FD084908607A
:1018E00070BD00006A00002070000020840000200D
:1018F0008000002022040020080100208800002031
:101900006C00002000B587B01F48406B012189039F
:1019100008431D49486300BF0846C06A02210843C6
:101920001949C8620846C06A02210840019000BFF8
:1019300000BF142102A8FEF73AFCC020029002204A
:10194000039000200490022005900020069002A938
:101950000E4800F0ABFC0E480E490860E120000282
:10196000486000210B48816001214903C1600021CA
:1019700001610C21416101F071FE03F015FF064980
:10198000087007B000BD00000010024000040050C5
:1019900000380140080100203400002070B50446E2
:1019A0002046FEF70FFC85B264232A4621460248F2
:1019B00001F0B6FF70BD000090010020F8B50546AB
:1019C0000E46002416E0285D00110D49095C6846AA
:1019D0000170285D0007000F0949095C68464170E5
:1019E00020218170642303226946064801F098FF94
:1019F000601C84B2B442E6DB03A0FFF7CFFFF8BD62
:101A000020580008900100200D0A000000B587B0A2
:101A10002448806B0121490408432249886300BFA0
:101A20000846C06A012108431E49C8620846C06AC8
:101A3000C007C00F019000BF00BF142102A8FEF72D
:101A4000B6FB0C200290022003900020049003209B
:101A500005900420069002A90520000700F026FC4E
:101A6000114812490860E1204002486000210F48F7
:101A70008160C16001610C21416101F0EFFD00282E
:101A800001D000F0F5F9002211461C2000F076FD8F
:101A90001C2000F065FD01220549044801F090FE7C
:101AA00007B000BD0010024000440040900100203B
:101AB0008900002070B59AB00026884801888848BF
:101AC00003F080FE87A0FFF769FF844801888448FF
:101AD000FFF774FF81480088282804DA8AA0FFF7FE
:101AE0005DFF1AB070BD7E488079012806D10126BD
:101AF0008B497B48C2890A80008A4880784880796F
:101B00002C2818D101267648007B86490880744825
:101B1000C07A854908807248807A84490880704874
:101B2000407A834908806E48007A824908806C4870
:101B3000C079814908806A48807929283DD10126E9
:101B400001207E4908606648007B76490880644829
:101B5000C07A754908806248807A74490880604874
:101B6000407A734908805E48007A724908805C4870
:101B7000C0797149088072495948428D0A80808D28
:101B8000488070495648C28C0A80008D48800822DF
:101B900053491E316C48FEF7F1FA082250491631BC
:101BA0006A48FEF7EBFA08224D490E316848FEF705
:101BB000E5FA4B48407B67490880012E7ED166A03C
:101BC000FFF7ECFE56486BA1026801A802F0F0FD99
:101BD00001A8FFF7E3FE53480088009052480388AD
:101BE0005248028869A101A802F0E2FD01A8FFF7AE
:101BF000D5FE5148008800904E4803884C48028822
:101C00006AA101A802F0D4FD01A8FFF7C7FE514860
:101C100002886EA101A802F0CBFD01A8FFF7BEFE6D
:101C200047480068FEF7D5FA044622460B466CA1E9
:101C300001A802F0BDFD01A8FFF7B0FE4148006811
:101C4000FEF7C7FA044622460B466AA101A802F035
:101C5000AFFD01A8FFF7A2FE3C4903C9FEF7CDFA8C
:101C60000446FEF7B6FA394A03C2384866A10CC8E2
:101C700001A802F09DFD01A8FFF790FE344903C9B9
:101C8000FEF7BBFA0446FEF7A4FA314A03C2304815
:101C900063A10CC801A802F08BFD01A8FFF77EFE2E
:101CA000294903C9FEF7A9FA0446FEF792FA264A23
:101CB00003C2254860A10CC801A800E00BE002F0B7
:101CC00077FD01A8FFF76AFE61A0FFF767FE002617
:101CD000664803F06DFA00BF03E7000080000020B3
:101CE000220400200A52657665727365642064617F
:101CF0007461205041474520524541442046302DD3
:101D000046462052583A2000496E76616C6964203C
:101D100064617461206C656E6774680D0A00000070
:101D200030000020000000200200002004000020FD
:101D300006000020080000200A0000207800002093
:101D40002C00002028000020200000201800002087
:101D5000100000200C0000202D2D2D2D2D2D2055A4
:101D60004152542044415441202D2D2D2D2D2D0D17
:101D70000A00000053657269616C204E6F20203AA2
:101D8000202530386C580D0A0000000054696D653C
:101D9000202020202020203A20253032643A25308F
:101DA00032643A253032640D0A00000044617465E3
:101DB000202020202020203A20253032642D25307C
:101DC00032642D3230253032640D0A004261736571
:101DD00020556E697420203A2025640D0A00000009
:101DE00054656D70657261747572653A20252E3286
:101DF000660D0A00466C6F77202020202020203AB4
:101E000020252E32660D0A00466F727761726420BB
:101E1000566F6C3A20252E366C660D0A00000000C5
:101E2000546F74616C20566F6C20203A20252E363A
:101E30006C660D0A000000005265766572736520BD
:101E4000566F6C3A20252E366C660D0A0000000095
:101E50002D2D2D2D2D2D2D2D2D2D2D2D2D2D2D2DB2
:101E60002D2D2D2D2D2D2D0D0A0000009C00002064
:101E700072B600BFFEE7000000210A4A51610A491C
:101E80004968012252021143074A516011464968CC
:101E900008221143044A51600021C209D201116095
:101EA00070470000D408002000200240002039497B
:101EB0008969FF2201321140914208D136494969AE
:101EC00002221143344A5161FF2101310843314953
:101ED0008969012252021140914208D12E49496973
:101EE000012211432C4A5161012149020843294929
:101EF0008969012292021140914208D1264949691B
:101F000008221143244A51610121890208432149D1
:101F100089690122D2021140914208D11E494969C2
:101F2000042211431C4A51610121C9020843194985
:101F30008969012252031140914208D11649496929
:101F400010221143144A51610121490308431149E8
:101F50008969012252041140914207D10E49496911
:101F6000202211430C4A5161202108430949896903
:101F7000012212041140914208D1074949694022C7
:101F80001143054A5161012109040843014988614F
:101F90007047000000200240D408002070B50446BD
:101FA00000F07CFA05460BE0601C002808D0002CED
:101FB00004D000F073FA401BA04201D9032070BD89
:101FC0001F488069C007C00F0028EDD11C488069F8
:101FD00002210840022801D1194988611848806906
:101FE000FF2101310840884223D01548806949000B
:101FF000084088421DD01248806949000840884244
:1020000017D00F48806949000840884211D00C4819
:1020100080698900084088420BD00948806909011D
:102020000840884205D00648806949100840884227
:1020300003D1FFF73BFF0120C1E70020BFE700000D
:1020400000200240014600222520405C022808D0E2
:102050000420C86300BF00232420435400BF012094
:102060007047086800680E2398430B68186008687A
:102070000068400840000B6818601C23486C18403A
:1020800001238340086C436001232520435400BF93
:1020900000232420435400BF1046E1E770B50446F6
:1020A00000252520005D022803D00420E0630125DF
:1020B00020E0206800680E218843216808602068BD
:1020C000006840084000216808601C21606C0840DE
:1020D00001218140206C416001212520015500BF74
:1020E00000212420015500BFA06B002802D020460B
:1020F000A16B8847284670BD70B5044600F0CEF944
:1021000006462546681C002802D0054800782D1890
:1021100000BF00F0C3F9801BA842FAD370BD0000D5
:1021200094000020F8B504460F46002600BF1D4865
:10213000007C012801D10220F8BD01201949087452
:1021400000BF1948FFF72AFF0546002D22D1401E87
:102150003860666817E03046FFF78EFE1248FFF7DA
:102160001DFF054611484068082188430F49486013
:1021700008464068491588430C494860002D01D045
:102180003E6006E08036A068C00161684018B04239
:10219000E1D800BF00BF00200249087400BF2846F4
:1021A000CAE70000D408002050C30000002002400D
:1021B00006484068022108430449486008464068D0
:1021C0000121084301494860002070470020024077
:1021D000F8B507460D46164600BF0F48007C01289B
:1021E00001D10220F8BD01200B49087400BF0B4843
:1021F000FFF7D4FE0446002C06D1074948612E6043
:102200000648FFF7CBFE044600BF002002490874D1
:1022100000BF2046E6E70000D408002050C30000BD
:102220001D484068C007C00F002816D000BFEFF35C
:102230001080014600BF72B61848174AD06018488F
:10224000D06000BF81F3108800BF10464068C0070F
:10225000C00F002801D0012070470F4840680222BB
:102260001040022815D100BFEFF31080014672B66E
:102270000C48094A10610C481061084680F3108828
:1022800000BF1046406802221040022801D1012000
:10229000E2E70020E0E7000000200240EFCDAB893C
:1022A00005040302BFAE9D8C1615141370B50346CA
:1022B0000A46002100240020DCE001268E4015683B
:1022C00035402C46002C79D01579AD07AD0F012D86
:1022D00004D01579AD07AD0F022D18D198684E00C6
:1022E0000325B5400646AE4330464E00D568B5409E
:1022F00028439860586801258D400646AE43304615
:102300001026556835402D098D40284358601579B1
:10231000AD07AD0F032D0BD0D8684E000325B54097
:102320000646AE4330464E009568B5402843D86017
:102330001579AD07AD0F022D15D1CD08AE001D46A4
:102340002035A8594D07EE0E0F25B5400646AE4381
:1023500030464E07F60E1569B5402843CD08AD004E
:102360001E462036705118684E000325B5400646BB
:10237000AE4330461579AD07AD0F4E00B54028434A
:1023800018600326360455683540002D71D03C4D49
:102390006D6B012635433A4E75633A4D8E08B60093
:1023A000A8598D072E0F0F25B5400646AE4330467F
:1023B00005252D07AB4202D1002515E059E0324D2D
:1023C000AB4201D101250FE0304DAB4201D10225D6
:1023D0000AE02F4DAB4201D1032505E02D4DAB4264
:1023E00001D1052500E006258E07360FB5402843AC
:1023F000244D8E08B600A851274DA8680546A54370
:1024000028460126360555683540002D02D0054680
:1024100025432846204DA860E8680546A543284680
:102420000126760555683540002D02D00546254326
:102430002846194DE86068680546A54328460126E8
:10244000760455683540002D02D0054625432846C0
:10245000114D686028680546A543284601263604C4
:1024600055683540002D02D00546254328460A4DC3
:102470002860491C1568CD40002D00D01DE770BDB7
:102480000010024008000140000400500008005005
:10249000000C0050001C005000040140014800687E
:1024A000704700008C000020034800680349097849
:1024B00040180149086070478C00002094000020FB
:1024C00010B5002408480068402108430649086008
:1024D000032000F00BF8002801D0012401E000F0F7
:1024E0002FF8204610BD00000020024070B50446C1
:1024F000104801787D20C000FDF7FAFD0646314600
:102500000D480068FDF7F4FD054600F085FE002843
:1025100001D0012070BD042C07D200222146501E9C
:1025200000F02CF80548046001E00120F2E70020EB
:10253000F0E70000940000209800002090000020A8
:102540000648406B01210843044948630846806BF4
:1025500009040843014988637047000000100240E5
:102560000146002905DBCB06DB0E01229A40024B17
:102570001A6000BF7047000000E100E070B504463B
:102580000D4616462946204602F064F970BD00004B
:10259000F8B50446002720212068084020287BD178
:1025A00020680840202800D100BF8A48806B0121A4
:1025B00009070840002805D18648806B08438549F3
:1025C0008863012784480068FF2101310840002802
:1025D00016D18148006808437F490860FFF75EFF15
:1025E000064606E0FFF75AFF801B642801D9032046
:1025F000F8BD79480068FF21013108400028F1D07A
:1026000074480568032109050D4060680840A84228
:102610000DD0091160680840884208D16D480068F3
:10262000012149040840884201D10120E0E76948BE
:10263000403000690321090408400546002D3DD0C3
:1026400060680840A84239D020212068084020282E
:1026500034D16048403000690321090488430546AD
:102660005C48403000690121C904084359494031A0
:102670000861084600690121C90488435549403171
:10268000086108460561801528408915884215D1E2
:10269000FFF704FF064608E03DE0FFF7FFFE801B62
:1026A0004E49884201D90320A2E74A4840300069D8
:1026B000012149020840400A0028EED0202120686C
:1026C000084020281FD100BF00BF03210904606813
:1026D000084088420AD13F48006809018843032224
:1026E00012056168114008433A49086000BF394843
:1026F00040300069032212046168114008433549E3
:102700004031086100BF012F05D13248806B390785
:102710008843304988632078C007C00F002809D05B
:102720002C484030C06880088000A16808432949CF
:102730004031C860022120680840022809D125489C
:102740004030C0680C218843E1680843214940318A
:10275000C86004212068084004280AD11D48403080
:10276000C06803218902884321690843194940311F
:10277000C86008212068084008280AD11548403060
:10278000C068032109038843616908431149403146
:10279000C860402120680840402809D10D484030D9
:1027A000C06809058843E16908430A494031C860A7
:1027B00080212068084080280AD106484030C0683F
:1027C000032189048843A169084302494031C86054
:1027D00000200DE700100240007000408813000048
:1027E000F8B504460E46002C01D10120F8BD8348FF
:1027F0000068C007C00FB04218D280480068400887
:10280000400030437D490860FFF748FE054607E079
:10281000FFF744FE401B7A49884201D90320E5E7CF
:1028200076480068C007C00FB042F1D1022120688D
:102830000840022807D17348C068F0218843A16886
:1028400008437049C8602078C007C00F00284CD0EA
:102850006068022809D16B480068012149040840DA
:10286000400C002824D10120C0E76068032809D16A
:1028700064480068012149060840400E002817D12D
:102880000120B3E76068012808D15E480068042190
:102890000840800800280BD10120A7E759480068AC
:1028A000012149020840400A002801D101209DE78A
:1028B0005448C06880088000616808435149C86076
:1028C000FFF7ECFD0546606802280FD107E0FFF72F
:1028D000E5FD401B4A49884201D9032086E7494863
:1028E000C0680C2108400828F1D134E06068032852
:1028F0000FD107E0FFF7D2FD401B4149884201D9C3
:10290000032073E73F48C0680C2108400C28F1D130
:1029100021E0606801280FD107E0FFF7BFFD401BF1
:102920003749884201D9032060E73648C0680C2146
:1029300008400428F1D10EE007E0FFF7AFFD401B8F
:102940002F49884201D9032050E72E48C0680C2146
:1029500008400028F1D129480068C007C00FB042E4
:1029600018D92648006840084000304323490860D1
:10297000FFF794FD054607E0FFF790FD401B204957
:10298000884201D9032031E71C480068C007C00F06
:10299000B042F1D1042120680840042808D1194828
:1029A000C068072109028843E16808431549C860E7
:1029B000082120680840082809D11248C06807216A
:1029C000C90288432169C90008430E49C86000F064
:1029D0004BF80C49C968F022114009090A4A515CB8
:1029E000C8400A4908600A480068FFF77FFD0746AB
:1029F000002F01D03846F9E60020F7E6002002401B
:102A00008813000000100240315800089800002090
:102A100090000020014800687047000098000020E6
:102A200000B5FFF7F7FF0549C968072212021140F8
:102A3000090A034A515CC84000BD00000010024072
:102A40004158000800B5FFF7E5FF0549C9680722AE
:102A5000D2021140C90A034A515CC84000BD0000BF
:102A60000010024041580008FEB52E48C7680C20EF
:102A70003840002845D0042804D008280CD00C2861
:102A80003ED10BE02748006810210840002801D003
:102A9000254C00E0254C41E0254C3FE00F20800410
:102AA0003840800C23490E5C032080053840800D9F
:102AB000401C01901B48C0680121090408400028FF
:102AC00007D01B49714308460199FDF711FB0546E4
:102AD00014E01448006810210840002807D012496B
:102AE000714308460199FDF703FB054606E00F49CF
:102AF000714308460199FDF7FBFA05462C460DE0A7
:102B000000BF08484068072149030840400B009077
:102B10000098401C01218140CC0300BF00BF20462B
:102B2000FEBD00000010024000093D000024F4003A
:102B300000127A0049580008FEB50446002C01D165
:102B40000120FEBDF948C6680C210E40C76801216E
:102B500009040F402078C007C00F002872D0082E4B
:102B600004D00C2E0FD1084687420CD1EF480068E4
:102B7000012149040840400C002863D06068002807
:102B800060D10120DDE700BF0121090460688842AF
:102B900005D1E64800680843E449086027E00521BC
:102BA0000904606888420ED1E04800680121890468
:102BB0000843DE490860084600680121090408430B
:102BC000DA49086013E0D948006801210904884304
:102BD000D6490860084600680121090408400090B1
:102BE00000BFD248006889008843D049086000BF10
:102BF0006068002813D0FFF751FC054606E0FFF798
:102C00004DFC401B642801D903209AE7C74800689F
:102C1000012149040840400C0028F0D012E0FFF7E1
:102C20003DFC054606E0FFF739FC401B642801D94E
:102C3000032086E7BD480068012149040840400C94
:102C40000028F0D102212068084002287BD1E068EA
:102C50000290042E03D00C2E35D1002F33D1B3486F
:102C60000068042108408008002804D00298002849
:102C700001D1012065E7AD4840681F210902884362
:102C8000216909020843A9494860084600680921EA
:102C9000884302990843A5490860FFF7E5FEA34968
:102CA000C968F02211400909A14A515CC840A149F4
:102CB0000860A1480068FFF719FC019001980028FE
:102CC00041D001983DE70298002824D09748006839
:102CD000092188430299084394490860FFF7DEFB05
:102CE000054606E0FFF7DAFB401B022801D9032066
:102CF00027E78E4800680421084080080028F1D0AA
:102D00008A4840681F210902884321690902084353
:102D10008649486017E085480068400840008349BC
:102D20000860FFF7BBFB054606E0FFF7B7FB401B5B
:102D3000022801D9032004E77C48006804210840E8
:102D400080080028F1D1102120680840102868D19F
:102D5000002E37D17548006849010840400A002814
:102D600004D0E069002801D10120EAE66F484068FC
:102D7000072149038843616A08436C494860084653
:102D800040680002000A218C090608436749486030
:102D9000606A400B401C01218140C8036349C96837
:102DA000F02211400909624A515CC840614908603B
:102DB00061480068FFF79AFB0190019800284BD00A
:102DC0000198BEE6E06900282CD058480068FF2131
:102DD0000131084355490860FFF760FB054606E0EE
:102DE000FFF75CFB401B022801D90320A9E64F48EE
:102DF0000068012149020840400A0028F0D04B48F1
:102E00004068072149038843616A0843474948608D
:102E1000084640680002000A218C0906084343491D
:102E2000486019E041480068FF21013188433F496B
:102E30000860FFF733FB054606E0FFF72FFB401B5A
:102E4000022801D903207CE63848006801214902A4
:102E50000840400A0028F0D10821206808400828CE
:102E600039D1606900281BD0304840300069012109
:102E700008432E4940310861FFF710FB054606E084
:102E8000FFF70CFB401B022801D9032059E6274815
:102E9000403000690221084040080028F0D01AE0C4
:102EA0002248403000694008400020494031086114
:102EB000FFF7F4FA054606E0FFF7F0FA401B022898
:102EC00001D903203DE6194840300069022108403D
:102ED00040080028F0D104212068084004287BD154
:102EE000002000901148806B89060840002806D118
:102EF0000E48806B08430D498863012000900F48FD
:102F00000068FF2101310840002820D10B480068EB
:102F100008430A490860FFF7C1FA054610E0FFF7C9
:102F2000BDFA401B64280BD903200AE600100240BA
:102F300031580008980000209000002000700040E8
:102F4000B1480068FF21013108400028E7D000BFE8
:102F5000FF210131A068884205D1AC4800690843CF
:102F6000AA49086130E0A06800280DD1A74800698F
:102F7000FF2101318843A549086108460069091508
:102F80008843A24908611FE005210902A068884220
:102F90000DD19E4800690121890208439B490861BF
:102FA0000846006989150843984908610CE097486C
:102FB0000069FF210131884394490861084600698E
:102FC000091588439149086100BFA068002815D001
:102FD000FFF764FA054608E031E0FFF75FFA401BAF
:102FE0008B49884201D90320ABE58848006901215B
:102FF00049020840400A0028EFD013E0FFF74EFADC
:10300000054607E0FFF74AFA401B8149884201D98B
:10301000032096E57D480069012149020840400AE5
:103020000028EFD10098012808D178484038806BFB
:1030300001210907884375494039886300BF202171
:1030400020680840202852D1A06900282BD000BF5A
:103050006E4840388068012108436C4940398860D7
:103060000846406B01210843684940394863694874
:10307000006A0121490308436649086200BFFFF75F
:103080000DFA054606E0FFF709FA401B022801D9B0
:10309000032056E55D48403880680221084040081A
:1030A0000028F0D023E000BF58484038806840082E
:1030B00040005649403988605648006A012149035A
:1030C00088435449086200BFFFF7E8F9054606E067
:1030D000FFF7E4F9401B022801D9032031E54B48F2
:1030E000403880680221084040080028F0D1A06ADA
:1030F00000284CD00C2E69D0A06A022848D1434841
:103100004038006801210906884340494039086079
:10311000FFF7C4F9054606E0FFF7C0F9401B022897
:1031200001D903200DE539484038006801214906DE
:103130000840400E0028EFD1216BE06A0843616B24
:10314000084332494039C968FD22120491430843BB
:103150002E494039C8600846006801210906084325
:103160002A4940390860FFF799F9054606E0FFF75C
:1031700095F9401B022801D90320E2E42348403896
:103180000068012149060840400E0028EFD038E0D1
:103190001E48403800680121090688431B49403910
:1031A0000860FFF77BF9054606E0FFF777F9401B5B
:1031B000022801D90320C4E41448403800680121E2
:1031C00049060840400E0028EFD11AE0A06A012805
:1031D00000D1B6E40D484038C768012000043840EB
:1031E000E16A88420BD10F2080043840216B88426D
:1031F00005D1032080053840616B884201D0012051
:103200009FE400209DE40000007000404010024058
:10321000881300000000014070B504462546681E72
:103220000949884201D901200CE0681E074948611C
:103230000321081F01F00EFB0020044988610720CC
:103240000861002070BD0000FFFFFF0000E000E00B
:103250007047704770470000F0B585B0044620689D
:10326000C5692068066820688768F8482840039088
:10327000039800280FD12020284000280BD02020C0
:103280003040002807D0A06E002802D02046A16E52
:10329000884705B0F0BD039800287DD0F807C00F1F
:1032A000002803D1EA4830400028F6D0E807C00FD4
:1032B00000280DD0FF2001303040002808D0012028
:1032C00021680862842000590121084384210851A3
:1032D0000220284000280CD0F807C00F002808D092
:1032E00002202168086284200059042108438421B7
:1032F00008510420284000280CD0F807C00F0028EF
:1033000008D0042021680862842000590221084363
:103310008421085108202840002810D02020304067
:10332000002803D1F807C00F002808D00820216822
:103330000862842000590821084384210851012093
:10334000C002284000280ED001208006304000280E
:1033500009D00120C0022168086284200059202180
:1033600008438421085184200059002854D020208B
:103370002840002809D020203040002805D0A06E29
:10338000002802D02046A16E884784200059029070
:1033900020688068402100E03FE00840402804D0D9
:1033A000282102980840002830D0204600F0D4FDA3
:1033B0002068806840210840402823D100BF01F0E8
:1033C00085FA0190012001F093FA2068806840217D
:1033D000884321688860019801F08AFA00BF606F15
:1033E00000280BD09B48616F8863606FFEF756FE24
:1033F000002811D0606F816B88470DE02046FFF7F1
:1034000029FF09E02046FFF725FF05E02046FFF7EA
:1034100021FF0021842001513BE7206E01287DD14E
:1034200010202840002879D0102030400028FAD001
:1034300010202168086220688068402108404028E8
:103440006DD1606F0068406880B2019001980028DB
:103450006BD05820015B0198814266DD5A210198AA
:103460000853606F006800682021084000284CD194
:1034700000BF01F02BFA0090012001F039FA20681A
:103480000068FF210131884321680860009801F03D
:103490002FFA00BF00BF01F019FA0090012001F0DF
:1034A00027FA2068806840084000216888600098FA
:1034B00001F01EFA00BF00BF01F008FA00900120E1
:1034C00001F016FA206880684021884321688860EE
:1034D000009801F00DFA00BF20218020015100204A
:1034E000206600BF01F0F2F90090012001F000FA1F
:1034F000206800681021884321680860009801F066
:10350000F7F900BF606FFEF79DFD0220606658204E
:10351000025B5A20005B101A81B202E068E018E0FA
:1035200003E02046FFF794FE12E05820015B01986B
:1035300081420DD1606F006800682021084020287A
:1035400006D1022060665820015B2046FFF780FE0E
:103550009FE65820015B5A20005B081A80B2019058
:103560005A20005B002842D0019800283FD000BFBD
:1035700001F0ACF90090012001F0BAF92068006870
:10358000FF212131884321680860009801F0B0F9DB
:1035900000BF00BF01F09AF90090012001F0A8F9E6
:1035A000206880684008400021688860009801F029
:1035B0009FF900BF20218020015100202066A066D5
:1035C00000BF01F083F90090012001F091F920681B
:1035D00000681021884321680860009801F088F98C
:1035E00000BF0220606620460199FFF731FE50E6D9
:1035F00001200005284000280CD00120800538401B
:10360000002807D001200005216808622046FFF746
:1036100020FE3EE68020284000280AD0802030404E
:10362000002806D0E06E002802D02046E16E8847D0
:103630002FE64020284000280ED0402030400028AF
:103640000AD0204600F0C8FC23E600000F08000066
:1036500020010004453F000800BF1AE610B50446EB
:10366000002C01D1012010BDA069002800D000E08D
:1036700000BFE06F002805D10021782001552046C9
:1036800000F02CF82420E067206800684008400023
:1036900021680860606A002802D0204600F059FBCB
:1036A000204600F0E5FD012800D1DCE720684068F5
:1036B0000921C902884321684860206880682A215E
:1036C00088432168886020680068012108432168D8
:1036D0000860204600F0B6FBC5E7000010B586B0D4
:1036E0000446142101A8FCF762FD31492068884294
:1036F0002BD13048406B0121890308432D49486391
:1037000000BF0846C06A022108432A49C862084629
:10371000C06A02210840009000BF00BFC020019095
:1037200002200290002003900320049000200590C6
:1037300001A92148FEF7BAFD002211461B20FEF721
:103740001DFF1B20FEF70CFF2FE01C49206888425C
:103750002BD11848806B012149040843154988631F
:1037600000BF0846C06A012108431249C8620846E2
:10377000C06AC007C00F009000BF00BF0C200190BE
:103780000220029000200390032004900420059062
:1037900001A905200007FEF789FD002211461C2023
:1037A000FEF7ECFE1C20FEF7DBFE06B010BD0000AD
:1037B0000038014000100240000400500044004066
:1037C000F8B504460D46164680200059202838D109
:1037D000002D01D0002E01D10120F8BD01210903E7
:1037E000A068884208D12069002805D1E807C00FE9
:1037F000002801D00120F0E700202066124920684F
:10380000884218D0206840680121C9050840002876
:1038100011D000BF01F05AF80746012001F068F806
:10382000206800680121890608432168086038463D
:1038300001F05EF800BF32462946204600F0A0FEA7
:10384000CBE70220C9E700000048004070B50446FD
:1038500026492068884221D12548057825480188D5
:103860000088401C234A1080234845541046008895
:103870004B21C900884202DB0020114608801D4808
:1038800000881E490988884202DB01201C49087013
:10389000012217491B48FFF793FF26E01A492068C9
:1038A000884222D119480578002019490870194822
:1038B00001880088401C174A10801748455410465C
:1038C00000884B21C900884202DB00201146088095
:1038D00010480088052802DB01200D4908700122EC
:1038E0000A490E48FFF76CFF00BF70BD0038014069
:1038F0008800002080000020220400208400002096
:103900006A000020080100200044004089000020D7
:1039100087000020820000207A060020900100200D
:10392000FFB583B004460D461746E06F202869D1E5
:10393000002D01D0002F02D1012007B0F0BD0121E0
:103940000903A068884208D12069002805D1E8074A
:10395000C00F002801D00120EFE700218420015191
:103960002120E067FEF79AFD019050200753522076
:10397000075301210903A068884205D12069002866
:1039800002D10026029502E02E460020029023E09C
:1039900006980090002280212046019B00F080FEC6
:1039A000002803D02020E0670320C6E7002E09D1BD
:1039B00002980088C005C00D216888620298801CAA
:1039C000029003E0307821688862761C5220005B08
:1039D000401E81B2522001535220005B0028D7D1F3
:1039E00006980090002240212046019B00F058FEDE
:1039F000002803D02020E06703209EE72020E06716
:103A000000209AE7022098E7704700BFFEE700BF5A
:103A1000FEE77047FEB504460D46002600200190E3
:103A20000C2D00DAFEBD28460C38265C401C205CBC
:103A3000019004205149087007204870A220887026
:103A4000FE20C870084606710198487104204C4950
:103A5000087007204870A2208870FF20C870A52039
:103A600008715A2048712D2D29DB4648007801281D
:103A700025D145480068002821D10121434A117011
:103A80002921095D09062A22125D120411432B2205
:103A9000125D120211432C22125D114308460028C8
:103AA0000CD03B490968884208D0394B1860010C9A
:103AB00082B20B465340374F3B8000BF00BF3348B4
:103AC0000078022815D134A0FDF768FF00202B49AB
:103AD000087148712C2088711720C8712820284946
:103AE0000872012088710320C871282023490872B8
:103AF00098E72648007800281AD12CA0FDF74EFF41
:103B00002C201F4988710320C8712DA000680090E7
:103B10000846C17968460170194881796846417044
:103B20001C4802880421684601F0ACFC07461EE0F0
:103B30001648007801281AD122A0FDF72FFF29206E
:103B40000F4988710320C8711DA0006800900846C5
:103B5000C179684601700A488179684641700D480C
:103B600002880421684601F08DFC074600BF28202A
:103B7000024908720249087200BF53E7460000205C
:103B80004F000020620400203C000020660000205E
:103B900040000020440000200D0A20436F6D626940
:103BA0006E6174696F6E2033200D0A000D0A204388
:103BB0006F6D62696E6174696F6E2031200D0A004D
:103BC00000005AA50D0A20436F6D62696E61746929
:103BD0006F6E2032200D0A0000B589B00A202049FE
:103BE000086000201F4908701F4908601F490870BD
:103BF000012149021E48FCF7DAFA00201D4908801D
:103C000016E0FCF7C3FD1748007800280DD11648D0
:103C100003681348026818A101A800F0C9FD01A8B3
:103C2000FDF7BCFE1BA0FDF7B9FE0120FEF764FA0C
:103C30000B480068002803D00B4800680028E0D03B
:103C400016A00068009016A0FDF7A8FE022204212D
:103C50006846FDF723FE2820FEF74EFA09B000BDA6
:103C60007C000020720000207800002087000020E7
:103C700018020020680000205245545259203A2072
:103C800025642020205354415445203A2025640DBA
:103C90000A0D0A000D0A0D0A0000000002020000D1
:103CA00033392053544154453D50524F544F434FA4
:103CB0004C0D0A00704710B5FEF7F6FB10BD000072
:103CC00000B59BB038210DA8FCF771FA142108A8A3
:103CD000FCF76DFA20216846FCF769FA1B4800687A
:103CE0000321C90288430121C9024018174908600D
:103CF00002200D90012010901020119000201790AC
:103D00000DA8FEF719FF002801D0FEF7B1F80F202B
:103D100008900120099000200A900B900C9000213F
:103D200008A8FEF75DFD002801D0FEF7A1F80320EA
:103D300000900020029003906846FEF729FC0028BE
:103D400001D0FEF795F81BB000BD000000700040E8
:103D500070470822416A1140082907D10168496863
:103D600012039143426B114302685160818CC90771
:103D7000C90F002908D00168496801225204914303
:103D8000826A1143026851600222416A114002298D
:103D900007D101684968D2039143C26A114302689E
:103DA00051600422416A1140042907D10168496821
:103DB00012049143026B1143026851601022416A60
:103DC0001140102907D10168896812029143826B62
:103DD0001143026891602022416A1140202907D1D5
:103DE0000168896812029143C26B114302689160B5
:103DF0004022416A1140402915D101684968920367
:103E00009143026C11430268516001221205016C5A
:103E1000914208D101684968032252059143426CDE
:103E20001143026851608022416A1140802907D104
:103E30000168496812039143826C11430268516022
:103E400070470000F8B50446002184200151FEF7B8
:103E500025FB05462068006808210840082823D172
:103E600037482B46002289040090204600F018FCB9
:103E7000002819D000BF00F029FD0646012000F0FF
:103E800037FD20680068802188432168086030463B
:103E900000F02EFD00BF2020E06700BF0021782049
:103EA000015500BF0320F8BD2068006804210840C8
:103EB000042836D122482B460022090500902046CE
:103EC00000F0EEFB00282CD000BF00F0FFFC0646FF
:103ED000012000F00DFD20680068FF21213188439A
:103EE00021680860304600F003FD00BF00BF00F00D
:103EF000EDFC0646012000F0FBFC206880684008CD
:103F0000400021688860304600F0F2FC00BF2021AC
:103F10008020015100BF00217820015500BF0320FF
:103F2000C1E72020E0672021802001510020206689
:103F3000606600BF00217820015500BF0020B2E775
:103F4000FFFFFF0170B50446A56A00215A204153C6
:103F50002846FFF77FF970BD70B5044600BF00F03A
:103F6000B5FC0546012000F0C3FC20680068FF2175
:103F70002131884321680860284600F0B9FC00BF61
:103F800000BF00F0A3FC0546012000F0B1FC206852
:103F900080684008400021688860284600F0A8FC3E
:103FA00000BF206E012810D100BF00F08FFC054635
:103FB000012000F09DFC20680068102188432168E2
:103FC0000860284600F094FC00BF202180200151A9
:103FD00000202066A06670BD70B5044600BF00F0EA
:103FE00075FC0546012000F083FC20680068402134
:103FF000884321680860284600F07AFC00BF202032
:10400000E0670020E0662046FFF7FEFC70BD000080
:10401000F8B504465C20075B8020005922287CD13B
:104020002068406A86B2656D304638402880606DF1
:10403000801C60655A20005B401E81B25A200153EB
:10404000005B002878D100BF00F040FC0090012008
:1040500000F04EFC20680068FF2121318843216870
:104060000860009800F044FC00BF00BF00F02EFC88
:104070000090012000F03CFC20688068400840006F
:1040800021688860009800F033FC00BF2021802068
:1040900001510020A066606628492068884218D037
:1040A000206840680121C9050840002811D000BFE0
:1040B00000F00CFC0090012000F01AFC2068006861
:1040C00001218906884321680860009800F010FCEF
:1040D00000BF206E012825D10020206600BF00F01F
:1040E000F5FB0090012000F003FC2068006810211F
:1040F000884321680860009800F0FAFB00BF206840
:10410000C069102108400009002802D01020216851
:1041100008625820015B204601E007E00CE0FFF751
:1041200097F809E02046FFF791FB05E020688069D9
:104130000821084321688861F8BD0000004800405C
:10414000F8B504465C20065B8020005922287CD10B
:104150002068406A85B2F0B22840616D0870606DD9
:10416000401C60655A20005B401E81B25A200153FA
:10417000005B002878D100BF00F0A8FB07460120B3
:1041800000F0B6FB20680068FF21213188432168D8
:104190000860384600F0ACFB00BF00BF00F096FBA3
:1041A0000746012000F0A4FB20688068400840001A
:1041B00021688860384600F09BFB00BF20218020EA
:1041C00001510020A066606628492068884218D006
:1041D000206840680121C9050840002811D000BFAF
:1041E00000F074FB0746012000F082FB20680068A5
:1041F00001218906884321680860384600F078FB71
:1042000000BF206E012825D10020206600BF00F0ED
:104210005DFB0746012000F06BFB20680068102161
:10422000884321680860384600F062FB00BF2068C0
:10423000C069102108400009002802D01020216820
:1042400008625820015B204601E007E00CE0FEF721
:10425000FFFF09E02046FFF7F9FA05E020688069D2
:104260000821084321688861F8BD0000004800402B
:10427000F0B587B0044600200390B8492068884212
:1042800000D100E000BF2169A068084361690843CC
:10429000E1690843059020680068B1490840059924
:1042A00008432168086020684068032109038843A7
:1042B000E168084321684860A0690590A749206823
:1042C000884203D0206A05990843059020688068D9
:1042D0000B2109028843059908432168886000BFC3
:1042E000A0492068884217D19F48C0688007800F86
:1042F000002806D0012808D0022804D0032808D1BD
:1043000005E0012607E0022605E0042603E0082672
:1043100001E0102600BF3BE094492068884217D195
:104320009148C0680C210840002806D0042808D015
:10433000082804D00C2808D105E0002607E0022652
:1043400005E0042603E0082601E0102600BF1FE078
:104350008249206888421AD18348C06803218902B3
:104360000840002808D001218902401A08D0401ACC
:1043700004D0401A08D105E0002607E0022605E037
:10438000042603E0082601E0102600BF00E0102606
:1043900000BF72492068884251D1002E06D0022EFB
:1043A00008D0042E12D0082E17D113E0FEF738FBE8
:1043B000054616E06C4840380068102108400009A6
:1043C000002801D06A4D00E06A4D0AE0FEF74CFB80
:1043D000054606E00125ED0303E0002501200390DA
:1043E00000BF00BF002D0AD0606841004018A842FD
:1043F00003D860680003A84202D201200390A7E01E
:10440000606802902846FF21013100F0FCF96268E3
:10441000520800238018594101910090029AFBF73D
:104420007DFE0746032109028F4205D35248874289
:1044300002D82068C7608BE00120039088E001214A
:10444000C903E069884247D1330000F0F4F9090656
:104450000A0E211A2121211E2100FEF7E1FA05464C
:104460001AE0FEF7EFFA054616E03F4840380068CC
:10447000102108400009002801D03D4D00E03D4DCD
:104480000AE0FEF7F1FA054606E00125ED0303E038
:1044900000250120039000BF00BF002D58D06A0006
:1044A00063685B08D0186168FBF722FE0746102F8F
:1044B0000FD3324887420CD830480F383840049028
:1044C0003807400F04990843049004982168C86095
:1044D0003EE0012003903BE0330000F0ACF9090618
:1044E0000A0E211A2121211E2100FEF799FA054604
:1044F0001AE0FEF7A7FA054616E01B4840380068A8
:10450000102108400009002801D0194D00E0194D84
:104510000AE0FEF7A9FA054606E00125ED0303E0EF
:1045200000250120039000BF00BF002D10D061685E
:104530004A085019FBF7DCFD0746102F06D30F4839
:10454000874203D8B8B22168C86001E00120039017
:104550000020A066E066039807B0F0BD0048004068
:10456000F369FFEF00380140401002400044004072
:1045700000093D000024F400FFFF0F00FFFF0000D2
:10458000F8B504460E4615466665582005535A2070
:1045900005530020A06600BF01210903A0688842DE
:1045A0000AD12069002803D13A495C20015324E054
:1045B000FF215C20015320E0A06800280AD1206977
:1045C000002803D1FF215C20015316E07F215C20ED
:1045D000015312E001210907A06888420AD120692D
:1045E000002803D17F215C20015306E03F215C209D
:1045F000015302E000215C20015300BF0021842010
:10460000015122218020015100BF00F05FF90746CF
:10461000012000F06DF920688068012108432168BD
:104620008860384600F064F900BF01210903A068E2
:10463000884205D12069002802D11748A06601E010
:104640001648A0662069002811D000BF00F03EF98E
:104650000746012000F04CF920680068FF21213155
:10466000084321680860384600F042F910E000BFB6
:1046700000F02CF90746012000F03AF920680068A4
:104680002021084321680860384600F031F900BF56
:104690000020F8BDFF010000114000084141000862
:1046A000FFB581B004460D4617460A9E46E0701CD1
:1046B000002843D0FDF7F2FE0499401AB04201D819
:1046C000002E02D1032005B0F0BD2068006804214F
:1046D0000840002832D0802D30D0402D2ED02068C8
:1046E000C06908210840C00800280FD008202168B0
:1046F00008622046FFF730FC08218420015100BFEA
:1047000000217820015500BF0120DCE72068C06946
:104710000121C9020840C00A00280FD008462168BC
:1047200008622046FFF718FC20218420015100BFB9
:1047300000217820015500BF0320C4E72068C0692C
:104740002840A84201D1012000E00020B842AED0AC
:104750000020B8E710B50248FEF77EFD10BD00004E
:104760000801002010B50248FEF776FD10BD0000DC
:104770009001002010B504460A48007800280BD1AB
:10478000FDF78CFE08490968401AA04202D90020B2
:1047900006490870002010BD002002490870012061
:1047A000F9E700006A0000206C0000207200002081
:1047B0000FB410B504A9074B02AA039800F056F9EC
:1047C000044602A9002000F0EDFC204610BC08BC05
:1047D00004B01847A55100082021020C01D0102177
:1047E0001046020A01D010460839020901D01046CD
:1047F000091F820801D01046891E420801D0881E78
:104800007047081A7047F8B582B28BB2040C0D0CD1
:1048100010465843002126465E43370C3604801963
:10482000794116466E43370C360480197941264685
:104830006E438919F8BD30B47446641E2578641C33
:10484000AB4204D3635D5B00E31830BC18471D46E0
:10485000F8E7000010B5002819DB1A4A03231B02F1
:10486000D21883089B00D2588307DC0EFF23A34095
:104870009A438B071B0E8407E40EA3401A43114B87
:10488000032424021B198408A4001A5118E00E4ABC
:1048900003071B0F083B9B089B00D2588307DC0EC5
:1048A000FF23A3409A438B071B0E8407E40EA3400B
:1048B0001A43054B0407240F083CA408A4001A510E
:1048C00010BD000000E100E01CED00E0EFF31080FF
:1048D000704702E008C8121F08C1002AFAD17047C9
:1048E0007047002001E001C1121F002AFBD1704770
:1048F00080F3108870470000F0B51FB486B00998A7
:10490000089A030D0021024314D05148514A181847
:10491000504305141198012810981AD0281A401CE9
:1049200000264D4F4D49009601910490002812DA5F
:10493000444211E01198012449A3012801D11098A3
:10494000C1430698119A84600360C26041600BB055
:10495000F0BD4042E4E70446210500203F4A001C28
:1049600051410391029012E0E00707D032463B46E6
:1049700001990098FBF772FD0191009032463B4689
:1049800010461946FBF76AFD06460F466410002CD8
:10499000EAD10498039B0028029A0999089806DA3C
:1049A000FBF75CFD019B009AFBF758FD05E0FBF768
:1049B000BDFD019B009AFBF7B9FD04460E4600229F
:1049C000284BFBF74BFE03D80020C043014607E00D
:1049D0000022254B20463146FBF78EFCFBF71EFEDE
:1049E000102409E0002C0ADB0A220023FBF796FBC7
:1049F000079B30321A55641E02460A43F2D1112237
:104A0000641C079B121B1C19119B012B03D0012353
:104A100008430ED10AE0084304D011201090002072
:104A2000119077E71098151A6D1E0BE010988242CE
:104A300002DD00236D1C03E0824201DA00236D1EBB
:104A4000002BEED0069811998260C16030C07EE7DD
:104A500001FCFFFF104D0000000014400000F03F7B
:104A6000300000000000F0430000E03FFFB597B0C9
:104A70000646002518E2252877D100242746FD495F
:104A8000049400E00443761C32780120203A9040E0
:104A90000842F7D130782A280ED002223078014619
:104AA0003039092916D804990A2359433039401856
:104AB0001443761C0490F1E7189802C804911890EA
:104AC000002904DA012040030443484204900220F4
:104AD0000443761C30782E2814D1042004437078C7
:104AE000761C2A2809D11898761C80C8189009E0ED
:104AF0000A214F43303FC719761C307801463039C0
:104B00000929F5D930786C2810D006DC4C281AD049
:104B100068280ED06A2817D104E0742813D07A28A8
:104B200012D110E00120400504430CE001210905E9
:104B300001E0032109050C437178814203D1012072
:104B400000052418761C761C3078119066280BD04E
:104B500013DC58287DD009DC00287BD04528F6D00E
:104B60004628F4D047281AD1A5E118E0632835D0AB
:104B7000642870D0652812D19DE170286CD008DCC3
:104B80006728F1D069287BD06E280DD06F2806D118
:104B9000BAE073282ED0752871D0782859D01A9A87
:104BA000199990476D1C7EE16002400F022809D0E0
:104BB00003280DD00428189801680DD00D60001D41
:104BC000189070E11898EA1701680D604A60F6E7DE
:104BD000189801680D80F2E70D70F0E718986A46A2
:104BE00001781172001D18900020507202A80090E8
:104BF000012005E0189802C8189000200091C043D9
:104C000061070DD5002101E00199491C0191B942CC
:104C100012DA8142F8DB009A515C0029F4D10BE0F2
:104C2000002101E00199491C01918142FADB019ABE
:104C30000099895C0029F5D1019904981A9B471ABB
:104C400021463846199A00F097FA019940194518FB
:104C50000BE04FE02CE113E04EE000980099007863
:104C6000491C00911A9A199990470198401E019089
:104C7000401CF2D1214638461A9B199A10E137E0C0
:104C80000A200021009001916002410F022907D003
:104C9000189A01CA1892C2179446032908D00AE04C
:104CA0001898C01DC108C90005C91891944607E0AD
:104CB00000B2C2179446042902D140B2C1178C46F3
:104CC00000226146944506DA0A460021404291419D
:104CD0008C462D2102E0210504D52B216A46117353
:104CE000012103E0E10701D02021F7E7029155E01F
:104CF0000A200AE0102008E0102000900021042083
:104D000004430191082703E008200021019100904D
:104D10006002410F022907D0189A01CA1892002296
:104D20009446032908D008E01898C01DC108C9009E
:104D300005C91891944603E080B2042900D1C0B29D
:104D400000210291210729D51199702906D0009AD6
:104D50001021019B4A401A4305D00EE040216A46CB
:104D60001173012108E06146014306D030216A46F3
:104D700011731199517302210291009A0821019B2C
:104D80004A401A430AD16146014301D1610705D562
:104D900030216A46117301217F1E02911199582911
:104DA00004D035A10E910DA90D910DE037A1F9E7C1
:104DB0006146019B009AFBF7B1F90E9B8C469B5C08
:104DC0000D9A521E0D92137061460143F0D10D9859
:104DD00005A9081A20300190600703D501200004BE
:104DE000844300E001270198874201DD381A00E082
:104DF0000020019900904118029809180498401A5F
:104E00000490E00306D421461A9B199A049800F0F6
:104E1000B3F94519002706E003A81A9AC05D19994D
:104E200090476D1C7F1C02988742F5DBE0030CD590
:104E300021461A9B199A049800F09EF9451904E03E
:104E40001A9A3020199990476D1C0099481E0090BD
:104E50000029F5DC08E00D980D990078491C0D91AA
:104E60001A9A199990476D1C0199481E01900029C2
:104E7000F1DC63E109280100303132333435363753
:104E80003839616263646566000000003031323396
:104E90003435363738394142434445460000000036
:104EA00000F05AF94519761C3078002800D0E2E568
:104EB00028461BB0F0BD600700D406271898C01D17
:104EC000C108C90048680A680831C30FDB07189198
:104ED000190001D09CA108E0210501D59BA104E0A7
:104EE000E10701D09AA100E09AA1430011985B0864
:104EF000109165280CD006DC452809D046281DD025
:104F0000472841D141E0662818D067283CD13CE0D1
:104F10000021112F01DB112000E0781C019100908D
:104F200008A911A8FFF7E8FC139905910021119A2F
:104F300015927F1C12980197009150E00120C00744
:104F400003900120019008A9009711A8FFF7D4FC55
:104F5000139A149905920022119B009212981593AE
:104F6000059A0192002901D0104602E0791C4018F0
:104F70000190381A01D5019804E04042401E00908B
:104F8000781C0190C01B029043E0012F00DA01273A
:104F90000021112F01DD112000E038460191009021
:104FA00008A911A8FFF7A8FC13990591119A0021EF
:104FB000129815920091019721070CD40599B942D6
:104FC00001DB019900E00191012904DD159A491ED8
:104FD000515C302906D0B84201DA011D05DA012101
:104FE000029115E00199491EEDE7002805DC0099C2
:104FF000411800910199091A03E0019A411C91425C
:1050000000DD01910099401A401C02900120C00768
:105010000390200706D402990198814202DB002008
:10502000C043029000206946C87707AF012103986A
:105030000337C907884224D0022011902B201290F8
:10504000039800280CDA404203902D20129007E0CC
:105050000A210398FBF74CF830317F1E039039701A
:105060001199481E11900029F2DC03980028EFD115
:10507000791E129808703078202108404530BF1EF4
:10508000387006A8C01BC01D039010980078002837
:1050900000D00120019941180298C01709180398FF
:1050A00009180498401A401E0490E00306D42146D3
:1050B0001A9B199A049800F05FF845191098007827
:1050C000002803D01A9A199990476D1CE00324D543
:1050D00021461A9B199A049800F04EF845191CE0D5
:1050E0000098002807DB00990598884203DD159891
:1050F000405C199901E0199930201A9A904700985C
:105100006D1C401C00900298401E0290002804D1A3
:105110001A9A2E20199990476D1C0199481E0190EA
:105120000029DDDC05E038781A9A7F1C1999904730
:105130006D1C0399481E03900029F4DC21461A9B3C
:10514000199A0498ACE600002D0000002B00000026
:105150002000000000000000F8B5044600251E46AF
:105160001746880404D405E039462020B0476D1C5A
:10517000641EF9D52846F8BDFFB50446002581B068
:105180001E46C80301D5302700E02027880404D537
:1051900005E038460399B0476D1C641EF9D52846D2
:1051A00005B0F0BD0A68531C0B601070704700001A
:1051B000F8B50546002400F0F7FA0746FF2F01D0A6
:1051C000002F00D1012700BF9B4800880212204613
:1051D000611C8CB22A54984802782046611C8CB21B
:1051E0002A5400BF00BF9548008802122046611C67
:1051F0008CB22A54914802782046611C8CB22A5401
:1052000000BF00BF8E48008802122046611C8CB28D
:105210002A548B4802782046611C8CB22A5400BF65
:1052200000BF8848008802122146601C84B26A547C
:10523000844802782146601C84B26A5400BF00BFD3
:105240008148008802122146601C84B26A547E485C
:1052500002782046611C8CB22A5400BF00BF7B48F4
:10526000008802122046611C8CB22A5477480278CA
:105270002146601C84B26A5400BF00BF7448008895
:1052800002122046611C8CB22A54714802782146D1
:10529000601C84B26A5400BF6E4903C9FAF7ADFFBF
:1052A000064600BF3046010E2246631C9CB2A9543C
:1052B00001020A0E2146631C9CB26A5401040A0EC4
:1052C0002146631C9CB26A542146631C9CB26854FC
:1052D00000BF614903C9FAF790FF064600BF304698
:1052E000010E2246631C9CB2A95401020A0E2146FB
:1052F000631C9CB26A5401040A0E2146631C9CB2D2
:105300006A542146631C9CB2685400BF534903C9C8
:10531000FAF773FF064600BF3046010E2246631CB3
:105320009CB2A95401020A0E2146631C9CB26A5425
:1053300001040A0E2146631C9CB26A542146631C78
:105340009CB2685400BF00BF45490868010E224660
:10535000631C9CB2A95401020A0E2146631C9CB234
:105360006A5401040A0E2146631C9CB26A54214609
:10537000631C9CB2685400BF00BF3A490868010E24
:105380002246631C9CB2A95401020A0E2146631CEA
:105390009CB26A5401040A0E2146631C9CB26A54F2
:1053A0002146631C9CB2685400BF00BF2E490868A8
:1053B000010E2246631C9CB2A95401020A0E21462A
:1053C000631C9CB26A5401040A0E2146631C9CB201
:1053D0006A542146631C9CB2685400BF00222046D8
:1053E000611C8CB22A542146601C84B26A54204647
:1053F000611C8CB22F5404E000222146601C84B250
:105400006A54642CF8DB6421284600F0ADF9009062
:105410000098C2B22046611C8CB22A540098001237
:105420002146621C94B2685410A0FCF7B7FA2146DA
:105430002846FCF7C3FAF8BD000000200200002057
:105440000400002006000020080000200A000020C0
:105450000C00002010000020180000202000002078
:10546000280000202C000020300000200D0A545895
:1054700020737472696E6720746F206D6F6462753B
:10548000733A2000F8B503460C46104611490091C6
:10549000002116E05D5C2D02684000250DE001262C
:1054A000F6030640002E04D046000A4F7E40B0B2FC
:1054B00001E04604300C6E1CF5B2082DEFDB4D1CEC
:1054C000E9B2A142E6DB044DE8710104090EA971BD
:1054D000F8BD00002110000046000020F0B58DB09E
:1054E0000446277860780C9038A0FCF757FA012121
:1054F0000CA8FCF763FA37A0FCF750FA364800789E
:10550000874206D0002F04D034A0FCF747FA0DB034
:10551000F0BDE0790002A17908430B9006212046F6
:1055200000F022F9064633A0FCF738FA324635A1DE
:1055300003A8FFF73DF903A8FCF730FA0B98B04237
:1055400003D035A0FCF72AFAE1E708A8007C06287A
:105550003AD134A0FCF722FAA0780002E17808439F
:1055600002902079000261790843054602981928C3
:1055700029D130A0FCF712FA012D24DBF72D22DC13
:1055800030A0FCF70BFAE8B200F030F912490D70C8
:105590000621204600F0E8F801900198A0710198DA
:1055A0000012E0716423082221462C48FEF7B8F966
:1055B0002BA0FCF7F3F901210748FCF7FFF905A040
:1055C000FCF7ECF900BF00BF00BFA0E746756E63B3
:1055D0003A2000000D0A00003400002057726F6E60
:1055E0006720536C61766520416464726573730D46
:1055F0000A00000045787065637465642043524377
:105600003A2000004352432063616C633A203078B3
:10561000253034580D0A0000435243204572726F02
:10562000720D0A0046756E6374696F6E2030360D18
:105630000A0000005265676973746572204F4B0D54
:105640000A00000057726974696E67206E657720E2
:10565000616464726573730D0A0000000801002024
:105660004E65772041646472205365743A200000CF
:105670001CB5FCF725FFFEF723FBFCF743F9FCF70D
:10568000C5F96420FCF738FD24A0FCF787F900F089
:105690008BF80190012101A8FCF790F9FEF79CFA24
:1056A0003AE0012221492248FEF78AF82148007891
:1056B000002831D000201F49087064231E4802884A
:1056C0001E491B48FEF72CF91DA0FCF767F91A4884
:1056D00001881A48FCF772F917480088022811DB84
:1056E0001648407806280DD11448FFF7F7FE17A09A
:1056F000FCF754F900F058F8009001216846FCF7D7
:105700005DF901E0FEF768FA00200B4908804B21A3
:10571000C9000A48FAF74BFDC3E70000536C6176F5
:105720006520616464726573733A2000890000200B
:105730009001002087000020820000207A060020CF
:1057400044454255472052583A200000536C617638
:10575000652041646472657373204368616E676598
:1057600064206E65773A200070B502460B460C48FF
:10577000002112E0545C604000240AE0C507ED0FF0
:10578000002D04D04510074E7540284600E040101B
:10579000641C082CF2DB4C1CA1B29942EADB70BD00
:1057A000FFFF000001A0000005480178FF2903D099
:1057B000002901D0F72901DD012070470846FCE7E8
:1057C000007C000810B50246002009E0135C4C1E66
:1057D000241A145D14544C1E241A1355431C98B2F9
:1057E000CC0F641864108442F0DC10BD7FB5044611
:1057F000FCF716FD0020019008480290012003905C
:10580000694601A8FCF78EFC25462A46034902207A
:10581000FCF7DEFCFCF7CCFC7FBD0000007C000840
:1058200030313233343536373839414243444546D6
:105830000000000000000000000102030406070849
:10584000090000000001020304030406080C1018FC
:105850002030000074580008000000209C00000068
:10586000D2480008105900089C000020540C000089
:10587000E2480008000000000000000000000000F6
:105880000000000000000000000000000000000018
:105890000000000000000000000000000000000008
:1058A00000000000000000000000000000000000F8
:1058B000000000000000000000000407A2FE00003D
:1058C0002C17280407A2FFA55A010328676F4C650F
:1058D0006D756C6F56796C696144020000000000C0
:1058E00000000000000000000300000000000000B5
:1058F0000A0000000000000000000000000000009E
:105900000000000004000000010000000000200072
:04000005080000C12E
:00000001FF
